{
	"data": {
		"bytecode": {
			"linkReferences": {},
			"object": "61018060405234801562000011575f80fd5b506040516200500e3803806200500e833981016040819052620000349162000706565b600481611c2061c4e05f6040518060400160405280600a8152602001695669727475616c44414f60b01b81525080620000726200017a60201b60201c565b6200007e825f62000195565b610120526200008f81600162000195565b61014052815160208084019190912060e052815190820120610100524660a0526200011c60e05161010051604080517f8b73c3c69bb8fe3d512ecc4cf759cc79239f7b179b0ffacaa9a75d522b39400f60208201529081019290925260608201524660808201523060a08201525f9060c00160405160208183030381529060405280519060200120905090565b60805250503060c0526003620001338282620007cc565b5062000141905083620001cd565b6200014c8262000233565b6200015781620002d8565b5050506001600160a01b031661016052620001728162000319565b505062000951565b6040805180820190915260018152603160f81b602082015290565b5f602083511015620001b457620001ac83620003b8565b9050620001c7565b81620001c18482620007cc565b5060ff90505b92915050565b6008546040805165ffffffffffff928316815291831660208301527fc565b045403dc03c2eea82b81a0465edad9e2e7fc4d97e11421c209da93d7a93910160405180910390a16008805465ffffffffffff191665ffffffffffff92909216919091179055565b8063ffffffff165f03620002615760405163f1cfbf0560e01b81525f60048201526024015b60405180910390fd5b6008546040805163ffffffff66010000000000009093048316815291831660208301527f7e3f7f0708a84de9203036abaa450dccc85ad5ff52f78c170f3edb55cf5e8828910160405180910390a16008805463ffffffff90921666010000000000000263ffffffff60301b19909216919091179055565b60075460408051918252602082018390527fccb45da8d5717e6c4544694297c4ba5cf151d455c9bb0ed4fc7a38411bc05461910160405180910390a1600755565b606480821115620003485760405163243e544560e01b8152600481018390526024810182905260440162000258565b5f62000353620003fa565b9050620003786200036362000415565b6200036e8562000496565b600c9190620004cf565b505060408051828152602081018590527f0553476bf02ef2726e8ce5ced78d63e26e602e4a2257b1f559418e24b4633997910160405180910390a1505050565b5f80829050601f81511115620003e5578260405163305a27a960e01b815260040162000258919062000898565b8051620003f282620008e6565b179392505050565b5f62000407600c620004eb565b6001600160d01b0316905090565b5f620004216101605190565b6001600160a01b03166391ddadf46040518163ffffffff1660e01b8152600401602060405180830381865afa9250505080156200047d575060408051601f3d908101601f191682019092526200047a918101906200090a565b60015b62000491576200048c62000538565b905090565b919050565b5f6001600160d01b03821115620004cb576040516306dfcc6560e41b815260d060048201526024810183905260440162000258565b5090565b5f80620004de85858562000544565b915091505b935093915050565b80545f9080156200052f5762000515836200050860018462000931565b5f91825260209091200190565b54660100000000000090046001600160d01b031662000531565b5f5b9392505050565b5f6200048c43620006d2565b82545f908190801562000674575f62000564876200050860018562000931565b60408051808201909152905465ffffffffffff80821680845266010000000000009092046001600160d01b031660208401529192509087161015620005bc57604051632520601d60e01b815260040160405180910390fd5b805165ffffffffffff808816911603620006105784620005e3886200050860018662000931565b80546001600160d01b039290921666010000000000000265ffffffffffff90921691909117905562000663565b6040805180820190915265ffffffffffff80881682526001600160d01b0380881660208085019182528b54600181018d555f8d815291909120945191519092166601000000000000029216919091179101555b602001519250839150620004e39050565b50506040805180820190915265ffffffffffff80851682526001600160d01b0380851660208085019182528854600181018a555f8a8152918220955192519093166601000000000000029190931617920191909155905081620004e3565b5f65ffffffffffff821115620004cb576040516306dfcc6560e41b8152603060048201526024810183905260440162000258565b5f6020828403121562000717575f80fd5b81516001600160a01b038116811462000531575f80fd5b634e487b7160e01b5f52604160045260245ffd5b600181811c908216806200075757607f821691505b6020821081036200077657634e487b7160e01b5f52602260045260245ffd5b50919050565b601f821115620007c757805f5260205f20601f840160051c81016020851015620007a35750805b601f840160051c820191505b81811015620007c4575f8155600101620007af565b50505b505050565b81516001600160401b03811115620007e857620007e86200072e565b6200080081620007f9845462000742565b846200077c565b602080601f83116001811462000836575f84156200081e5750858301515b5f19600386901b1c1916600185901b17855562000890565b5f85815260208120601f198616915b82811015620008665788860151825594840194600190910190840162000845565b50858210156200088457878501515f19600388901b60f8161c191681555b505060018460011b0185555b505050505050565b5f602080835283518060208501525f5b81811015620008c657858101830151858201604001528201620008a8565b505f604082860101526040601f19601f8301168501019250505092915050565b8051602080830151919081101562000776575f1960209190910360031b1b16919050565b5f602082840312156200091b575f80fd5b815165ffffffffffff8116811462000531575f80fd5b81810381811115620001c757634e487b7160e01b5f52601160045260245ffd5b60805160a05160c05160e05161010051610120516101405161016051614645620009c95f395f8181610aa9015281816112f301528181611836015281816124d701526126c101525f6124a401525f61247801525f6128e001525f6128b801525f61281301525f61283d01525f61286701526146455ff3fe608060405260043610610310575f3560e01c80637b3c71d3116101a3578063c01f9e37116100f2578063e540d01d11610092578063f23a6e611161006d578063f23a6e6114610a51578063f8ce560a14610a7c578063fc0c546a14610a9b578063fe0d94c114610acd575f80fd5b8063e540d01d146109f4578063eb9019d414610a13578063ece40cc114610a32575f80fd5b8063da35c664116100cd578063da35c66414610949578063dd4e2ba51461095d578063ddf0b009146109a2578063deaaa7cc146109c1575f80fd5b8063c01f9e37146108f8578063c28bc2fa14610917578063c59057e41461092a575f80fd5b806397c3d3341161015d578063a9a9529411610138578063a9a9529414610864578063ab58fb8e14610883578063b58131b0146108b9578063bc197c81146108cd575f80fd5b806397c3d3341461081e5780639a802a6d14610831578063a7713a7014610850575f80fd5b80637b3c71d31461073b5780637d5e81e21461075a5780637ecebe001461077957806384b0196e146107ad5780638ff262e3146107d457806391ddadf4146107f3575f80fd5b80633932abb11161025f578063544ffc9c116102195780635b8d0e0d116101f45780635b8d0e0d146106bf5780635f398a14146106de57806360c4247f146106fd578063790518871461071c575f80fd5b8063544ffc9c1461062457806354fd4d501461067757806356781388146106a0575f80fd5b80633932abb11461054a5780633e4f49e61461055e57806340e58ee51461058a57806343859632146105a9578063452115d6146105f15780634bf5d7e914610610575f80fd5b8063160cbed7116102ca5780632656227d116102a55780632656227d146104b55780632d63f693146104c85780632e82db94146104e75780632fe3e26114610517575f80fd5b8063160cbed71461044b57806316e9eaec1461046a57806324bc1a6414610499575f80fd5b806301ffc9a71461031d57806302a251a31461035157806306f3f9e61461037c57806306fdde031461039b578063143489d0146103bc578063150b7a0214610408575f80fd5b3661031957005b005b5f80fd5b348015610328575f80fd5b5061033c6103373660046135bc565b610ae0565b60405190151581526020015b60405180910390f35b34801561035c575f80fd5b50600854600160301b900463ffffffff165b604051908152602001610348565b348015610387575f80fd5b506103176103963660046135e3565b610b36565b3480156103a6575f80fd5b506103af610b4a565b6040516103489190613647565b3480156103c7575f80fd5b506103f06103d63660046135e3565b5f908152600460205260409020546001600160a01b031690565b6040516001600160a01b039091168152602001610348565b348015610413575f80fd5b50610432610422366004613732565b630a85bd0160e11b949350505050565b6040516001600160e01b03199091168152602001610348565b348015610456575f80fd5b5061036e6104653660046138fb565b610bda565b348015610475575f80fd5b506104896104843660046135e3565b610c18565b6040516103489493929190613a4e565b3480156104a4575f80fd5b506954b40b1f852bda00000061036e565b61036e6104c33660046138fb565b610e17565b3480156104d3575f80fd5b5061036e6104e23660046135e3565b610f3f565b3480156104f2575f80fd5b506105066105013660046135e3565b610f5f565b604051610348959493929190613a98565b348015610522575f80fd5b5061036e7f3e83946653575f9a39005e1545185629e92736b7528ab20ca3816f315424a81181565b348015610555575f80fd5b5061036e610fa9565b348015610569575f80fd5b5061057d6105783660046135e3565b610fbb565b6040516103489190613b1d565b348015610595575f80fd5b506103176105a43660046135e3565b6110ec565b3480156105b4575f80fd5b5061033c6105c3366004613b2b565b5f8281526009602090815260408083206001600160a01b038516845260030190915290205460ff1692915050565b3480156105fc575f80fd5b5061036e61060b3660046138fb565b611283565b34801561061b575f80fd5b506103af6112ef565b34801561062f575f80fd5b5061065c61063e3660046135e3565b5f908152600960205260409020805460018201546002909201549092565b60408051938452602084019290925290820152606001610348565b348015610682575f80fd5b506040805180820190915260018152603160f81b60208201526103af565b3480156106ab575f80fd5b5061036e6106ba366004613b65565b6113af565b3480156106ca575f80fd5b5061036e6106d9366004613bca565b6113d6565b3480156106e9575f80fd5b5061036e6106f8366004613c7a565b611532565b348015610708575f80fd5b5061036e6107173660046135e3565b611585565b348015610727575f80fd5b50610317610736366004613d0a565b611611565b348015610746575f80fd5b5061036e610755366004613d25565b611622565b348015610765575f80fd5b5061036e610774366004613d7a565b611668565b348015610784575f80fd5b5061036e610793366004613e26565b6001600160a01b03165f9081526002602052604090205490565b3480156107b8575f80fd5b506107c1611722565b6040516103489796959493929190613e3f565b3480156107df575f80fd5b5061036e6107ee366004613eae565b611764565b3480156107fe575f80fd5b50610807611833565b60405165ffffffffffff9091168152602001610348565b348015610829575f80fd5b50606461036e565b34801561083c575f80fd5b5061036e61084b366004613ef9565b6118ba565b34801561085b575f80fd5b5061036e6118c6565b34801561086f575f80fd5b5061033c61087e3660046135e3565b505f90565b34801561088e575f80fd5b5061036e61089d3660046135e3565b5f9081526004602052604090206001015465ffffffffffff1690565b3480156108c4575f80fd5b5061036e6118df565b3480156108d8575f80fd5b506104326108e7366004613f4b565b63bc197c8160e01b95945050505050565b348015610903575f80fd5b5061036e6109123660046135e3565b6118e9565b610317610925366004613fd3565b61192b565b348015610935575f80fd5b5061036e6109443660046138fb565b6119a7565b348015610954575f80fd5b50600a5461036e565b348015610968575f80fd5b506040805180820190915260208082527f737570706f72743d627261766f2671756f72756d3d666f722c6162737461696e908201526103af565b3480156109ad575f80fd5b506103176109bc3660046135e3565b6119e0565b3480156109cc575f80fd5b5061036e7ff2aad550cf55f045cb27e9c559f9889fdfb6e6cdaa032301d6ea397784ae51d781565b3480156109ff575f80fd5b50610317610a0e366004614010565b611b72565b348015610a1e575f80fd5b5061036e610a2d366004614033565b611b83565b348015610a3d575f80fd5b50610317610a4c3660046135e3565b611ba9565b348015610a5c575f80fd5b50610432610a6b36600461405b565b63f23a6e6160e01b95945050505050565b348015610a87575f80fd5b5061036e610a963660046135e3565b611bba565b348015610aa6575f80fd5b507f00000000000000000000000000000000000000000000000000000000000000006103f0565b610317610adb3660046135e3565b611bc4565b5f6001600160e01b031982166332a2ad4360e11b1480610b1057506001600160e01b03198216630271189760e51b145b80610b2b57506301ffc9a760e01b6001600160e01b03198316145b92915050565b905090565b610b3e611d56565b610b4781611d8d565b50565b606060038054610b59906140ba565b80601f0160208091040260200160405190810160405280929190818152602001828054610b85906140ba565b8015610bd05780601f10610ba757610100808354040283529160200191610bd0565b820191905f5260205f20905b815481529060010190602001808311610bb357829003601f168201915b5050505050905090565b5f80610be8868686866119a7565b9050610bfd81610bf86004611e22565b611e44565b505f604051634844252360e11b815260040160405180910390fd5b5f818152600b602090815260408083208151815460a0948102820185019093526080810183815260609586958695919485949390928492849190840182828015610c8957602002820191905f5260205f20905b81546001600160a01b03168152600190910190602001808311610c6b575b5050505050815260200160018201805480602002602001604051908101604052809291908181526020018280548015610cdf57602002820191905f5260205f20905b815481526020019060010190808311610ccb575b5050505050815260200160028201805480602002602001604051908101604052809291908181526020015f905b82821015610db4578382905f5260205f20018054610d29906140ba565b80601f0160208091040260200160405190810160405280929190818152602001828054610d55906140ba565b8015610da05780601f10610d7757610100808354040283529160200191610da0565b820191905f5260205f20905b815481529060010190602001808311610d8357829003601f168201915b505050505081526020019060010190610d0c565b505050508152602001600382015481525050905080606001515f801b03610df657604051636ad0607560e01b8152600481018790526024015b60405180910390fd5b80516020820151604083015160609093015191989097509195509350915050565b5f80610e25868686866119a7565b9050610e4581610e356005611e22565b610e3f6004611e22565b17611e44565b505f818152600460205260409020805460ff60f01b1916600160f01b17905530610e6c3090565b6001600160a01b031614610ef5575f5b8651811015610ef357306001600160a01b0316878281518110610ea157610ea16140f2565b60200260200101516001600160a01b031603610eeb57610eeb858281518110610ecc57610ecc6140f2565b6020026020010151805190602001206005611e8190919063ffffffff16565b600101610e7c565b505b610f028187878787611ef1565b6040518181527f712ae1383f79ac853f8d882153778e0260ef8f03b504e2866e0593e04d2b291f906020015b60405180910390a195945050505050565b5f90815260046020526040902054600160a01b900465ffffffffffff1690565b5f60608060605f80600a8781548110610f7a57610f7a6140f2565b905f5260205f20015490505f805f80610f9285610c18565b979e929d50909b5099509497509395505050505050565b5f610b3160085465ffffffffffff1690565b5f818152600460205260408120805460ff600160f01b8204811691600160f81b9004168115610fef57506007949350505050565b801561100057506002949350505050565b5f61100a86610f3f565b9050805f0361102f57604051636ad0607560e01b815260048101879052602401610ded565b5f611038611833565b65ffffffffffff16905080821061105557505f9695505050505050565b5f61105f886118e9565b905081811061107657506001979650505050505050565b61107f88611fc6565b158061109e57505f888152600960205260409020805460019091015411155b156110b157506003979650505050505050565b5f8881526004602052604090206001015465ffffffffffff165f036110de57506004979650505050505050565b506005979650505050505050565b5f818152600b60209081526040918290208054835181840281018401909452808452909261127e929091849183018282801561114f57602002820191905f5260205f20905b81546001600160a01b03168152600190910190602001808311611131575b5050505050826001018054806020026020016040519081016040528092919081815260200182805480156111a057602002820191905f5260205f20905b81548152602001906001019080831161118c575b505050505083600201805480602002602001604051908101604052809291908181526020015f905b82821015611270578382905f5260205f200180546111e5906140ba565b80601f0160208091040260200160405190810160405280929190818152602001828054611211906140ba565b801561125c5780601f106112335761010080835404028352916020019161125c565b820191905f5260205f20905b81548152906001019060200180831161123f57829003601f168201915b5050505050815260200190600101906111c8565b505050508460030154611283565b505050565b5f80611291868686866119a7565b90506112a081610bf85f611e22565b505f818152600460205260409020546001600160a01b031633146112d95760405163233d98e360e01b8152336004820152602401610ded565b6112e586868686611ffc565b9695505050505050565b60607f00000000000000000000000000000000000000000000000000000000000000006001600160a01b0316634bf5d7e96040518163ffffffff1660e01b81526004015f60405180830381865afa92505050801561136e57506040513d5f823e601f3d908101601f1916820160405261136b9190810190614106565b60015b6113aa575060408051808201909152601d81527f6d6f64653d626c6f636b6e756d6265722666726f6d3d64656661756c74000000602082015290565b919050565b5f803390506113ce84828560405180602001604052805f8152506120ab565b949350505050565b5f806114b7876114b17f3e83946653575f9a39005e1545185629e92736b7528ab20ca3816f315424a8118c8c8c6114298e6001600160a01b03165f90815260026020526040902080546001810190915590565b8d8d60405161143992919061416e565b60405180910390208c805190602001206040516020016114969796959493929190968752602087019590955260ff9390931660408601526001600160a01b03919091166060850152608084015260a083015260c082015260e00190565b604051602081830303815290604052805190602001206120d5565b85612101565b9050806114e2576040516394ab6c0760e01b81526001600160a01b0388166004820152602401610ded565b61152589888a89898080601f0160208091040260200160405190810160405280939291908181526020018383808284375f920191909152508b9250612156915050565b9998505050505050505050565b5f8033905061157a87828888888080601f0160208091040260200160405190810160405280939291908181526020018383808284375f920191909152508a9250612156915050565b979650505050505050565b600c80545f918290611598600184614191565b815481106115a8576115a86140f2565b5f918252602090912001805490915065ffffffffffff811690600160301b90046001600160d01b03168582116115ea576001600160d01b031695945050505050565b6115fe6115f687612230565b600c90612266565b6001600160d01b03169695505050505050565b611619611d56565b610b4781612315565b5f803390506112e586828787878080601f0160208091040260200160405190810160405280939291908181526020018383808284375f920191909152506120ab92505050565b5f33611674818461237b565b61169c5760405163d9b3955760e01b81526001600160a01b0382166004820152602401610ded565b5f6116c28260016116ab611833565b6116b591906141a4565b65ffffffffffff16611b83565b90505f6116cd6118df565b90508082101561170957604051636121770b60e11b81526001600160a01b03841660048201526024810183905260448101829052606401610ded565b6117168888888887612463565b98975050505050505050565b5f6060805f805f6060611733612471565b61173b61249d565b604080515f80825260208201909252600f60f81b9b939a50919850469750309650945092509050565b5f806117ee846114b17ff2aad550cf55f045cb27e9c559f9889fdfb6e6cdaa032301d6ea397784ae51d78989896117b78b6001600160a01b03165f90815260026020526040902080546001810190915590565b60408051602081019690965285019390935260ff90911660608401526001600160a01b0316608083015260a082015260c001611496565b905080611819576040516394ab6c0760e01b81526001600160a01b0385166004820152602401610ded565b6112e586858760405180602001604052805f8152506120ab565b5f7f00000000000000000000000000000000000000000000000000000000000000006001600160a01b03166391ddadf46040518163ffffffff1660e01b8152600401602060405180830381865afa9250505080156118ae575060408051601f3d908101601f191682019092526118ab918101906141ca565b60015b6113aa57610b316124ca565b5f6113ce8484846124d4565b5f6118d1600c612567565b6001600160d01b0316905090565b5f610b3160075490565b5f8181526004602052604081205461191d90600160d01b810463ffffffff1690600160a01b900465ffffffffffff166141e5565b65ffffffffffff1692915050565b611933611d56565b5f80856001600160a01b031685858560405161195092919061416e565b5f6040518083038185875af1925050503d805f811461198a576040519150601f19603f3d011682016040523d82523d5f602084013e61198f565b606091505b509150915061199e828261259e565b50505050505050565b5f848484846040516020016119bf9493929190613a4e565b60408051601f19818403018152919052805160209091012095945050505050565b5f818152600b60209081526040918290208054835181840281018401909452808452909261127e9290918491830182828015611a4357602002820191905f5260205f20905b81546001600160a01b03168152600190910190602001808311611a25575b505050505082600101805480602002602001604051908101604052809291908181526020018280548015611a9457602002820191905f5260205f20905b815481526020019060010190808311611a80575b505050505083600201805480602002602001604051908101604052809291908181526020015f905b82821015611b64578382905f5260205f20018054611ad9906140ba565b80601f0160208091040260200160405190810160405280929190818152602001828054611b05906140ba565b8015611b505780601f10611b2757610100808354040283529160200191611b50565b820191905f5260205f20905b815481529060010190602001808311611b3357829003601f168201915b505050505081526020019060010190611abc565b505050508460030154610bda565b611b7a611d56565b610b47816125ba565b5f611ba28383611b9d60408051602081019091525f815290565b6124d4565b9392505050565b611bb1611d56565b610b4781612656565b5f610b2b82612697565b5f818152600b60209081526040918290208054835181840281018401909452808452909261127e9290918491830182828015611c2757602002820191905f5260205f20905b81546001600160a01b03168152600190910190602001808311611c09575b505050505082600101805480602002602001604051908101604052809291908181526020018280548015611c7857602002820191905f5260205f20905b815481526020019060010190808311611c64575b505050505083600201805480602002602001604051908101604052809291908181526020015f905b82821015611d48578382905f5260205f20018054611cbd906140ba565b80601f0160208091040260200160405190810160405280929190818152602001828054611ce9906140ba565b8015611d345780601f10611d0b57610100808354040283529160200191611d34565b820191905f5260205f20905b815481529060010190602001808311611d1757829003601f168201915b505050505081526020019060010190611ca0565b505050508460030154610e17565b303314611d78576040516347096e4760e01b8152336004820152602401610ded565b565b80611d85600561273e565b03611d7a5750565b606480821115611dba5760405163243e544560e01b81526004810183905260248101829052604401610ded565b5f611dc36118c6565b9050611de2611dd0611833565b611dd9856127ba565b600c91906127ed565b505060408051828152602081018590527f0553476bf02ef2726e8ce5ced78d63e26e602e4a2257b1f559418e24b4633997910160405180910390a1505050565b5f816007811115611e3557611e35613ae9565b600160ff919091161b92915050565b5f80611e4f84610fbb565b90505f83611e5c83611e22565b1603611ba2578381846040516331b75e4d60e01b8152600401610ded93929190614204565b81546001600160801b03600160801b820481169181166001830190911603611ebc57604051638acb5f2760e01b815260040160405180910390fd5b6001600160801b038082165f90815260018086016020526040909120939093558354919092018216600160801b029116179055565b5f5b8451811015611fbe575f80868381518110611f1057611f106140f2565b60200260200101516001600160a01b0316868481518110611f3357611f336140f2565b6020026020010151868581518110611f4d57611f4d6140f2565b6020026020010151604051611f629190614226565b5f6040518083038185875af1925050503d805f8114611f9c576040519150601f19603f3d011682016040523d82523d5f602084013e611fa1565b606091505b5091509150611fb0828261259e565b505050806001019050611ef3565b505050505050565b5f81815260096020526040812060028101546001820154611fe79190614241565b611ff3610a9685610f3f565b11159392505050565b5f8061200a868686866119a7565b90506120588161201a6007611e22565b6120246006611e22565b61202e6002611e22565b600161203b600782614254565b61204690600261434d565b6120509190614191565b181818611e44565b505f818152600460205260409081902080546001600160f81b0316600160f81b179055517f789cf55be980739dad1d0699b93b58e806b51c9d96619bfa8fe0a28abaa7b30c90610f2e9083815260200190565b5f6120cc858585856120c760408051602081019091525f815290565b612156565b95945050505050565b5f610b2b6120e1612807565b8360405161190160f01b8152600281019290925260228201526042902090565b5f805f61210e8585612930565b5090925090505f81600381111561212757612127613ae9565b1480156121455750856001600160a01b0316826001600160a01b0316145b806112e557506112e5868686612979565b5f61216586610bf86001611e22565b505f61217a8661217489610f3f565b856124d4565b90506121898787878487612a4f565b82515f036121dd57856001600160a01b03167fb8e138887d0aa13bab447e82de9d5c1777041ecd21ca36ba824ff1e6c07ddda4888784886040516121d0949392919061435b565b60405180910390a26112e5565b856001600160a01b03167fe2babfbac5889a709b63bb7f598b324e08bc5a4fb9ec647fb3cbc9ec07eb8712888784888860405161221e959493929190614382565b60405180910390a29695505050505050565b5f65ffffffffffff821115612262576040516306dfcc6560e41b81526030600482015260248101839052604401610ded565b5090565b81545f90818160058111156122c2575f61227f84612b41565b6122899085614191565b5f8881526020902090915081015465ffffffffffff90811690871610156122b2578091506122c0565b6122bd816001614241565b92505b505b5f6122cf87878585612c25565b90508015612309576122f3876122e6600184614191565b5f91825260209091200190565b54600160301b90046001600160d01b031661157a565b5f979650505050505050565b6008546040805165ffffffffffff928316815291831660208301527fc565b045403dc03c2eea82b81a0465edad9e2e7fc4d97e11421c209da93d7a93910160405180910390a16008805465ffffffffffff191665ffffffffffff92909216919091179055565b80515f906034811015612392576001915050610b2b565b82810160131901516001600160a01b031981166b046e0e4dee0dee6cae47a60f60a31b146123c557600192505050610b2b565b5f806123d2602885614191565b90505b83811015612442575f806124088884815181106123f4576123f46140f2565b01602001516001600160f81b031916612c84565b91509150816124205760019650505050505050610b2b565b8060ff166004856001600160a01b0316901b17935050508060010190506123d5565b50856001600160a01b0316816001600160a01b031614935050505092915050565b5f6112e58686868686612d14565b6060610b317f00000000000000000000000000000000000000000000000000000000000000005f612ded565b6060610b317f00000000000000000000000000000000000000000000000000000000000000006001612ded565b5f610b3143612230565b5f7f0000000000000000000000000000000000000000000000000000000000000000604051630748d63560e31b81526001600160a01b038681166004830152602482018690529190911690633a46b1a890604401602060405180830381865afa158015612543573d5f803e3d5ffd5b505050506040513d601f19601f820116820180604052508101906113ce91906143bb565b80545f90801561259657612580836122e6600184614191565b54600160301b90046001600160d01b0316611ba2565b5f9392505050565b6060826125b3576125ae82612e96565b610b2b565b5080610b2b565b8063ffffffff165f036125e25760405163f1cfbf0560e01b81525f6004820152602401610ded565b6008546040805163ffffffff600160301b9093048316815291831660208301527f7e3f7f0708a84de9203036abaa450dccc85ad5ff52f78c170f3edb55cf5e8828910160405180910390a16008805463ffffffff909216600160301b0269ffffffff00000000000019909216919091179055565b60075460408051918252602082018390527fccb45da8d5717e6c4544694297c4ba5cf151d455c9bb0ed4fc7a38411bc05461910160405180910390a1600755565b5f60646126a383611585565b604051632394e7a360e21b8152600481018590526001600160a01b037f00000000000000000000000000000000000000000000000000000000000000001690638e539e8c90602401602060405180830381865afa158015612706573d5f803e3d5ffd5b505050506040513d601f19601f8201168201806040525081019061272a91906143bb565b61273491906143d2565b610b2b91906143fd565b80545f906001600160801b0380821691600160801b9004168103612775576040516375e52f4f60e01b815260040160405180910390fd5b6001600160801b038181165f908152600185810160205260408220805492905585546fffffffffffffffffffffffffffffffff19169301909116919091179092555090565b5f6001600160d01b03821115612262576040516306dfcc6560e41b815260d0600482015260248101839052604401610ded565b5f806127fa858585612ebf565b915091505b935093915050565b5f306001600160a01b037f00000000000000000000000000000000000000000000000000000000000000001614801561285f57507f000000000000000000000000000000000000000000000000000000000000000046145b1561288957507f000000000000000000000000000000000000000000000000000000000000000090565b610b31604080517f8b73c3c69bb8fe3d512ecc4cf759cc79239f7b179b0ffacaa9a75d522b39400f60208201527f0000000000000000000000000000000000000000000000000000000000000000918101919091527f000000000000000000000000000000000000000000000000000000000000000060608201524660808201523060a08201525f9060c00160405160208183030381529060405280519060200120905090565b5f805f8351604103612967576020840151604085015160608601515f1a61295988828585613035565b955095509550505050612972565b505081515f91506002905b9250925092565b5f805f856001600160a01b0316858560405160240161299992919061441c565b60408051601f198184030181529181526020820180516001600160e01b0316630b135d3f60e11b179052516129ce9190614226565b5f60405180830381855afa9150503d805f8114612a06576040519150601f19603f3d011682016040523d82523d5f602084013e612a0b565b606091505b5091509150818015612a1f57506020815110155b80156112e557508051630b135d3f60e11b90612a4490830160209081019084016143bb565b149695505050505050565b5f8581526009602090815260408083206001600160a01b0388168452600381019092529091205460ff1615612aa2576040516371c6af4960e01b81526001600160a01b0386166004820152602401610ded565b6001600160a01b0385165f9081526003820160205260409020805460ff1916600117905560ff8416612aeb5782815f015f828254612ae09190614241565b90915550611fbe9050565b5f1960ff851601612b095782816001015f828254612ae09190614241565b60011960ff851601612b285782816002015f828254612ae09190614241565b6040516303599be160e11b815260040160405180910390fd5b5f815f03612b5057505f919050565b5f6001612b5c846130fd565b901c6001901b90506001818481612b7557612b756143e9565b048201901c90506001818481612b8d57612b8d6143e9565b048201901c90506001818481612ba557612ba56143e9565b048201901c90506001818481612bbd57612bbd6143e9565b048201901c90506001818481612bd557612bd56143e9565b048201901c90506001818481612bed57612bed6143e9565b048201901c90506001818481612c0557612c056143e9565b048201901c9050611ba281828581612c1f57612c1f6143e9565b04613190565b5f5b81831015612c7c575f612c3a84846131a5565b5f8781526020902090915065ffffffffffff86169082015465ffffffffffff161115612c6857809250612c76565b612c73816001614241565b93505b50612c27565b509392505050565b5f8060f883901c602f81118015612c9e5750603a8160ff16105b15612cb357600194602f199091019350915050565b8060ff166040108015612cc9575060478160ff16105b15612cde576001946036199091019350915050565b8060ff166060108015612cf4575060678160ff16105b15612d09576001946056199091019350915050565b505f93849350915050565b5f80612d2387878787876131bf565b600a80546001810182555f9182527fc65a7bb8d6351c1cf70c95a316cc6a92839c986682d98bc35f958f4883f9d2a801829055604080516080810182528a815260208181018b90528183018a90528851898201206060830152848452600b8152919092208251805194955092939092612da092849291019061346d565b506020828101518051612db992600185019201906134cc565b5060408201518051612dd5916002840191602090910190613505565b50606091909101516003909101559695505050505050565b606060ff8314612e0757612e00836133d9565b9050610b2b565b818054612e13906140ba565b80601f0160208091040260200160405190810160405280929190818152602001828054612e3f906140ba565b8015612e8a5780601f10612e6157610100808354040283529160200191612e8a565b820191905f5260205f20905b815481529060010190602001808311612e6d57829003601f168201915b50505050509050610b2b565b805115612ea65780518082602001fd5b604051630a12f52160e11b815260040160405180910390fd5b82545f9081908015612fdb575f612edb876122e6600185614191565b60408051808201909152905465ffffffffffff808216808452600160301b9092046001600160d01b031660208401529192509087161015612f2f57604051632520601d60e01b815260040160405180910390fd5b805165ffffffffffff808816911603612f7b5784612f52886122e6600186614191565b80546001600160d01b0392909216600160301b0265ffffffffffff909216919091179055612fcb565b6040805180820190915265ffffffffffff80881682526001600160d01b0380881660208085019182528b54600181018d555f8d81529190912094519151909216600160301b029216919091179101555b6020015192508391506127ff9050565b50506040805180820190915265ffffffffffff80851682526001600160d01b0380851660208085019182528854600181018a555f8a815291822095519251909316600160301b0291909316179201919091559050816127ff565b5f80807f7fffffffffffffffffffffffffffffff5d576e7357a4501ddfe92f46681b20a084111561306e57505f915060039050826130f3565b604080515f808252602082018084528a905260ff891692820192909252606081018790526080810186905260019060a0016020604051602081039080840390855afa1580156130bf573d5f803e3d5ffd5b5050604051601f1901519150506001600160a01b0381166130ea57505f9250600191508290506130f3565b92505f91508190505b9450945094915050565b5f80608083901c1561311157608092831c92015b604083901c1561312357604092831c92015b602083901c1561313557602092831c92015b601083901c1561314757601092831c92015b600883901c1561315957600892831c92015b600483901c1561316b57600492831c92015b600283901c1561317d57600292831c92015b600183901c15610b2b5760010192915050565b5f81831061319e5781611ba2565b5090919050565b5f6131b360028484186143fd565b611ba290848416614241565b5f6131d386868686805190602001206119a7565b9050845186511415806131e857508351865114155b806131f257508551155b1561322757855184518651604051630447b05d60e41b8152600481019390935260248301919091526044820152606401610ded565b5f81815260046020526040902054600160a01b900465ffffffffffff1615613270578061325382610fbb565b6040516331b75e4d60e01b8152610ded9291905f90600401614204565b5f613279610fa9565b613281611833565b65ffffffffffff166132939190614241565b90505f6132ad60085463ffffffff600160301b9091041690565b5f84815260046020526040902080546001600160a01b0319166001600160a01b0387161781559091506132df83612230565b815465ffffffffffff91909116600160a01b0265ffffffffffff60a01b1990911617815561330c82613416565b815463ffffffff91909116600160d01b0263ffffffff60d01b1990911617815588517f7d84a6263ae0d98d3329bd7b46bb4e8d6f98cd35a7adb45c274c8b7fd5ebd5e090859087908c908c906001600160401b0381111561336f5761336f61366f565b6040519080825280602002602001820160405280156133a257816020015b606081526020019060019003908161338d5790505b508c896133af8a82614241565b8e6040516133c599989796959493929190614434565b60405180910390a150505095945050505050565b60605f6133e583613446565b6040805160208082528183019092529192505f91906020820181803683375050509182525060208101929092525090565b5f63ffffffff821115612262576040516306dfcc6560e41b81526020600482015260248101839052604401610ded565b5f60ff8216601f811115610b2b57604051632cd44ac360e21b815260040160405180910390fd5b828054828255905f5260205f209081019282156134c0579160200282015b828111156134c057825182546001600160a01b0319166001600160a01b0390911617825560209092019160019091019061348b565b50612262929150613555565b828054828255905f5260205f209081019282156134c0579160200282015b828111156134c05782518255916020019190600101906134ea565b828054828255905f5260205f20908101928215613549579160200282015b8281111561354957825182906135399082614554565b5091602001919060010190613523565b50612262929150613569565b5b80821115612262575f8155600101613556565b80821115612262575f61357c8282613585565b50600101613569565b508054613591906140ba565b5f825580601f106135a0575050565b601f0160209004905f5260205f2090810190610b479190613555565b5f602082840312156135cc575f80fd5b81356001600160e01b031981168114611ba2575f80fd5b5f602082840312156135f3575f80fd5b5035919050565b5f5b838110156136145781810151838201526020016135fc565b50505f910152565b5f81518084526136338160208601602086016135fa565b601f01601f19169290920160200192915050565b602081525f611ba2602083018461361c565b80356001600160a01b03811681146113aa575f80fd5b634e487b7160e01b5f52604160045260245ffd5b604051601f8201601f191681016001600160401b03811182821017156136ab576136ab61366f565b604052919050565b5f6001600160401b038211156136cb576136cb61366f565b50601f01601f191660200190565b5f6136eb6136e6846136b3565b613683565b90508281528383830111156136fe575f80fd5b828260208301375f602084830101529392505050565b5f82601f830112613723575f80fd5b611ba2838335602085016136d9565b5f805f8060808587031215613745575f80fd5b61374e85613659565b935061375c60208601613659565b92506040850135915060608501356001600160401b0381111561377d575f80fd5b61378987828801613714565b91505092959194509250565b5f6001600160401b038211156137ad576137ad61366f565b5060051b60200190565b5f82601f8301126137c6575f80fd5b813560206137d66136e683613795565b8083825260208201915060208460051b8701019350868411156137f7575f80fd5b602086015b8481101561381a5761380d81613659565b83529183019183016137fc565b509695505050505050565b5f82601f830112613834575f80fd5b813560206138446136e683613795565b8083825260208201915060208460051b870101935086841115613865575f80fd5b602086015b8481101561381a578035835291830191830161386a565b5f82601f830112613890575f80fd5b813560206138a06136e683613795565b82815260059290921b840181019181810190868411156138be575f80fd5b8286015b8481101561381a5780356001600160401b038111156138df575f80fd5b6138ed8986838b0101613714565b8452509183019183016138c2565b5f805f806080858703121561390e575f80fd5b84356001600160401b0380821115613924575f80fd5b613930888389016137b7565b95506020870135915080821115613945575f80fd5b61395188838901613825565b94506040870135915080821115613966575f80fd5b5061397387828801613881565b949793965093946060013593505050565b5f815180845260208085019450602084015f5b838110156139bc5781516001600160a01b031687529582019590820190600101613997565b509495945050505050565b5f815180845260208085019450602084015f5b838110156139bc578151875295820195908201906001016139da565b5f8282518085526020808601955060208260051b840101602086015f5b84811015613a4157601f19868403018952613a2f83835161361c565b98840198925090830190600101613a13565b5090979650505050505050565b608081525f613a606080830187613984565b8281036020840152613a7281876139c7565b90508281036040840152613a8681866139f6565b91505082606083015295945050505050565b85815260a060208201525f613ab060a0830187613984565b8281036040840152613ac281876139c7565b90508281036060840152613ad681866139f6565b9150508260808301529695505050505050565b634e487b7160e01b5f52602160045260245ffd5b60088110613b1957634e487b7160e01b5f52602160045260245ffd5b9052565b60208101610b2b8284613afd565b5f8060408385031215613b3c575f80fd5b82359150613b4c60208401613659565b90509250929050565b803560ff811681146113aa575f80fd5b5f8060408385031215613b76575f80fd5b82359150613b4c60208401613b55565b5f8083601f840112613b96575f80fd5b5081356001600160401b03811115613bac575f80fd5b602083019150836020828501011115613bc3575f80fd5b9250929050565b5f805f805f805f60c0888a031215613be0575f80fd5b87359650613bf060208901613b55565b9550613bfe60408901613659565b945060608801356001600160401b0380821115613c19575f80fd5b613c258b838c01613b86565b909650945060808a0135915080821115613c3d575f80fd5b613c498b838c01613714565b935060a08a0135915080821115613c5e575f80fd5b50613c6b8a828b01613714565b91505092959891949750929550565b5f805f805f60808688031215613c8e575f80fd5b85359450613c9e60208701613b55565b935060408601356001600160401b0380821115613cb9575f80fd5b613cc589838a01613b86565b90955093506060880135915080821115613cdd575f80fd5b50613cea88828901613714565b9150509295509295909350565b65ffffffffffff81168114610b47575f80fd5b5f60208284031215613d1a575f80fd5b8135611ba281613cf7565b5f805f8060608587031215613d38575f80fd5b84359350613d4860208601613b55565b925060408501356001600160401b03811115613d62575f80fd5b613d6e87828801613b86565b95989497509550505050565b5f805f8060808587031215613d8d575f80fd5b84356001600160401b0380821115613da3575f80fd5b613daf888389016137b7565b95506020870135915080821115613dc4575f80fd5b613dd088838901613825565b94506040870135915080821115613de5575f80fd5b613df188838901613881565b93506060870135915080821115613e06575f80fd5b508501601f81018713613e17575f80fd5b613789878235602084016136d9565b5f60208284031215613e36575f80fd5b611ba282613659565b60ff60f81b8816815260e060208201525f613e5d60e083018961361c565b8281036040840152613e6f818961361c565b606084018890526001600160a01b038716608085015260a0840186905283810360c08501529050613ea081856139c7565b9a9950505050505050505050565b5f805f8060808587031215613ec1575f80fd5b84359350613ed160208601613b55565b9250613edf60408601613659565b915060608501356001600160401b0381111561377d575f80fd5b5f805f60608486031215613f0b575f80fd5b613f1484613659565b92506020840135915060408401356001600160401b03811115613f35575f80fd5b613f4186828701613714565b9150509250925092565b5f805f805f60a08688031215613f5f575f80fd5b613f6886613659565b9450613f7660208701613659565b935060408601356001600160401b0380821115613f91575f80fd5b613f9d89838a01613825565b94506060880135915080821115613fb2575f80fd5b613fbe89838a01613825565b93506080880135915080821115613cdd575f80fd5b5f805f8060608587031215613fe6575f80fd5b613fef85613659565b93506020850135925060408501356001600160401b03811115613d62575f80fd5b5f60208284031215614020575f80fd5b813563ffffffff81168114611ba2575f80fd5b5f8060408385031215614044575f80fd5b61404d83613659565b946020939093013593505050565b5f805f805f60a0868803121561406f575f80fd5b61407886613659565b945061408660208701613659565b9350604086013592506060860135915060808601356001600160401b038111156140ae575f80fd5b613cea88828901613714565b600181811c908216806140ce57607f821691505b6020821081036140ec57634e487b7160e01b5f52602260045260245ffd5b50919050565b634e487b7160e01b5f52603260045260245ffd5b5f60208284031215614116575f80fd5b81516001600160401b0381111561412b575f80fd5b8201601f8101841361413b575f80fd5b80516141496136e6826136b3565b81815285602083850101111561415d575f80fd5b6120cc8260208301602086016135fa565b818382375f9101908152919050565b634e487b7160e01b5f52601160045260245ffd5b81810381811115610b2b57610b2b61417d565b65ffffffffffff8281168282160390808211156141c3576141c361417d565b5092915050565b5f602082840312156141da575f80fd5b8151611ba281613cf7565b65ffffffffffff8181168382160190808211156141c3576141c361417d565b838152606081016142186020830185613afd565b826040830152949350505050565b5f82516142378184602087016135fa565b9190910192915050565b80820180821115610b2b57610b2b61417d565b60ff8181168382160190811115610b2b57610b2b61417d565b600181815b808511156142a757815f190482111561428d5761428d61417d565b8085161561429a57918102915b93841c9390800290614272565b509250929050565b5f826142bd57506001610b2b565b816142c957505f610b2b565b81600181146142df57600281146142e957614305565b6001915050610b2b565b60ff8411156142fa576142fa61417d565b50506001821b610b2b565b5060208310610133831016604e8410600b8410161715614328575081810a610b2b565b614332838361426d565b805f19048211156143455761434561417d565b029392505050565b5f611ba260ff8416836142af565b84815260ff84166020820152826040820152608060608201525f6112e5608083018461361c565b85815260ff8516602082015283604082015260a060608201525f6143a960a083018561361c565b8281036080840152611716818561361c565b5f602082840312156143cb575f80fd5b5051919050565b8082028115828204841417610b2b57610b2b61417d565b634e487b7160e01b5f52601260045260245ffd5b5f8261441757634e487b7160e01b5f52601260045260245ffd5b500490565b828152604060208201525f6113ce604083018461361c565b5f6101208b8352602060018060a01b038c168185015281604085015261445c8285018c613984565b91508382036060850152614470828b6139c7565b915083820360808501528189518084528284019150828160051b850101838c015f5b838110156144c057601f198784030185526144ae83835161361c565b94860194925090850190600101614492565b505086810360a08801526144d4818c6139f6565b9450505050508560c08401528460e08401528281036101008401526144f9818561361c565b9c9b505050505050505050505050565b601f82111561127e57805f5260205f20601f840160051c8101602085101561452e5750805b601f840160051c820191505b8181101561454d575f815560010161453a565b5050505050565b81516001600160401b0381111561456d5761456d61366f565b6145818161457b84546140ba565b84614509565b602080601f8311600181146145b4575f841561459d5750858301515b5f19600386901b1c1916600185901b178555611fbe565b5f85815260208120601f198616915b828110156145e2578886015182559484019460019091019084016145c3565b50858210156145ff57878501515f19600388901b60f8161c191681555b5050505050600190811b0190555056fea2646970667358221220f56bcf52776a23cbe9828471eabd64d3161721c2114d72591ac201637f3e0e0b64736f6c63430008170033",
			"opcodes": "PUSH2 0x180 PUSH1 0x40 MSTORE CALLVALUE DUP1 ISZERO PUSH3 0x11 JUMPI PUSH0 DUP1 REVERT JUMPDEST POP PUSH1 0x40 MLOAD PUSH3 0x500E CODESIZE SUB DUP1 PUSH3 0x500E DUP4 CODECOPY DUP2 ADD PUSH1 0x40 DUP2 SWAP1 MSTORE PUSH3 0x34 SWAP2 PUSH3 0x706 JUMP JUMPDEST PUSH1 0x4 DUP2 PUSH2 0x1C20 PUSH2 0xC4E0 PUSH0 PUSH1 0x40 MLOAD DUP1 PUSH1 0x40 ADD PUSH1 0x40 MSTORE DUP1 PUSH1 0xA DUP2 MSTORE PUSH1 0x20 ADD PUSH10 0x5669727475616C44414F PUSH1 0xB0 SHL DUP2 MSTORE POP DUP1 PUSH3 0x72 PUSH3 0x17A PUSH1 0x20 SHL PUSH1 0x20 SHR JUMP JUMPDEST PUSH3 0x7E DUP3 PUSH0 PUSH3 0x195 JUMP JUMPDEST PUSH2 0x120 MSTORE PUSH3 0x8F DUP2 PUSH1 0x1 PUSH3 0x195 JUMP JUMPDEST PUSH2 0x140 MSTORE DUP2 MLOAD PUSH1 0x20 DUP1 DUP5 ADD SWAP2 SWAP1 SWAP2 KECCAK256 PUSH1 0xE0 MSTORE DUP2 MLOAD SWAP1 DUP3 ADD KECCAK256 PUSH2 0x100 MSTORE CHAINID PUSH1 0xA0 MSTORE PUSH3 0x11C PUSH1 0xE0 MLOAD PUSH2 0x100 MLOAD PUSH1 0x40 DUP1 MLOAD PUSH32 0x8B73C3C69BB8FE3D512ECC4CF759CC79239F7B179B0FFACAA9A75D522B39400F PUSH1 0x20 DUP3 ADD MSTORE SWAP1 DUP2 ADD SWAP3 SWAP1 SWAP3 MSTORE PUSH1 0x60 DUP3 ADD MSTORE CHAINID PUSH1 0x80 DUP3 ADD MSTORE ADDRESS PUSH1 0xA0 DUP3 ADD MSTORE PUSH0 SWAP1 PUSH1 0xC0 ADD PUSH1 0x40 MLOAD PUSH1 0x20 DUP2 DUP4 SUB SUB DUP2 MSTORE SWAP1 PUSH1 0x40 MSTORE DUP1 MLOAD SWAP1 PUSH1 0x20 ADD KECCAK256 SWAP1 POP SWAP1 JUMP JUMPDEST PUSH1 0x80 MSTORE POP POP ADDRESS PUSH1 0xC0 MSTORE PUSH1 0x3 PUSH3 0x133 DUP3 DUP3 PUSH3 0x7CC JUMP JUMPDEST POP PUSH3 0x141 SWAP1 POP DUP4 PUSH3 0x1CD JUMP JUMPDEST PUSH3 0x14C DUP3 PUSH3 0x233 JUMP JUMPDEST PUSH3 0x157 DUP2 PUSH3 0x2D8 JUMP JUMPDEST POP POP POP PUSH1 0x1 PUSH1 0x1 PUSH1 0xA0 SHL SUB AND PUSH2 0x160 MSTORE PUSH3 0x172 DUP2 PUSH3 0x319 JUMP JUMPDEST POP POP PUSH3 0x951 JUMP JUMPDEST PUSH1 0x40 DUP1 MLOAD DUP1 DUP3 ADD SWAP1 SWAP2 MSTORE PUSH1 0x1 DUP2 MSTORE PUSH1 0x31 PUSH1 0xF8 SHL PUSH1 0x20 DUP3 ADD MSTORE SWAP1 JUMP JUMPDEST PUSH0 PUSH1 0x20 DUP4 MLOAD LT ISZERO PUSH3 0x1B4 JUMPI PUSH3 0x1AC DUP4 PUSH3 0x3B8 JUMP JUMPDEST SWAP1 POP PUSH3 0x1C7 JUMP JUMPDEST DUP2 PUSH3 0x1C1 DUP5 DUP3 PUSH3 0x7CC JUMP JUMPDEST POP PUSH1 0xFF SWAP1 POP JUMPDEST SWAP3 SWAP2 POP POP JUMP JUMPDEST PUSH1 0x8 SLOAD PUSH1 0x40 DUP1 MLOAD PUSH6 0xFFFFFFFFFFFF SWAP3 DUP4 AND DUP2 MSTORE SWAP2 DUP4 AND PUSH1 0x20 DUP4 ADD MSTORE PUSH32 0xC565B045403DC03C2EEA82B81A0465EDAD9E2E7FC4D97E11421C209DA93D7A93 SWAP2 ADD PUSH1 0x40 MLOAD DUP1 SWAP2 SUB SWAP1 LOG1 PUSH1 0x8 DUP1 SLOAD PUSH6 0xFFFFFFFFFFFF NOT AND PUSH6 0xFFFFFFFFFFFF SWAP3 SWAP1 SWAP3 AND SWAP2 SWAP1 SWAP2 OR SWAP1 SSTORE JUMP JUMPDEST DUP1 PUSH4 0xFFFFFFFF AND PUSH0 SUB PUSH3 0x261 JUMPI PUSH1 0x40 MLOAD PUSH4 0xF1CFBF05 PUSH1 0xE0 SHL DUP2 MSTORE PUSH0 PUSH1 0x4 DUP3 ADD MSTORE PUSH1 0x24 ADD JUMPDEST PUSH1 0x40 MLOAD DUP1 SWAP2 SUB SWAP1 REVERT JUMPDEST PUSH1 0x8 SLOAD PUSH1 0x40 DUP1 MLOAD PUSH4 0xFFFFFFFF PUSH7 0x1000000000000 SWAP1 SWAP4 DIV DUP4 AND DUP2 MSTORE SWAP2 DUP4 AND PUSH1 0x20 DUP4 ADD MSTORE PUSH32 0x7E3F7F0708A84DE9203036ABAA450DCCC85AD5FF52F78C170F3EDB55CF5E8828 SWAP2 ADD PUSH1 0x40 MLOAD DUP1 SWAP2 SUB SWAP1 LOG1 PUSH1 0x8 DUP1 SLOAD PUSH4 0xFFFFFFFF SWAP1 SWAP3 AND PUSH7 0x1000000000000 MUL PUSH4 0xFFFFFFFF PUSH1 0x30 SHL NOT SWAP1 SWAP3 AND SWAP2 SWAP1 SWAP2 OR SWAP1 SSTORE JUMP JUMPDEST PUSH1 0x7 SLOAD PUSH1 0x40 DUP1 MLOAD SWAP2 DUP3 MSTORE PUSH1 0x20 DUP3 ADD DUP4 SWAP1 MSTORE PUSH32 0xCCB45DA8D5717E6C4544694297C4BA5CF151D455C9BB0ED4FC7A38411BC05461 SWAP2 ADD PUSH1 0x40 MLOAD DUP1 SWAP2 SUB SWAP1 LOG1 PUSH1 0x7 SSTORE JUMP JUMPDEST PUSH1 0x64 DUP1 DUP3 GT ISZERO PUSH3 0x348 JUMPI PUSH1 0x40 MLOAD PUSH4 0x243E5445 PUSH1 0xE0 SHL DUP2 MSTORE PUSH1 0x4 DUP2 ADD DUP4 SWAP1 MSTORE PUSH1 0x24 DUP2 ADD DUP3 SWAP1 MSTORE PUSH1 0x44 ADD PUSH3 0x258 JUMP JUMPDEST PUSH0 PUSH3 0x353 PUSH3 0x3FA JUMP JUMPDEST SWAP1 POP PUSH3 0x378 PUSH3 0x363 PUSH3 0x415 JUMP JUMPDEST PUSH3 0x36E DUP6 PUSH3 0x496 JUMP JUMPDEST PUSH1 0xC SWAP2 SWAP1 PUSH3 0x4CF JUMP JUMPDEST POP POP PUSH1 0x40 DUP1 MLOAD DUP3 DUP2 MSTORE PUSH1 0x20 DUP2 ADD DUP6 SWAP1 MSTORE PUSH32 0x553476BF02EF2726E8CE5CED78D63E26E602E4A2257B1F559418E24B4633997 SWAP2 ADD PUSH1 0x40 MLOAD DUP1 SWAP2 SUB SWAP1 LOG1 POP POP POP JUMP JUMPDEST PUSH0 DUP1 DUP3 SWAP1 POP PUSH1 0x1F DUP2 MLOAD GT ISZERO PUSH3 0x3E5 JUMPI DUP3 PUSH1 0x40 MLOAD PUSH4 0x305A27A9 PUSH1 0xE0 SHL DUP2 MSTORE PUSH1 0x4 ADD PUSH3 0x258 SWAP2 SWAP1 PUSH3 0x898 JUMP JUMPDEST DUP1 MLOAD PUSH3 0x3F2 DUP3 PUSH3 0x8E6 JUMP JUMPDEST OR SWAP4 SWAP3 POP POP POP JUMP JUMPDEST PUSH0 PUSH3 0x407 PUSH1 0xC PUSH3 0x4EB JUMP JUMPDEST PUSH1 0x1 PUSH1 0x1 PUSH1 0xD0 SHL SUB AND SWAP1 POP SWAP1 JUMP JUMPDEST PUSH0 PUSH3 0x421 PUSH2 0x160 MLOAD SWAP1 JUMP JUMPDEST PUSH1 0x1 PUSH1 0x1 PUSH1 0xA0 SHL SUB AND PUSH4 0x91DDADF4 PUSH1 0x40 MLOAD DUP2 PUSH4 0xFFFFFFFF AND PUSH1 0xE0 SHL DUP2 MSTORE PUSH1 0x4 ADD PUSH1 0x20 PUSH1 0x40 MLOAD DUP1 DUP4 SUB DUP2 DUP7 GAS STATICCALL SWAP3 POP POP POP DUP1 ISZERO PUSH3 0x47D JUMPI POP PUSH1 0x40 DUP1 MLOAD PUSH1 0x1F RETURNDATASIZE SWAP1 DUP2 ADD PUSH1 0x1F NOT AND DUP3 ADD SWAP1 SWAP3 MSTORE PUSH3 0x47A SWAP2 DUP2 ADD SWAP1 PUSH3 0x90A JUMP JUMPDEST PUSH1 0x1 JUMPDEST PUSH3 0x491 JUMPI PUSH3 0x48C PUSH3 0x538 JUMP JUMPDEST SWAP1 POP SWAP1 JUMP JUMPDEST SWAP2 SWAP1 POP JUMP JUMPDEST PUSH0 PUSH1 0x1 PUSH1 0x1 PUSH1 0xD0 SHL SUB DUP3 GT ISZERO PUSH3 0x4CB JUMPI PUSH1 0x40 MLOAD PUSH4 0x6DFCC65 PUSH1 0xE4 SHL DUP2 MSTORE PUSH1 0xD0 PUSH1 0x4 DUP3 ADD MSTORE PUSH1 0x24 DUP2 ADD DUP4 SWAP1 MSTORE PUSH1 0x44 ADD PUSH3 0x258 JUMP JUMPDEST POP SWAP1 JUMP JUMPDEST PUSH0 DUP1 PUSH3 0x4DE DUP6 DUP6 DUP6 PUSH3 0x544 JUMP JUMPDEST SWAP2 POP SWAP2 POP JUMPDEST SWAP4 POP SWAP4 SWAP2 POP POP JUMP JUMPDEST DUP1 SLOAD PUSH0 SWAP1 DUP1 ISZERO PUSH3 0x52F JUMPI PUSH3 0x515 DUP4 PUSH3 0x508 PUSH1 0x1 DUP5 PUSH3 0x931 JUMP JUMPDEST PUSH0 SWAP2 DUP3 MSTORE PUSH1 0x20 SWAP1 SWAP2 KECCAK256 ADD SWAP1 JUMP JUMPDEST SLOAD PUSH7 0x1000000000000 SWAP1 DIV PUSH1 0x1 PUSH1 0x1 PUSH1 0xD0 SHL SUB AND PUSH3 0x531 JUMP JUMPDEST PUSH0 JUMPDEST SWAP4 SWAP3 POP POP POP JUMP JUMPDEST PUSH0 PUSH3 0x48C NUMBER PUSH3 0x6D2 JUMP JUMPDEST DUP3 SLOAD PUSH0 SWAP1 DUP2 SWAP1 DUP1 ISZERO PUSH3 0x674 JUMPI PUSH0 PUSH3 0x564 DUP8 PUSH3 0x508 PUSH1 0x1 DUP6 PUSH3 0x931 JUMP JUMPDEST PUSH1 0x40 DUP1 MLOAD DUP1 DUP3 ADD SWAP1 SWAP2 MSTORE SWAP1 SLOAD PUSH6 0xFFFFFFFFFFFF DUP1 DUP3 AND DUP1 DUP5 MSTORE PUSH7 0x1000000000000 SWAP1 SWAP3 DIV PUSH1 0x1 PUSH1 0x1 PUSH1 0xD0 SHL SUB AND PUSH1 0x20 DUP5 ADD MSTORE SWAP2 SWAP3 POP SWAP1 DUP8 AND LT ISZERO PUSH3 0x5BC JUMPI PUSH1 0x40 MLOAD PUSH4 0x2520601D PUSH1 0xE0 SHL DUP2 MSTORE PUSH1 0x4 ADD PUSH1 0x40 MLOAD DUP1 SWAP2 SUB SWAP1 REVERT JUMPDEST DUP1 MLOAD PUSH6 0xFFFFFFFFFFFF DUP1 DUP9 AND SWAP2 AND SUB PUSH3 0x610 JUMPI DUP5 PUSH3 0x5E3 DUP9 PUSH3 0x508 PUSH1 0x1 DUP7 PUSH3 0x931 JUMP JUMPDEST DUP1 SLOAD PUSH1 0x1 PUSH1 0x1 PUSH1 0xD0 SHL SUB SWAP3 SWAP1 SWAP3 AND PUSH7 0x1000000000000 MUL PUSH6 0xFFFFFFFFFFFF SWAP1 SWAP3 AND SWAP2 SWAP1 SWAP2 OR SWAP1 SSTORE PUSH3 0x663 JUMP JUMPDEST PUSH1 0x40 DUP1 MLOAD DUP1 DUP3 ADD SWAP1 SWAP2 MSTORE PUSH6 0xFFFFFFFFFFFF DUP1 DUP9 AND DUP3 MSTORE PUSH1 0x1 PUSH1 0x1 PUSH1 0xD0 SHL SUB DUP1 DUP9 AND PUSH1 0x20 DUP1 DUP6 ADD SWAP2 DUP3 MSTORE DUP12 SLOAD PUSH1 0x1 DUP2 ADD DUP14 SSTORE PUSH0 DUP14 DUP2 MSTORE SWAP2 SWAP1 SWAP2 KECCAK256 SWAP5 MLOAD SWAP2 MLOAD SWAP1 SWAP3 AND PUSH7 0x1000000000000 MUL SWAP3 AND SWAP2 SWAP1 SWAP2 OR SWAP2 ADD SSTORE JUMPDEST PUSH1 0x20 ADD MLOAD SWAP3 POP DUP4 SWAP2 POP PUSH3 0x4E3 SWAP1 POP JUMP JUMPDEST POP POP PUSH1 0x40 DUP1 MLOAD DUP1 DUP3 ADD SWAP1 SWAP2 MSTORE PUSH6 0xFFFFFFFFFFFF DUP1 DUP6 AND DUP3 MSTORE PUSH1 0x1 PUSH1 0x1 PUSH1 0xD0 SHL SUB DUP1 DUP6 AND PUSH1 0x20 DUP1 DUP6 ADD SWAP2 DUP3 MSTORE DUP9 SLOAD PUSH1 0x1 DUP2 ADD DUP11 SSTORE PUSH0 DUP11 DUP2 MSTORE SWAP2 DUP3 KECCAK256 SWAP6 MLOAD SWAP3 MLOAD SWAP1 SWAP4 AND PUSH7 0x1000000000000 MUL SWAP2 SWAP1 SWAP4 AND OR SWAP3 ADD SWAP2 SWAP1 SWAP2 SSTORE SWAP1 POP DUP2 PUSH3 0x4E3 JUMP JUMPDEST PUSH0 PUSH6 0xFFFFFFFFFFFF DUP3 GT ISZERO PUSH3 0x4CB JUMPI PUSH1 0x40 MLOAD PUSH4 0x6DFCC65 PUSH1 0xE4 SHL DUP2 MSTORE PUSH1 0x30 PUSH1 0x4 DUP3 ADD MSTORE PUSH1 0x24 DUP2 ADD DUP4 SWAP1 MSTORE PUSH1 0x44 ADD PUSH3 0x258 JUMP JUMPDEST PUSH0 PUSH1 0x20 DUP3 DUP5 SUB SLT ISZERO PUSH3 0x717 JUMPI PUSH0 DUP1 REVERT JUMPDEST DUP2 MLOAD PUSH1 0x1 PUSH1 0x1 PUSH1 0xA0 SHL SUB DUP2 AND DUP2 EQ PUSH3 0x531 JUMPI PUSH0 DUP1 REVERT JUMPDEST PUSH4 0x4E487B71 PUSH1 0xE0 SHL PUSH0 MSTORE PUSH1 0x41 PUSH1 0x4 MSTORE PUSH1 0x24 PUSH0 REVERT JUMPDEST PUSH1 0x1 DUP2 DUP2 SHR SWAP1 DUP3 AND DUP1 PUSH3 0x757 JUMPI PUSH1 0x7F DUP3 AND SWAP2 POP JUMPDEST PUSH1 0x20 DUP3 LT DUP2 SUB PUSH3 0x776 JUMPI PUSH4 0x4E487B71 PUSH1 0xE0 SHL PUSH0 MSTORE PUSH1 0x22 PUSH1 0x4 MSTORE PUSH1 0x24 PUSH0 REVERT JUMPDEST POP SWAP2 SWAP1 POP JUMP JUMPDEST PUSH1 0x1F DUP3 GT ISZERO PUSH3 0x7C7 JUMPI DUP1 PUSH0 MSTORE PUSH1 0x20 PUSH0 KECCAK256 PUSH1 0x1F DUP5 ADD PUSH1 0x5 SHR DUP2 ADD PUSH1 0x20 DUP6 LT ISZERO PUSH3 0x7A3 JUMPI POP DUP1 JUMPDEST PUSH1 0x1F DUP5 ADD PUSH1 0x5 SHR DUP3 ADD SWAP2 POP JUMPDEST DUP2 DUP2 LT ISZERO PUSH3 0x7C4 JUMPI PUSH0 DUP2 SSTORE PUSH1 0x1 ADD PUSH3 0x7AF JUMP JUMPDEST POP POP JUMPDEST POP POP POP JUMP JUMPDEST DUP2 MLOAD PUSH1 0x1 PUSH1 0x1 PUSH1 0x40 SHL SUB DUP2 GT ISZERO PUSH3 0x7E8 JUMPI PUSH3 0x7E8 PUSH3 0x72E JUMP JUMPDEST PUSH3 0x800 DUP2 PUSH3 0x7F9 DUP5 SLOAD PUSH3 0x742 JUMP JUMPDEST DUP5 PUSH3 0x77C JUMP JUMPDEST PUSH1 0x20 DUP1 PUSH1 0x1F DUP4 GT PUSH1 0x1 DUP2 EQ PUSH3 0x836 JUMPI PUSH0 DUP5 ISZERO PUSH3 0x81E JUMPI POP DUP6 DUP4 ADD MLOAD JUMPDEST PUSH0 NOT PUSH1 0x3 DUP7 SWAP1 SHL SHR NOT AND PUSH1 0x1 DUP6 SWAP1 SHL OR DUP6 SSTORE PUSH3 0x890 JUMP JUMPDEST PUSH0 DUP6 DUP2 MSTORE PUSH1 0x20 DUP2 KECCAK256 PUSH1 0x1F NOT DUP7 AND SWAP2 JUMPDEST DUP3 DUP2 LT ISZERO PUSH3 0x866 JUMPI DUP9 DUP7 ADD MLOAD DUP3 SSTORE SWAP5 DUP5 ADD SWAP5 PUSH1 0x1 SWAP1 SWAP2 ADD SWAP1 DUP5 ADD PUSH3 0x845 JUMP JUMPDEST POP DUP6 DUP3 LT ISZERO PUSH3 0x884 JUMPI DUP8 DUP6 ADD MLOAD PUSH0 NOT PUSH1 0x3 DUP9 SWAP1 SHL PUSH1 0xF8 AND SHR NOT AND DUP2 SSTORE JUMPDEST POP POP PUSH1 0x1 DUP5 PUSH1 0x1 SHL ADD DUP6 SSTORE JUMPDEST POP POP POP POP POP POP JUMP JUMPDEST PUSH0 PUSH1 0x20 DUP1 DUP4 MSTORE DUP4 MLOAD DUP1 PUSH1 0x20 DUP6 ADD MSTORE PUSH0 JUMPDEST DUP2 DUP2 LT ISZERO PUSH3 0x8C6 JUMPI DUP6 DUP2 ADD DUP4 ADD MLOAD DUP6 DUP3 ADD PUSH1 0x40 ADD MSTORE DUP3 ADD PUSH3 0x8A8 JUMP JUMPDEST POP PUSH0 PUSH1 0x40 DUP3 DUP7 ADD ADD MSTORE PUSH1 0x40 PUSH1 0x1F NOT PUSH1 0x1F DUP4 ADD AND DUP6 ADD ADD SWAP3 POP POP POP SWAP3 SWAP2 POP POP JUMP JUMPDEST DUP1 MLOAD PUSH1 0x20 DUP1 DUP4 ADD MLOAD SWAP2 SWAP1 DUP2 LT ISZERO PUSH3 0x776 JUMPI PUSH0 NOT PUSH1 0x20 SWAP2 SWAP1 SWAP2 SUB PUSH1 0x3 SHL SHL AND SWAP2 SWAP1 POP JUMP JUMPDEST PUSH0 PUSH1 0x20 DUP3 DUP5 SUB SLT ISZERO PUSH3 0x91B JUMPI PUSH0 DUP1 REVERT JUMPDEST DUP2 MLOAD PUSH6 0xFFFFFFFFFFFF DUP2 AND DUP2 EQ PUSH3 0x531 JUMPI PUSH0 DUP1 REVERT JUMPDEST DUP2 DUP2 SUB DUP2 DUP2 GT ISZERO PUSH3 0x1C7 JUMPI PUSH4 0x4E487B71 PUSH1 0xE0 SHL PUSH0 MSTORE PUSH1 0x11 PUSH1 0x4 MSTORE PUSH1 0x24 PUSH0 REVERT JUMPDEST PUSH1 0x80 MLOAD PUSH1 0xA0 MLOAD PUSH1 0xC0 MLOAD PUSH1 0xE0 MLOAD PUSH2 0x100 MLOAD PUSH2 0x120 MLOAD PUSH2 0x140 MLOAD PUSH2 0x160 MLOAD PUSH2 0x4645 PUSH3 0x9C9 PUSH0 CODECOPY PUSH0 DUP2 DUP2 PUSH2 0xAA9 ADD MSTORE DUP2 DUP2 PUSH2 0x12F3 ADD MSTORE DUP2 DUP2 PUSH2 0x1836 ADD MSTORE DUP2 DUP2 PUSH2 0x24D7 ADD MSTORE PUSH2 0x26C1 ADD MSTORE PUSH0 PUSH2 0x24A4 ADD MSTORE PUSH0 PUSH2 0x2478 ADD MSTORE PUSH0 PUSH2 0x28E0 ADD MSTORE PUSH0 PUSH2 0x28B8 ADD MSTORE PUSH0 PUSH2 0x2813 ADD MSTORE PUSH0 PUSH2 0x283D ADD MSTORE PUSH0 PUSH2 0x2867 ADD MSTORE PUSH2 0x4645 PUSH0 RETURN INVALID PUSH1 0x80 PUSH1 0x40 MSTORE PUSH1 0x4 CALLDATASIZE LT PUSH2 0x310 JUMPI PUSH0 CALLDATALOAD PUSH1 0xE0 SHR DUP1 PUSH4 0x7B3C71D3 GT PUSH2 0x1A3 JUMPI DUP1 PUSH4 0xC01F9E37 GT PUSH2 0xF2 JUMPI DUP1 PUSH4 0xE540D01D GT PUSH2 0x92 JUMPI DUP1 PUSH4 0xF23A6E61 GT PUSH2 0x6D JUMPI DUP1 PUSH4 0xF23A6E61 EQ PUSH2 0xA51 JUMPI DUP1 PUSH4 0xF8CE560A EQ PUSH2 0xA7C JUMPI DUP1 PUSH4 0xFC0C546A EQ PUSH2 0xA9B JUMPI DUP1 PUSH4 0xFE0D94C1 EQ PUSH2 0xACD JUMPI PUSH0 DUP1 REVERT JUMPDEST DUP1 PUSH4 0xE540D01D EQ PUSH2 0x9F4 JUMPI DUP1 PUSH4 0xEB9019D4 EQ PUSH2 0xA13 JUMPI DUP1 PUSH4 0xECE40CC1 EQ PUSH2 0xA32 JUMPI PUSH0 DUP1 REVERT JUMPDEST DUP1 PUSH4 0xDA35C664 GT PUSH2 0xCD JUMPI DUP1 PUSH4 0xDA35C664 EQ PUSH2 0x949 JUMPI DUP1 PUSH4 0xDD4E2BA5 EQ PUSH2 0x95D JUMPI DUP1 PUSH4 0xDDF0B009 EQ PUSH2 0x9A2 JUMPI DUP1 PUSH4 0xDEAAA7CC EQ PUSH2 0x9C1 JUMPI PUSH0 DUP1 REVERT JUMPDEST DUP1 PUSH4 0xC01F9E37 EQ PUSH2 0x8F8 JUMPI DUP1 PUSH4 0xC28BC2FA EQ PUSH2 0x917 JUMPI DUP1 PUSH4 0xC59057E4 EQ PUSH2 0x92A JUMPI PUSH0 DUP1 REVERT JUMPDEST DUP1 PUSH4 0x97C3D334 GT PUSH2 0x15D JUMPI DUP1 PUSH4 0xA9A95294 GT PUSH2 0x138 JUMPI DUP1 PUSH4 0xA9A95294 EQ PUSH2 0x864 JUMPI DUP1 PUSH4 0xAB58FB8E EQ PUSH2 0x883 JUMPI DUP1 PUSH4 0xB58131B0 EQ PUSH2 0x8B9 JUMPI DUP1 PUSH4 0xBC197C81 EQ PUSH2 0x8CD JUMPI PUSH0 DUP1 REVERT JUMPDEST DUP1 PUSH4 0x97C3D334 EQ PUSH2 0x81E JUMPI DUP1 PUSH4 0x9A802A6D EQ PUSH2 0x831 JUMPI DUP1 PUSH4 0xA7713A70 EQ PUSH2 0x850 JUMPI PUSH0 DUP1 REVERT JUMPDEST DUP1 PUSH4 0x7B3C71D3 EQ PUSH2 0x73B JUMPI DUP1 PUSH4 0x7D5E81E2 EQ PUSH2 0x75A JUMPI DUP1 PUSH4 0x7ECEBE00 EQ PUSH2 0x779 JUMPI DUP1 PUSH4 0x84B0196E EQ PUSH2 0x7AD JUMPI DUP1 PUSH4 0x8FF262E3 EQ PUSH2 0x7D4 JUMPI DUP1 PUSH4 0x91DDADF4 EQ PUSH2 0x7F3 JUMPI PUSH0 DUP1 REVERT JUMPDEST DUP1 PUSH4 0x3932ABB1 GT PUSH2 0x25F JUMPI DUP1 PUSH4 0x544FFC9C GT PUSH2 0x219 JUMPI DUP1 PUSH4 0x5B8D0E0D GT PUSH2 0x1F4 JUMPI DUP1 PUSH4 0x5B8D0E0D EQ PUSH2 0x6BF JUMPI DUP1 PUSH4 0x5F398A14 EQ PUSH2 0x6DE JUMPI DUP1 PUSH4 0x60C4247F EQ PUSH2 0x6FD JUMPI DUP1 PUSH4 0x79051887 EQ PUSH2 0x71C JUMPI PUSH0 DUP1 REVERT JUMPDEST DUP1 PUSH4 0x544FFC9C EQ PUSH2 0x624 JUMPI DUP1 PUSH4 0x54FD4D50 EQ PUSH2 0x677 JUMPI DUP1 PUSH4 0x56781388 EQ PUSH2 0x6A0 JUMPI PUSH0 DUP1 REVERT JUMPDEST DUP1 PUSH4 0x3932ABB1 EQ PUSH2 0x54A JUMPI DUP1 PUSH4 0x3E4F49E6 EQ PUSH2 0x55E JUMPI DUP1 PUSH4 0x40E58EE5 EQ PUSH2 0x58A JUMPI DUP1 PUSH4 0x43859632 EQ PUSH2 0x5A9 JUMPI DUP1 PUSH4 0x452115D6 EQ PUSH2 0x5F1 JUMPI DUP1 PUSH4 0x4BF5D7E9 EQ PUSH2 0x610 JUMPI PUSH0 DUP1 REVERT JUMPDEST DUP1 PUSH4 0x160CBED7 GT PUSH2 0x2CA JUMPI DUP1 PUSH4 0x2656227D GT PUSH2 0x2A5 JUMPI DUP1 PUSH4 0x2656227D EQ PUSH2 0x4B5 JUMPI DUP1 PUSH4 0x2D63F693 EQ PUSH2 0x4C8 JUMPI DUP1 PUSH4 0x2E82DB94 EQ PUSH2 0x4E7 JUMPI DUP1 PUSH4 0x2FE3E261 EQ PUSH2 0x517 JUMPI PUSH0 DUP1 REVERT JUMPDEST DUP1 PUSH4 0x160CBED7 EQ PUSH2 0x44B JUMPI DUP1 PUSH4 0x16E9EAEC EQ PUSH2 0x46A JUMPI DUP1 PUSH4 0x24BC1A64 EQ PUSH2 0x499 JUMPI PUSH0 DUP1 REVERT JUMPDEST DUP1 PUSH4 0x1FFC9A7 EQ PUSH2 0x31D JUMPI DUP1 PUSH4 0x2A251A3 EQ PUSH2 0x351 JUMPI DUP1 PUSH4 0x6F3F9E6 EQ PUSH2 0x37C JUMPI DUP1 PUSH4 0x6FDDE03 EQ PUSH2 0x39B JUMPI DUP1 PUSH4 0x143489D0 EQ PUSH2 0x3BC JUMPI DUP1 PUSH4 0x150B7A02 EQ PUSH2 0x408 JUMPI PUSH0 DUP1 REVERT JUMPDEST CALLDATASIZE PUSH2 0x319 JUMPI STOP JUMPDEST STOP JUMPDEST PUSH0 DUP1 REVERT JUMPDEST CALLVALUE DUP1 ISZERO PUSH2 0x328 JUMPI PUSH0 DUP1 REVERT JUMPDEST POP PUSH2 0x33C PUSH2 0x337 CALLDATASIZE PUSH1 0x4 PUSH2 0x35BC JUMP JUMPDEST PUSH2 0xAE0 JUMP JUMPDEST PUSH1 0x40 MLOAD SWAP1 ISZERO ISZERO DUP2 MSTORE PUSH1 0x20 ADD JUMPDEST PUSH1 0x40 MLOAD DUP1 SWAP2 SUB SWAP1 RETURN JUMPDEST CALLVALUE DUP1 ISZERO PUSH2 0x35C JUMPI PUSH0 DUP1 REVERT JUMPDEST POP PUSH1 0x8 SLOAD PUSH1 0x1 PUSH1 0x30 SHL SWAP1 DIV PUSH4 0xFFFFFFFF AND JUMPDEST PUSH1 0x40 MLOAD SWAP1 DUP2 MSTORE PUSH1 0x20 ADD PUSH2 0x348 JUMP JUMPDEST CALLVALUE DUP1 ISZERO PUSH2 0x387 JUMPI PUSH0 DUP1 REVERT JUMPDEST POP PUSH2 0x317 PUSH2 0x396 CALLDATASIZE PUSH1 0x4 PUSH2 0x35E3 JUMP JUMPDEST PUSH2 0xB36 JUMP JUMPDEST CALLVALUE DUP1 ISZERO PUSH2 0x3A6 JUMPI PUSH0 DUP1 REVERT JUMPDEST POP PUSH2 0x3AF PUSH2 0xB4A JUMP JUMPDEST PUSH1 0x40 MLOAD PUSH2 0x348 SWAP2 SWAP1 PUSH2 0x3647 JUMP JUMPDEST CALLVALUE DUP1 ISZERO PUSH2 0x3C7 JUMPI PUSH0 DUP1 REVERT JUMPDEST POP PUSH2 0x3F0 PUSH2 0x3D6 CALLDATASIZE PUSH1 0x4 PUSH2 0x35E3 JUMP JUMPDEST PUSH0 SWAP1 DUP2 MSTORE PUSH1 0x4 PUSH1 0x20 MSTORE PUSH1 0x40 SWAP1 KECCAK256 SLOAD PUSH1 0x1 PUSH1 0x1 PUSH1 0xA0 SHL SUB AND SWAP1 JUMP JUMPDEST PUSH1 0x40 MLOAD PUSH1 0x1 PUSH1 0x1 PUSH1 0xA0 SHL SUB SWAP1 SWAP2 AND DUP2 MSTORE PUSH1 0x20 ADD PUSH2 0x348 JUMP JUMPDEST CALLVALUE DUP1 ISZERO PUSH2 0x413 JUMPI PUSH0 DUP1 REVERT JUMPDEST POP PUSH2 0x432 PUSH2 0x422 CALLDATASIZE PUSH1 0x4 PUSH2 0x3732 JUMP JUMPDEST PUSH4 0xA85BD01 PUSH1 0xE1 SHL SWAP5 SWAP4 POP POP POP POP JUMP JUMPDEST PUSH1 0x40 MLOAD PUSH1 0x1 PUSH1 0x1 PUSH1 0xE0 SHL SUB NOT SWAP1 SWAP2 AND DUP2 MSTORE PUSH1 0x20 ADD PUSH2 0x348 JUMP JUMPDEST CALLVALUE DUP1 ISZERO PUSH2 0x456 JUMPI PUSH0 DUP1 REVERT JUMPDEST POP PUSH2 0x36E PUSH2 0x465 CALLDATASIZE PUSH1 0x4 PUSH2 0x38FB JUMP JUMPDEST PUSH2 0xBDA JUMP JUMPDEST CALLVALUE DUP1 ISZERO PUSH2 0x475 JUMPI PUSH0 DUP1 REVERT JUMPDEST POP PUSH2 0x489 PUSH2 0x484 CALLDATASIZE PUSH1 0x4 PUSH2 0x35E3 JUMP JUMPDEST PUSH2 0xC18 JUMP JUMPDEST PUSH1 0x40 MLOAD PUSH2 0x348 SWAP5 SWAP4 SWAP3 SWAP2 SWAP1 PUSH2 0x3A4E JUMP JUMPDEST CALLVALUE DUP1 ISZERO PUSH2 0x4A4 JUMPI PUSH0 DUP1 REVERT JUMPDEST POP PUSH10 0x54B40B1F852BDA000000 PUSH2 0x36E JUMP JUMPDEST PUSH2 0x36E PUSH2 0x4C3 CALLDATASIZE PUSH1 0x4 PUSH2 0x38FB JUMP JUMPDEST PUSH2 0xE17 JUMP JUMPDEST CALLVALUE DUP1 ISZERO PUSH2 0x4D3 JUMPI PUSH0 DUP1 REVERT JUMPDEST POP PUSH2 0x36E PUSH2 0x4E2 CALLDATASIZE PUSH1 0x4 PUSH2 0x35E3 JUMP JUMPDEST PUSH2 0xF3F JUMP JUMPDEST CALLVALUE DUP1 ISZERO PUSH2 0x4F2 JUMPI PUSH0 DUP1 REVERT JUMPDEST POP PUSH2 0x506 PUSH2 0x501 CALLDATASIZE PUSH1 0x4 PUSH2 0x35E3 JUMP JUMPDEST PUSH2 0xF5F JUMP JUMPDEST PUSH1 0x40 MLOAD PUSH2 0x348 SWAP6 SWAP5 SWAP4 SWAP3 SWAP2 SWAP1 PUSH2 0x3A98 JUMP JUMPDEST CALLVALUE DUP1 ISZERO PUSH2 0x522 JUMPI PUSH0 DUP1 REVERT JUMPDEST POP PUSH2 0x36E PUSH32 0x3E83946653575F9A39005E1545185629E92736B7528AB20CA3816F315424A811 DUP2 JUMP JUMPDEST CALLVALUE DUP1 ISZERO PUSH2 0x555 JUMPI PUSH0 DUP1 REVERT JUMPDEST POP PUSH2 0x36E PUSH2 0xFA9 JUMP JUMPDEST CALLVALUE DUP1 ISZERO PUSH2 0x569 JUMPI PUSH0 DUP1 REVERT JUMPDEST POP PUSH2 0x57D PUSH2 0x578 CALLDATASIZE PUSH1 0x4 PUSH2 0x35E3 JUMP JUMPDEST PUSH2 0xFBB JUMP JUMPDEST PUSH1 0x40 MLOAD PUSH2 0x348 SWAP2 SWAP1 PUSH2 0x3B1D JUMP JUMPDEST CALLVALUE DUP1 ISZERO PUSH2 0x595 JUMPI PUSH0 DUP1 REVERT JUMPDEST POP PUSH2 0x317 PUSH2 0x5A4 CALLDATASIZE PUSH1 0x4 PUSH2 0x35E3 JUMP JUMPDEST PUSH2 0x10EC JUMP JUMPDEST CALLVALUE DUP1 ISZERO PUSH2 0x5B4 JUMPI PUSH0 DUP1 REVERT JUMPDEST POP PUSH2 0x33C PUSH2 0x5C3 CALLDATASIZE PUSH1 0x4 PUSH2 0x3B2B JUMP JUMPDEST PUSH0 DUP3 DUP2 MSTORE PUSH1 0x9 PUSH1 0x20 SWAP1 DUP2 MSTORE PUSH1 0x40 DUP1 DUP4 KECCAK256 PUSH1 0x1 PUSH1 0x1 PUSH1 0xA0 SHL SUB DUP6 AND DUP5 MSTORE PUSH1 0x3 ADD SWAP1 SWAP2 MSTORE SWAP1 KECCAK256 SLOAD PUSH1 0xFF AND SWAP3 SWAP2 POP POP JUMP JUMPDEST CALLVALUE DUP1 ISZERO PUSH2 0x5FC JUMPI PUSH0 DUP1 REVERT JUMPDEST POP PUSH2 0x36E PUSH2 0x60B CALLDATASIZE PUSH1 0x4 PUSH2 0x38FB JUMP JUMPDEST PUSH2 0x1283 JUMP JUMPDEST CALLVALUE DUP1 ISZERO PUSH2 0x61B JUMPI PUSH0 DUP1 REVERT JUMPDEST POP PUSH2 0x3AF PUSH2 0x12EF JUMP JUMPDEST CALLVALUE DUP1 ISZERO PUSH2 0x62F JUMPI PUSH0 DUP1 REVERT JUMPDEST POP PUSH2 0x65C PUSH2 0x63E CALLDATASIZE PUSH1 0x4 PUSH2 0x35E3 JUMP JUMPDEST PUSH0 SWAP1 DUP2 MSTORE PUSH1 0x9 PUSH1 0x20 MSTORE PUSH1 0x40 SWAP1 KECCAK256 DUP1 SLOAD PUSH1 0x1 DUP3 ADD SLOAD PUSH1 0x2 SWAP1 SWAP3 ADD SLOAD SWAP1 SWAP3 JUMP JUMPDEST PUSH1 0x40 DUP1 MLOAD SWAP4 DUP5 MSTORE PUSH1 0x20 DUP5 ADD SWAP3 SWAP1 SWAP3 MSTORE SWAP1 DUP3 ADD MSTORE PUSH1 0x60 ADD PUSH2 0x348 JUMP JUMPDEST CALLVALUE DUP1 ISZERO PUSH2 0x682 JUMPI PUSH0 DUP1 REVERT JUMPDEST POP PUSH1 0x40 DUP1 MLOAD DUP1 DUP3 ADD SWAP1 SWAP2 MSTORE PUSH1 0x1 DUP2 MSTORE PUSH1 0x31 PUSH1 0xF8 SHL PUSH1 0x20 DUP3 ADD MSTORE PUSH2 0x3AF JUMP JUMPDEST CALLVALUE DUP1 ISZERO PUSH2 0x6AB JUMPI PUSH0 DUP1 REVERT JUMPDEST POP PUSH2 0x36E PUSH2 0x6BA CALLDATASIZE PUSH1 0x4 PUSH2 0x3B65 JUMP JUMPDEST PUSH2 0x13AF JUMP JUMPDEST CALLVALUE DUP1 ISZERO PUSH2 0x6CA JUMPI PUSH0 DUP1 REVERT JUMPDEST POP PUSH2 0x36E PUSH2 0x6D9 CALLDATASIZE PUSH1 0x4 PUSH2 0x3BCA JUMP JUMPDEST PUSH2 0x13D6 JUMP JUMPDEST CALLVALUE DUP1 ISZERO PUSH2 0x6E9 JUMPI PUSH0 DUP1 REVERT JUMPDEST POP PUSH2 0x36E PUSH2 0x6F8 CALLDATASIZE PUSH1 0x4 PUSH2 0x3C7A JUMP JUMPDEST PUSH2 0x1532 JUMP JUMPDEST CALLVALUE DUP1 ISZERO PUSH2 0x708 JUMPI PUSH0 DUP1 REVERT JUMPDEST POP PUSH2 0x36E PUSH2 0x717 CALLDATASIZE PUSH1 0x4 PUSH2 0x35E3 JUMP JUMPDEST PUSH2 0x1585 JUMP JUMPDEST CALLVALUE DUP1 ISZERO PUSH2 0x727 JUMPI PUSH0 DUP1 REVERT JUMPDEST POP PUSH2 0x317 PUSH2 0x736 CALLDATASIZE PUSH1 0x4 PUSH2 0x3D0A JUMP JUMPDEST PUSH2 0x1611 JUMP JUMPDEST CALLVALUE DUP1 ISZERO PUSH2 0x746 JUMPI PUSH0 DUP1 REVERT JUMPDEST POP PUSH2 0x36E PUSH2 0x755 CALLDATASIZE PUSH1 0x4 PUSH2 0x3D25 JUMP JUMPDEST PUSH2 0x1622 JUMP JUMPDEST CALLVALUE DUP1 ISZERO PUSH2 0x765 JUMPI PUSH0 DUP1 REVERT JUMPDEST POP PUSH2 0x36E PUSH2 0x774 CALLDATASIZE PUSH1 0x4 PUSH2 0x3D7A JUMP JUMPDEST PUSH2 0x1668 JUMP JUMPDEST CALLVALUE DUP1 ISZERO PUSH2 0x784 JUMPI PUSH0 DUP1 REVERT JUMPDEST POP PUSH2 0x36E PUSH2 0x793 CALLDATASIZE PUSH1 0x4 PUSH2 0x3E26 JUMP JUMPDEST PUSH1 0x1 PUSH1 0x1 PUSH1 0xA0 SHL SUB AND PUSH0 SWAP1 DUP2 MSTORE PUSH1 0x2 PUSH1 0x20 MSTORE PUSH1 0x40 SWAP1 KECCAK256 SLOAD SWAP1 JUMP JUMPDEST CALLVALUE DUP1 ISZERO PUSH2 0x7B8 JUMPI PUSH0 DUP1 REVERT JUMPDEST POP PUSH2 0x7C1 PUSH2 0x1722 JUMP JUMPDEST PUSH1 0x40 MLOAD PUSH2 0x348 SWAP8 SWAP7 SWAP6 SWAP5 SWAP4 SWAP3 SWAP2 SWAP1 PUSH2 0x3E3F JUMP JUMPDEST CALLVALUE DUP1 ISZERO PUSH2 0x7DF JUMPI PUSH0 DUP1 REVERT JUMPDEST POP PUSH2 0x36E PUSH2 0x7EE CALLDATASIZE PUSH1 0x4 PUSH2 0x3EAE JUMP JUMPDEST PUSH2 0x1764 JUMP JUMPDEST CALLVALUE DUP1 ISZERO PUSH2 0x7FE JUMPI PUSH0 DUP1 REVERT JUMPDEST POP PUSH2 0x807 PUSH2 0x1833 JUMP JUMPDEST PUSH1 0x40 MLOAD PUSH6 0xFFFFFFFFFFFF SWAP1 SWAP2 AND DUP2 MSTORE PUSH1 0x20 ADD PUSH2 0x348 JUMP JUMPDEST CALLVALUE DUP1 ISZERO PUSH2 0x829 JUMPI PUSH0 DUP1 REVERT JUMPDEST POP PUSH1 0x64 PUSH2 0x36E JUMP JUMPDEST CALLVALUE DUP1 ISZERO PUSH2 0x83C JUMPI PUSH0 DUP1 REVERT JUMPDEST POP PUSH2 0x36E PUSH2 0x84B CALLDATASIZE PUSH1 0x4 PUSH2 0x3EF9 JUMP JUMPDEST PUSH2 0x18BA JUMP JUMPDEST CALLVALUE DUP1 ISZERO PUSH2 0x85B JUMPI PUSH0 DUP1 REVERT JUMPDEST POP PUSH2 0x36E PUSH2 0x18C6 JUMP JUMPDEST CALLVALUE DUP1 ISZERO PUSH2 0x86F JUMPI PUSH0 DUP1 REVERT JUMPDEST POP PUSH2 0x33C PUSH2 0x87E CALLDATASIZE PUSH1 0x4 PUSH2 0x35E3 JUMP JUMPDEST POP PUSH0 SWAP1 JUMP JUMPDEST CALLVALUE DUP1 ISZERO PUSH2 0x88E JUMPI PUSH0 DUP1 REVERT JUMPDEST POP PUSH2 0x36E PUSH2 0x89D CALLDATASIZE PUSH1 0x4 PUSH2 0x35E3 JUMP JUMPDEST PUSH0 SWAP1 DUP2 MSTORE PUSH1 0x4 PUSH1 0x20 MSTORE PUSH1 0x40 SWAP1 KECCAK256 PUSH1 0x1 ADD SLOAD PUSH6 0xFFFFFFFFFFFF AND SWAP1 JUMP JUMPDEST CALLVALUE DUP1 ISZERO PUSH2 0x8C4 JUMPI PUSH0 DUP1 REVERT JUMPDEST POP PUSH2 0x36E PUSH2 0x18DF JUMP JUMPDEST CALLVALUE DUP1 ISZERO PUSH2 0x8D8 JUMPI PUSH0 DUP1 REVERT JUMPDEST POP PUSH2 0x432 PUSH2 0x8E7 CALLDATASIZE PUSH1 0x4 PUSH2 0x3F4B JUMP JUMPDEST PUSH4 0xBC197C81 PUSH1 0xE0 SHL SWAP6 SWAP5 POP POP POP POP POP JUMP JUMPDEST CALLVALUE DUP1 ISZERO PUSH2 0x903 JUMPI PUSH0 DUP1 REVERT JUMPDEST POP PUSH2 0x36E PUSH2 0x912 CALLDATASIZE PUSH1 0x4 PUSH2 0x35E3 JUMP JUMPDEST PUSH2 0x18E9 JUMP JUMPDEST PUSH2 0x317 PUSH2 0x925 CALLDATASIZE PUSH1 0x4 PUSH2 0x3FD3 JUMP JUMPDEST PUSH2 0x192B JUMP JUMPDEST CALLVALUE DUP1 ISZERO PUSH2 0x935 JUMPI PUSH0 DUP1 REVERT JUMPDEST POP PUSH2 0x36E PUSH2 0x944 CALLDATASIZE PUSH1 0x4 PUSH2 0x38FB JUMP JUMPDEST PUSH2 0x19A7 JUMP JUMPDEST CALLVALUE DUP1 ISZERO PUSH2 0x954 JUMPI PUSH0 DUP1 REVERT JUMPDEST POP PUSH1 0xA SLOAD PUSH2 0x36E JUMP JUMPDEST CALLVALUE DUP1 ISZERO PUSH2 0x968 JUMPI PUSH0 DUP1 REVERT JUMPDEST POP PUSH1 0x40 DUP1 MLOAD DUP1 DUP3 ADD SWAP1 SWAP2 MSTORE PUSH1 0x20 DUP1 DUP3 MSTORE PUSH32 0x737570706F72743D627261766F2671756F72756D3D666F722C6162737461696E SWAP1 DUP3 ADD MSTORE PUSH2 0x3AF JUMP JUMPDEST CALLVALUE DUP1 ISZERO PUSH2 0x9AD JUMPI PUSH0 DUP1 REVERT JUMPDEST POP PUSH2 0x317 PUSH2 0x9BC CALLDATASIZE PUSH1 0x4 PUSH2 0x35E3 JUMP JUMPDEST PUSH2 0x19E0 JUMP JUMPDEST CALLVALUE DUP1 ISZERO PUSH2 0x9CC JUMPI PUSH0 DUP1 REVERT JUMPDEST POP PUSH2 0x36E PUSH32 0xF2AAD550CF55F045CB27E9C559F9889FDFB6E6CDAA032301D6EA397784AE51D7 DUP2 JUMP JUMPDEST CALLVALUE DUP1 ISZERO PUSH2 0x9FF JUMPI PUSH0 DUP1 REVERT JUMPDEST POP PUSH2 0x317 PUSH2 0xA0E CALLDATASIZE PUSH1 0x4 PUSH2 0x4010 JUMP JUMPDEST PUSH2 0x1B72 JUMP JUMPDEST CALLVALUE DUP1 ISZERO PUSH2 0xA1E JUMPI PUSH0 DUP1 REVERT JUMPDEST POP PUSH2 0x36E PUSH2 0xA2D CALLDATASIZE PUSH1 0x4 PUSH2 0x4033 JUMP JUMPDEST PUSH2 0x1B83 JUMP JUMPDEST CALLVALUE DUP1 ISZERO PUSH2 0xA3D JUMPI PUSH0 DUP1 REVERT JUMPDEST POP PUSH2 0x317 PUSH2 0xA4C CALLDATASIZE PUSH1 0x4 PUSH2 0x35E3 JUMP JUMPDEST PUSH2 0x1BA9 JUMP JUMPDEST CALLVALUE DUP1 ISZERO PUSH2 0xA5C JUMPI PUSH0 DUP1 REVERT JUMPDEST POP PUSH2 0x432 PUSH2 0xA6B CALLDATASIZE PUSH1 0x4 PUSH2 0x405B JUMP JUMPDEST PUSH4 0xF23A6E61 PUSH1 0xE0 SHL SWAP6 SWAP5 POP POP POP POP POP JUMP JUMPDEST CALLVALUE DUP1 ISZERO PUSH2 0xA87 JUMPI PUSH0 DUP1 REVERT JUMPDEST POP PUSH2 0x36E PUSH2 0xA96 CALLDATASIZE PUSH1 0x4 PUSH2 0x35E3 JUMP JUMPDEST PUSH2 0x1BBA JUMP JUMPDEST CALLVALUE DUP1 ISZERO PUSH2 0xAA6 JUMPI PUSH0 DUP1 REVERT JUMPDEST POP PUSH32 0x0 PUSH2 0x3F0 JUMP JUMPDEST PUSH2 0x317 PUSH2 0xADB CALLDATASIZE PUSH1 0x4 PUSH2 0x35E3 JUMP JUMPDEST PUSH2 0x1BC4 JUMP JUMPDEST PUSH0 PUSH1 0x1 PUSH1 0x1 PUSH1 0xE0 SHL SUB NOT DUP3 AND PUSH4 0x32A2AD43 PUSH1 0xE1 SHL EQ DUP1 PUSH2 0xB10 JUMPI POP PUSH1 0x1 PUSH1 0x1 PUSH1 0xE0 SHL SUB NOT DUP3 AND PUSH4 0x2711897 PUSH1 0xE5 SHL EQ JUMPDEST DUP1 PUSH2 0xB2B JUMPI POP PUSH4 0x1FFC9A7 PUSH1 0xE0 SHL PUSH1 0x1 PUSH1 0x1 PUSH1 0xE0 SHL SUB NOT DUP4 AND EQ JUMPDEST SWAP3 SWAP2 POP POP JUMP JUMPDEST SWAP1 POP SWAP1 JUMP JUMPDEST PUSH2 0xB3E PUSH2 0x1D56 JUMP JUMPDEST PUSH2 0xB47 DUP2 PUSH2 0x1D8D JUMP JUMPDEST POP JUMP JUMPDEST PUSH1 0x60 PUSH1 0x3 DUP1 SLOAD PUSH2 0xB59 SWAP1 PUSH2 0x40BA JUMP JUMPDEST DUP1 PUSH1 0x1F ADD PUSH1 0x20 DUP1 SWAP2 DIV MUL PUSH1 0x20 ADD PUSH1 0x40 MLOAD SWAP1 DUP2 ADD PUSH1 0x40 MSTORE DUP1 SWAP3 SWAP2 SWAP1 DUP2 DUP2 MSTORE PUSH1 0x20 ADD DUP3 DUP1 SLOAD PUSH2 0xB85 SWAP1 PUSH2 0x40BA JUMP JUMPDEST DUP1 ISZERO PUSH2 0xBD0 JUMPI DUP1 PUSH1 0x1F LT PUSH2 0xBA7 JUMPI PUSH2 0x100 DUP1 DUP4 SLOAD DIV MUL DUP4 MSTORE SWAP2 PUSH1 0x20 ADD SWAP2 PUSH2 0xBD0 JUMP JUMPDEST DUP3 ADD SWAP2 SWAP1 PUSH0 MSTORE PUSH1 0x20 PUSH0 KECCAK256 SWAP1 JUMPDEST DUP2 SLOAD DUP2 MSTORE SWAP1 PUSH1 0x1 ADD SWAP1 PUSH1 0x20 ADD DUP1 DUP4 GT PUSH2 0xBB3 JUMPI DUP3 SWAP1 SUB PUSH1 0x1F AND DUP3 ADD SWAP2 JUMPDEST POP POP POP POP POP SWAP1 POP SWAP1 JUMP JUMPDEST PUSH0 DUP1 PUSH2 0xBE8 DUP7 DUP7 DUP7 DUP7 PUSH2 0x19A7 JUMP JUMPDEST SWAP1 POP PUSH2 0xBFD DUP2 PUSH2 0xBF8 PUSH1 0x4 PUSH2 0x1E22 JUMP JUMPDEST PUSH2 0x1E44 JUMP JUMPDEST POP PUSH0 PUSH1 0x40 MLOAD PUSH4 0x48442523 PUSH1 0xE1 SHL DUP2 MSTORE PUSH1 0x4 ADD PUSH1 0x40 MLOAD DUP1 SWAP2 SUB SWAP1 REVERT JUMPDEST PUSH0 DUP2 DUP2 MSTORE PUSH1 0xB PUSH1 0x20 SWAP1 DUP2 MSTORE PUSH1 0x40 DUP1 DUP4 KECCAK256 DUP2 MLOAD DUP2 SLOAD PUSH1 0xA0 SWAP5 DUP2 MUL DUP3 ADD DUP6 ADD SWAP1 SWAP4 MSTORE PUSH1 0x80 DUP2 ADD DUP4 DUP2 MSTORE PUSH1 0x60 SWAP6 DUP7 SWAP6 DUP7 SWAP6 SWAP2 SWAP5 DUP6 SWAP5 SWAP4 SWAP1 SWAP3 DUP5 SWAP3 DUP5 SWAP2 SWAP1 DUP5 ADD DUP3 DUP3 DUP1 ISZERO PUSH2 0xC89 JUMPI PUSH1 0x20 MUL DUP3 ADD SWAP2 SWAP1 PUSH0 MSTORE PUSH1 0x20 PUSH0 KECCAK256 SWAP1 JUMPDEST DUP2 SLOAD PUSH1 0x1 PUSH1 0x1 PUSH1 0xA0 SHL SUB AND DUP2 MSTORE PUSH1 0x1 SWAP1 SWAP2 ADD SWAP1 PUSH1 0x20 ADD DUP1 DUP4 GT PUSH2 0xC6B JUMPI JUMPDEST POP POP POP POP POP DUP2 MSTORE PUSH1 0x20 ADD PUSH1 0x1 DUP3 ADD DUP1 SLOAD DUP1 PUSH1 0x20 MUL PUSH1 0x20 ADD PUSH1 0x40 MLOAD SWAP1 DUP2 ADD PUSH1 0x40 MSTORE DUP1 SWAP3 SWAP2 SWAP1 DUP2 DUP2 MSTORE PUSH1 0x20 ADD DUP3 DUP1 SLOAD DUP1 ISZERO PUSH2 0xCDF JUMPI PUSH1 0x20 MUL DUP3 ADD SWAP2 SWAP1 PUSH0 MSTORE PUSH1 0x20 PUSH0 KECCAK256 SWAP1 JUMPDEST DUP2 SLOAD DUP2 MSTORE PUSH1 0x20 ADD SWAP1 PUSH1 0x1 ADD SWAP1 DUP1 DUP4 GT PUSH2 0xCCB JUMPI JUMPDEST POP POP POP POP POP DUP2 MSTORE PUSH1 0x20 ADD PUSH1 0x2 DUP3 ADD DUP1 SLOAD DUP1 PUSH1 0x20 MUL PUSH1 0x20 ADD PUSH1 0x40 MLOAD SWAP1 DUP2 ADD PUSH1 0x40 MSTORE DUP1 SWAP3 SWAP2 SWAP1 DUP2 DUP2 MSTORE PUSH1 0x20 ADD PUSH0 SWAP1 JUMPDEST DUP3 DUP3 LT ISZERO PUSH2 0xDB4 JUMPI DUP4 DUP3 SWAP1 PUSH0 MSTORE PUSH1 0x20 PUSH0 KECCAK256 ADD DUP1 SLOAD PUSH2 0xD29 SWAP1 PUSH2 0x40BA JUMP JUMPDEST DUP1 PUSH1 0x1F ADD PUSH1 0x20 DUP1 SWAP2 DIV MUL PUSH1 0x20 ADD PUSH1 0x40 MLOAD SWAP1 DUP2 ADD PUSH1 0x40 MSTORE DUP1 SWAP3 SWAP2 SWAP1 DUP2 DUP2 MSTORE PUSH1 0x20 ADD DUP3 DUP1 SLOAD PUSH2 0xD55 SWAP1 PUSH2 0x40BA JUMP JUMPDEST DUP1 ISZERO PUSH2 0xDA0 JUMPI DUP1 PUSH1 0x1F LT PUSH2 0xD77 JUMPI PUSH2 0x100 DUP1 DUP4 SLOAD DIV MUL DUP4 MSTORE SWAP2 PUSH1 0x20 ADD SWAP2 PUSH2 0xDA0 JUMP JUMPDEST DUP3 ADD SWAP2 SWAP1 PUSH0 MSTORE PUSH1 0x20 PUSH0 KECCAK256 SWAP1 JUMPDEST DUP2 SLOAD DUP2 MSTORE SWAP1 PUSH1 0x1 ADD SWAP1 PUSH1 0x20 ADD DUP1 DUP4 GT PUSH2 0xD83 JUMPI DUP3 SWAP1 SUB PUSH1 0x1F AND DUP3 ADD SWAP2 JUMPDEST POP POP POP POP POP DUP2 MSTORE PUSH1 0x20 ADD SWAP1 PUSH1 0x1 ADD SWAP1 PUSH2 0xD0C JUMP JUMPDEST POP POP POP POP DUP2 MSTORE PUSH1 0x20 ADD PUSH1 0x3 DUP3 ADD SLOAD DUP2 MSTORE POP POP SWAP1 POP DUP1 PUSH1 0x60 ADD MLOAD PUSH0 DUP1 SHL SUB PUSH2 0xDF6 JUMPI PUSH1 0x40 MLOAD PUSH4 0x6AD06075 PUSH1 0xE0 SHL DUP2 MSTORE PUSH1 0x4 DUP2 ADD DUP8 SWAP1 MSTORE PUSH1 0x24 ADD JUMPDEST PUSH1 0x40 MLOAD DUP1 SWAP2 SUB SWAP1 REVERT JUMPDEST DUP1 MLOAD PUSH1 0x20 DUP3 ADD MLOAD PUSH1 0x40 DUP4 ADD MLOAD PUSH1 0x60 SWAP1 SWAP4 ADD MLOAD SWAP2 SWAP9 SWAP1 SWAP8 POP SWAP2 SWAP6 POP SWAP4 POP SWAP2 POP POP JUMP JUMPDEST PUSH0 DUP1 PUSH2 0xE25 DUP7 DUP7 DUP7 DUP7 PUSH2 0x19A7 JUMP JUMPDEST SWAP1 POP PUSH2 0xE45 DUP2 PUSH2 0xE35 PUSH1 0x5 PUSH2 0x1E22 JUMP JUMPDEST PUSH2 0xE3F PUSH1 0x4 PUSH2 0x1E22 JUMP JUMPDEST OR PUSH2 0x1E44 JUMP JUMPDEST POP PUSH0 DUP2 DUP2 MSTORE PUSH1 0x4 PUSH1 0x20 MSTORE PUSH1 0x40 SWAP1 KECCAK256 DUP1 SLOAD PUSH1 0xFF PUSH1 0xF0 SHL NOT AND PUSH1 0x1 PUSH1 0xF0 SHL OR SWAP1 SSTORE ADDRESS PUSH2 0xE6C ADDRESS SWAP1 JUMP JUMPDEST PUSH1 0x1 PUSH1 0x1 PUSH1 0xA0 SHL SUB AND EQ PUSH2 0xEF5 JUMPI PUSH0 JUMPDEST DUP7 MLOAD DUP2 LT ISZERO PUSH2 0xEF3 JUMPI ADDRESS PUSH1 0x1 PUSH1 0x1 PUSH1 0xA0 SHL SUB AND DUP8 DUP3 DUP2 MLOAD DUP2 LT PUSH2 0xEA1 JUMPI PUSH2 0xEA1 PUSH2 0x40F2 JUMP JUMPDEST PUSH1 0x20 MUL PUSH1 0x20 ADD ADD MLOAD PUSH1 0x1 PUSH1 0x1 PUSH1 0xA0 SHL SUB AND SUB PUSH2 0xEEB JUMPI PUSH2 0xEEB DUP6 DUP3 DUP2 MLOAD DUP2 LT PUSH2 0xECC JUMPI PUSH2 0xECC PUSH2 0x40F2 JUMP JUMPDEST PUSH1 0x20 MUL PUSH1 0x20 ADD ADD MLOAD DUP1 MLOAD SWAP1 PUSH1 0x20 ADD KECCAK256 PUSH1 0x5 PUSH2 0x1E81 SWAP1 SWAP2 SWAP1 PUSH4 0xFFFFFFFF AND JUMP JUMPDEST PUSH1 0x1 ADD PUSH2 0xE7C JUMP JUMPDEST POP JUMPDEST PUSH2 0xF02 DUP2 DUP8 DUP8 DUP8 DUP8 PUSH2 0x1EF1 JUMP JUMPDEST PUSH1 0x40 MLOAD DUP2 DUP2 MSTORE PUSH32 0x712AE1383F79AC853F8D882153778E0260EF8F03B504E2866E0593E04D2B291F SWAP1 PUSH1 0x20 ADD JUMPDEST PUSH1 0x40 MLOAD DUP1 SWAP2 SUB SWAP1 LOG1 SWAP6 SWAP5 POP POP POP POP POP JUMP JUMPDEST PUSH0 SWAP1 DUP2 MSTORE PUSH1 0x4 PUSH1 0x20 MSTORE PUSH1 0x40 SWAP1 KECCAK256 SLOAD PUSH1 0x1 PUSH1 0xA0 SHL SWAP1 DIV PUSH6 0xFFFFFFFFFFFF AND SWAP1 JUMP JUMPDEST PUSH0 PUSH1 0x60 DUP1 PUSH1 0x60 PUSH0 DUP1 PUSH1 0xA DUP8 DUP2 SLOAD DUP2 LT PUSH2 0xF7A JUMPI PUSH2 0xF7A PUSH2 0x40F2 JUMP JUMPDEST SWAP1 PUSH0 MSTORE PUSH1 0x20 PUSH0 KECCAK256 ADD SLOAD SWAP1 POP PUSH0 DUP1 PUSH0 DUP1 PUSH2 0xF92 DUP6 PUSH2 0xC18 JUMP JUMPDEST SWAP8 SWAP15 SWAP3 SWAP14 POP SWAP1 SWAP12 POP SWAP10 POP SWAP5 SWAP8 POP SWAP4 SWAP6 POP POP POP POP POP POP JUMP JUMPDEST PUSH0 PUSH2 0xB31 PUSH1 0x8 SLOAD PUSH6 0xFFFFFFFFFFFF AND SWAP1 JUMP JUMPDEST PUSH0 DUP2 DUP2 MSTORE PUSH1 0x4 PUSH1 0x20 MSTORE PUSH1 0x40 DUP2 KECCAK256 DUP1 SLOAD PUSH1 0xFF PUSH1 0x1 PUSH1 0xF0 SHL DUP3 DIV DUP2 AND SWAP2 PUSH1 0x1 PUSH1 0xF8 SHL SWAP1 DIV AND DUP2 ISZERO PUSH2 0xFEF JUMPI POP PUSH1 0x7 SWAP5 SWAP4 POP POP POP POP JUMP JUMPDEST DUP1 ISZERO PUSH2 0x1000 JUMPI POP PUSH1 0x2 SWAP5 SWAP4 POP POP POP POP JUMP JUMPDEST PUSH0 PUSH2 0x100A DUP7 PUSH2 0xF3F JUMP JUMPDEST SWAP1 POP DUP1 PUSH0 SUB PUSH2 0x102F JUMPI PUSH1 0x40 MLOAD PUSH4 0x6AD06075 PUSH1 0xE0 SHL DUP2 MSTORE PUSH1 0x4 DUP2 ADD DUP8 SWAP1 MSTORE PUSH1 0x24 ADD PUSH2 0xDED JUMP JUMPDEST PUSH0 PUSH2 0x1038 PUSH2 0x1833 JUMP JUMPDEST PUSH6 0xFFFFFFFFFFFF AND SWAP1 POP DUP1 DUP3 LT PUSH2 0x1055 JUMPI POP PUSH0 SWAP7 SWAP6 POP POP POP POP POP POP JUMP JUMPDEST PUSH0 PUSH2 0x105F DUP9 PUSH2 0x18E9 JUMP JUMPDEST SWAP1 POP DUP2 DUP2 LT PUSH2 0x1076 JUMPI POP PUSH1 0x1 SWAP8 SWAP7 POP POP POP POP POP POP POP JUMP JUMPDEST PUSH2 0x107F DUP9 PUSH2 0x1FC6 JUMP JUMPDEST ISZERO DUP1 PUSH2 0x109E JUMPI POP PUSH0 DUP9 DUP2 MSTORE PUSH1 0x9 PUSH1 0x20 MSTORE PUSH1 0x40 SWAP1 KECCAK256 DUP1 SLOAD PUSH1 0x1 SWAP1 SWAP2 ADD SLOAD GT ISZERO JUMPDEST ISZERO PUSH2 0x10B1 JUMPI POP PUSH1 0x3 SWAP8 SWAP7 POP POP POP POP POP POP POP JUMP JUMPDEST PUSH0 DUP9 DUP2 MSTORE PUSH1 0x4 PUSH1 0x20 MSTORE PUSH1 0x40 SWAP1 KECCAK256 PUSH1 0x1 ADD SLOAD PUSH6 0xFFFFFFFFFFFF AND PUSH0 SUB PUSH2 0x10DE JUMPI POP PUSH1 0x4 SWAP8 SWAP7 POP POP POP POP POP POP POP JUMP JUMPDEST POP PUSH1 0x5 SWAP8 SWAP7 POP POP POP POP POP POP POP JUMP JUMPDEST PUSH0 DUP2 DUP2 MSTORE PUSH1 0xB PUSH1 0x20 SWAP1 DUP2 MSTORE PUSH1 0x40 SWAP2 DUP3 SWAP1 KECCAK256 DUP1 SLOAD DUP4 MLOAD DUP2 DUP5 MUL DUP2 ADD DUP5 ADD SWAP1 SWAP5 MSTORE DUP1 DUP5 MSTORE SWAP1 SWAP3 PUSH2 0x127E SWAP3 SWAP1 SWAP2 DUP5 SWAP2 DUP4 ADD DUP3 DUP3 DUP1 ISZERO PUSH2 0x114F JUMPI PUSH1 0x20 MUL DUP3 ADD SWAP2 SWAP1 PUSH0 MSTORE PUSH1 0x20 PUSH0 KECCAK256 SWAP1 JUMPDEST DUP2 SLOAD PUSH1 0x1 PUSH1 0x1 PUSH1 0xA0 SHL SUB AND DUP2 MSTORE PUSH1 0x1 SWAP1 SWAP2 ADD SWAP1 PUSH1 0x20 ADD DUP1 DUP4 GT PUSH2 0x1131 JUMPI JUMPDEST POP POP POP POP POP DUP3 PUSH1 0x1 ADD DUP1 SLOAD DUP1 PUSH1 0x20 MUL PUSH1 0x20 ADD PUSH1 0x40 MLOAD SWAP1 DUP2 ADD PUSH1 0x40 MSTORE DUP1 SWAP3 SWAP2 SWAP1 DUP2 DUP2 MSTORE PUSH1 0x20 ADD DUP3 DUP1 SLOAD DUP1 ISZERO PUSH2 0x11A0 JUMPI PUSH1 0x20 MUL DUP3 ADD SWAP2 SWAP1 PUSH0 MSTORE PUSH1 0x20 PUSH0 KECCAK256 SWAP1 JUMPDEST DUP2 SLOAD DUP2 MSTORE PUSH1 0x20 ADD SWAP1 PUSH1 0x1 ADD SWAP1 DUP1 DUP4 GT PUSH2 0x118C JUMPI JUMPDEST POP POP POP POP POP DUP4 PUSH1 0x2 ADD DUP1 SLOAD DUP1 PUSH1 0x20 MUL PUSH1 0x20 ADD PUSH1 0x40 MLOAD SWAP1 DUP2 ADD PUSH1 0x40 MSTORE DUP1 SWAP3 SWAP2 SWAP1 DUP2 DUP2 MSTORE PUSH1 0x20 ADD PUSH0 SWAP1 JUMPDEST DUP3 DUP3 LT ISZERO PUSH2 0x1270 JUMPI DUP4 DUP3 SWAP1 PUSH0 MSTORE PUSH1 0x20 PUSH0 KECCAK256 ADD DUP1 SLOAD PUSH2 0x11E5 SWAP1 PUSH2 0x40BA JUMP JUMPDEST DUP1 PUSH1 0x1F ADD PUSH1 0x20 DUP1 SWAP2 DIV MUL PUSH1 0x20 ADD PUSH1 0x40 MLOAD SWAP1 DUP2 ADD PUSH1 0x40 MSTORE DUP1 SWAP3 SWAP2 SWAP1 DUP2 DUP2 MSTORE PUSH1 0x20 ADD DUP3 DUP1 SLOAD PUSH2 0x1211 SWAP1 PUSH2 0x40BA JUMP JUMPDEST DUP1 ISZERO PUSH2 0x125C JUMPI DUP1 PUSH1 0x1F LT PUSH2 0x1233 JUMPI PUSH2 0x100 DUP1 DUP4 SLOAD DIV MUL DUP4 MSTORE SWAP2 PUSH1 0x20 ADD SWAP2 PUSH2 0x125C JUMP JUMPDEST DUP3 ADD SWAP2 SWAP1 PUSH0 MSTORE PUSH1 0x20 PUSH0 KECCAK256 SWAP1 JUMPDEST DUP2 SLOAD DUP2 MSTORE SWAP1 PUSH1 0x1 ADD SWAP1 PUSH1 0x20 ADD DUP1 DUP4 GT PUSH2 0x123F JUMPI DUP3 SWAP1 SUB PUSH1 0x1F AND DUP3 ADD SWAP2 JUMPDEST POP POP POP POP POP DUP2 MSTORE PUSH1 0x20 ADD SWAP1 PUSH1 0x1 ADD SWAP1 PUSH2 0x11C8 JUMP JUMPDEST POP POP POP POP DUP5 PUSH1 0x3 ADD SLOAD PUSH2 0x1283 JUMP JUMPDEST POP POP POP JUMP JUMPDEST PUSH0 DUP1 PUSH2 0x1291 DUP7 DUP7 DUP7 DUP7 PUSH2 0x19A7 JUMP JUMPDEST SWAP1 POP PUSH2 0x12A0 DUP2 PUSH2 0xBF8 PUSH0 PUSH2 0x1E22 JUMP JUMPDEST POP PUSH0 DUP2 DUP2 MSTORE PUSH1 0x4 PUSH1 0x20 MSTORE PUSH1 0x40 SWAP1 KECCAK256 SLOAD PUSH1 0x1 PUSH1 0x1 PUSH1 0xA0 SHL SUB AND CALLER EQ PUSH2 0x12D9 JUMPI PUSH1 0x40 MLOAD PUSH4 0x233D98E3 PUSH1 0xE0 SHL DUP2 MSTORE CALLER PUSH1 0x4 DUP3 ADD MSTORE PUSH1 0x24 ADD PUSH2 0xDED JUMP JUMPDEST PUSH2 0x12E5 DUP7 DUP7 DUP7 DUP7 PUSH2 0x1FFC JUMP JUMPDEST SWAP7 SWAP6 POP POP POP POP POP POP JUMP JUMPDEST PUSH1 0x60 PUSH32 0x0 PUSH1 0x1 PUSH1 0x1 PUSH1 0xA0 SHL SUB AND PUSH4 0x4BF5D7E9 PUSH1 0x40 MLOAD DUP2 PUSH4 0xFFFFFFFF AND PUSH1 0xE0 SHL DUP2 MSTORE PUSH1 0x4 ADD PUSH0 PUSH1 0x40 MLOAD DUP1 DUP4 SUB DUP2 DUP7 GAS STATICCALL SWAP3 POP POP POP DUP1 ISZERO PUSH2 0x136E JUMPI POP PUSH1 0x40 MLOAD RETURNDATASIZE PUSH0 DUP3 RETURNDATACOPY PUSH1 0x1F RETURNDATASIZE SWAP1 DUP2 ADD PUSH1 0x1F NOT AND DUP3 ADD PUSH1 0x40 MSTORE PUSH2 0x136B SWAP2 SWAP1 DUP2 ADD SWAP1 PUSH2 0x4106 JUMP JUMPDEST PUSH1 0x1 JUMPDEST PUSH2 0x13AA JUMPI POP PUSH1 0x40 DUP1 MLOAD DUP1 DUP3 ADD SWAP1 SWAP2 MSTORE PUSH1 0x1D DUP2 MSTORE PUSH32 0x6D6F64653D626C6F636B6E756D6265722666726F6D3D64656661756C74000000 PUSH1 0x20 DUP3 ADD MSTORE SWAP1 JUMP JUMPDEST SWAP2 SWAP1 POP JUMP JUMPDEST PUSH0 DUP1 CALLER SWAP1 POP PUSH2 0x13CE DUP5 DUP3 DUP6 PUSH1 0x40 MLOAD DUP1 PUSH1 0x20 ADD PUSH1 0x40 MSTORE DUP1 PUSH0 DUP2 MSTORE POP PUSH2 0x20AB JUMP JUMPDEST SWAP5 SWAP4 POP POP POP POP JUMP JUMPDEST PUSH0 DUP1 PUSH2 0x14B7 DUP8 PUSH2 0x14B1 PUSH32 0x3E83946653575F9A39005E1545185629E92736B7528AB20CA3816F315424A811 DUP13 DUP13 DUP13 PUSH2 0x1429 DUP15 PUSH1 0x1 PUSH1 0x1 PUSH1 0xA0 SHL SUB AND PUSH0 SWAP1 DUP2 MSTORE PUSH1 0x2 PUSH1 0x20 MSTORE PUSH1 0x40 SWAP1 KECCAK256 DUP1 SLOAD PUSH1 0x1 DUP2 ADD SWAP1 SWAP2 SSTORE SWAP1 JUMP JUMPDEST DUP14 DUP14 PUSH1 0x40 MLOAD PUSH2 0x1439 SWAP3 SWAP2 SWAP1 PUSH2 0x416E JUMP JUMPDEST PUSH1 0x40 MLOAD DUP1 SWAP2 SUB SWAP1 KECCAK256 DUP13 DUP1 MLOAD SWAP1 PUSH1 0x20 ADD KECCAK256 PUSH1 0x40 MLOAD PUSH1 0x20 ADD PUSH2 0x1496 SWAP8 SWAP7 SWAP6 SWAP5 SWAP4 SWAP3 SWAP2 SWAP1 SWAP7 DUP8 MSTORE PUSH1 0x20 DUP8 ADD SWAP6 SWAP1 SWAP6 MSTORE PUSH1 0xFF SWAP4 SWAP1 SWAP4 AND PUSH1 0x40 DUP7 ADD MSTORE PUSH1 0x1 PUSH1 0x1 PUSH1 0xA0 SHL SUB SWAP2 SWAP1 SWAP2 AND PUSH1 0x60 DUP6 ADD MSTORE PUSH1 0x80 DUP5 ADD MSTORE PUSH1 0xA0 DUP4 ADD MSTORE PUSH1 0xC0 DUP3 ADD MSTORE PUSH1 0xE0 ADD SWAP1 JUMP JUMPDEST PUSH1 0x40 MLOAD PUSH1 0x20 DUP2 DUP4 SUB SUB DUP2 MSTORE SWAP1 PUSH1 0x40 MSTORE DUP1 MLOAD SWAP1 PUSH1 0x20 ADD KECCAK256 PUSH2 0x20D5 JUMP JUMPDEST DUP6 PUSH2 0x2101 JUMP JUMPDEST SWAP1 POP DUP1 PUSH2 0x14E2 JUMPI PUSH1 0x40 MLOAD PUSH4 0x94AB6C07 PUSH1 0xE0 SHL DUP2 MSTORE PUSH1 0x1 PUSH1 0x1 PUSH1 0xA0 SHL SUB DUP9 AND PUSH1 0x4 DUP3 ADD MSTORE PUSH1 0x24 ADD PUSH2 0xDED JUMP JUMPDEST PUSH2 0x1525 DUP10 DUP9 DUP11 DUP10 DUP10 DUP1 DUP1 PUSH1 0x1F ADD PUSH1 0x20 DUP1 SWAP2 DIV MUL PUSH1 0x20 ADD PUSH1 0x40 MLOAD SWAP1 DUP2 ADD PUSH1 0x40 MSTORE DUP1 SWAP4 SWAP3 SWAP2 SWAP1 DUP2 DUP2 MSTORE PUSH1 0x20 ADD DUP4 DUP4 DUP1 DUP3 DUP5 CALLDATACOPY PUSH0 SWAP3 ADD SWAP2 SWAP1 SWAP2 MSTORE POP DUP12 SWAP3 POP PUSH2 0x2156 SWAP2 POP POP JUMP JUMPDEST SWAP10 SWAP9 POP POP POP POP POP POP POP POP POP JUMP JUMPDEST PUSH0 DUP1 CALLER SWAP1 POP PUSH2 0x157A DUP8 DUP3 DUP9 DUP9 DUP9 DUP1 DUP1 PUSH1 0x1F ADD PUSH1 0x20 DUP1 SWAP2 DIV MUL PUSH1 0x20 ADD PUSH1 0x40 MLOAD SWAP1 DUP2 ADD PUSH1 0x40 MSTORE DUP1 SWAP4 SWAP3 SWAP2 SWAP1 DUP2 DUP2 MSTORE PUSH1 0x20 ADD DUP4 DUP4 DUP1 DUP3 DUP5 CALLDATACOPY PUSH0 SWAP3 ADD SWAP2 SWAP1 SWAP2 MSTORE POP DUP11 SWAP3 POP PUSH2 0x2156 SWAP2 POP POP JUMP JUMPDEST SWAP8 SWAP7 POP POP POP POP POP POP POP JUMP JUMPDEST PUSH1 0xC DUP1 SLOAD PUSH0 SWAP2 DUP3 SWAP1 PUSH2 0x1598 PUSH1 0x1 DUP5 PUSH2 0x4191 JUMP JUMPDEST DUP2 SLOAD DUP2 LT PUSH2 0x15A8 JUMPI PUSH2 0x15A8 PUSH2 0x40F2 JUMP JUMPDEST PUSH0 SWAP2 DUP3 MSTORE PUSH1 0x20 SWAP1 SWAP2 KECCAK256 ADD DUP1 SLOAD SWAP1 SWAP2 POP PUSH6 0xFFFFFFFFFFFF DUP2 AND SWAP1 PUSH1 0x1 PUSH1 0x30 SHL SWAP1 DIV PUSH1 0x1 PUSH1 0x1 PUSH1 0xD0 SHL SUB AND DUP6 DUP3 GT PUSH2 0x15EA JUMPI PUSH1 0x1 PUSH1 0x1 PUSH1 0xD0 SHL SUB AND SWAP6 SWAP5 POP POP POP POP POP JUMP JUMPDEST PUSH2 0x15FE PUSH2 0x15F6 DUP8 PUSH2 0x2230 JUMP JUMPDEST PUSH1 0xC SWAP1 PUSH2 0x2266 JUMP JUMPDEST PUSH1 0x1 PUSH1 0x1 PUSH1 0xD0 SHL SUB AND SWAP7 SWAP6 POP POP POP POP POP POP JUMP JUMPDEST PUSH2 0x1619 PUSH2 0x1D56 JUMP JUMPDEST PUSH2 0xB47 DUP2 PUSH2 0x2315 JUMP JUMPDEST PUSH0 DUP1 CALLER SWAP1 POP PUSH2 0x12E5 DUP7 DUP3 DUP8 DUP8 DUP8 DUP1 DUP1 PUSH1 0x1F ADD PUSH1 0x20 DUP1 SWAP2 DIV MUL PUSH1 0x20 ADD PUSH1 0x40 MLOAD SWAP1 DUP2 ADD PUSH1 0x40 MSTORE DUP1 SWAP4 SWAP3 SWAP2 SWAP1 DUP2 DUP2 MSTORE PUSH1 0x20 ADD DUP4 DUP4 DUP1 DUP3 DUP5 CALLDATACOPY PUSH0 SWAP3 ADD SWAP2 SWAP1 SWAP2 MSTORE POP PUSH2 0x20AB SWAP3 POP POP POP JUMP JUMPDEST PUSH0 CALLER PUSH2 0x1674 DUP2 DUP5 PUSH2 0x237B JUMP JUMPDEST PUSH2 0x169C JUMPI PUSH1 0x40 MLOAD PUSH4 0xD9B39557 PUSH1 0xE0 SHL DUP2 MSTORE PUSH1 0x1 PUSH1 0x1 PUSH1 0xA0 SHL SUB DUP3 AND PUSH1 0x4 DUP3 ADD MSTORE PUSH1 0x24 ADD PUSH2 0xDED JUMP JUMPDEST PUSH0 PUSH2 0x16C2 DUP3 PUSH1 0x1 PUSH2 0x16AB PUSH2 0x1833 JUMP JUMPDEST PUSH2 0x16B5 SWAP2 SWAP1 PUSH2 0x41A4 JUMP JUMPDEST PUSH6 0xFFFFFFFFFFFF AND PUSH2 0x1B83 JUMP JUMPDEST SWAP1 POP PUSH0 PUSH2 0x16CD PUSH2 0x18DF JUMP JUMPDEST SWAP1 POP DUP1 DUP3 LT ISZERO PUSH2 0x1709 JUMPI PUSH1 0x40 MLOAD PUSH4 0x6121770B PUSH1 0xE1 SHL DUP2 MSTORE PUSH1 0x1 PUSH1 0x1 PUSH1 0xA0 SHL SUB DUP5 AND PUSH1 0x4 DUP3 ADD MSTORE PUSH1 0x24 DUP2 ADD DUP4 SWAP1 MSTORE PUSH1 0x44 DUP2 ADD DUP3 SWAP1 MSTORE PUSH1 0x64 ADD PUSH2 0xDED JUMP JUMPDEST PUSH2 0x1716 DUP9 DUP9 DUP9 DUP9 DUP8 PUSH2 0x2463 JUMP JUMPDEST SWAP9 SWAP8 POP POP POP POP POP POP POP POP JUMP JUMPDEST PUSH0 PUSH1 0x60 DUP1 PUSH0 DUP1 PUSH0 PUSH1 0x60 PUSH2 0x1733 PUSH2 0x2471 JUMP JUMPDEST PUSH2 0x173B PUSH2 0x249D JUMP JUMPDEST PUSH1 0x40 DUP1 MLOAD PUSH0 DUP1 DUP3 MSTORE PUSH1 0x20 DUP3 ADD SWAP1 SWAP3 MSTORE PUSH1 0xF PUSH1 0xF8 SHL SWAP12 SWAP4 SWAP11 POP SWAP2 SWAP9 POP CHAINID SWAP8 POP ADDRESS SWAP7 POP SWAP5 POP SWAP3 POP SWAP1 POP JUMP JUMPDEST PUSH0 DUP1 PUSH2 0x17EE DUP5 PUSH2 0x14B1 PUSH32 0xF2AAD550CF55F045CB27E9C559F9889FDFB6E6CDAA032301D6EA397784AE51D7 DUP10 DUP10 DUP10 PUSH2 0x17B7 DUP12 PUSH1 0x1 PUSH1 0x1 PUSH1 0xA0 SHL SUB AND PUSH0 SWAP1 DUP2 MSTORE PUSH1 0x2 PUSH1 0x20 MSTORE PUSH1 0x40 SWAP1 KECCAK256 DUP1 SLOAD PUSH1 0x1 DUP2 ADD SWAP1 SWAP2 SSTORE SWAP1 JUMP JUMPDEST PUSH1 0x40 DUP1 MLOAD PUSH1 0x20 DUP2 ADD SWAP7 SWAP1 SWAP7 MSTORE DUP6 ADD SWAP4 SWAP1 SWAP4 MSTORE PUSH1 0xFF SWAP1 SWAP2 AND PUSH1 0x60 DUP5 ADD MSTORE PUSH1 0x1 PUSH1 0x1 PUSH1 0xA0 SHL SUB AND PUSH1 0x80 DUP4 ADD MSTORE PUSH1 0xA0 DUP3 ADD MSTORE PUSH1 0xC0 ADD PUSH2 0x1496 JUMP JUMPDEST SWAP1 POP DUP1 PUSH2 0x1819 JUMPI PUSH1 0x40 MLOAD PUSH4 0x94AB6C07 PUSH1 0xE0 SHL DUP2 MSTORE PUSH1 0x1 PUSH1 0x1 PUSH1 0xA0 SHL SUB DUP6 AND PUSH1 0x4 DUP3 ADD MSTORE PUSH1 0x24 ADD PUSH2 0xDED JUMP JUMPDEST PUSH2 0x12E5 DUP7 DUP6 DUP8 PUSH1 0x40 MLOAD DUP1 PUSH1 0x20 ADD PUSH1 0x40 MSTORE DUP1 PUSH0 DUP2 MSTORE POP PUSH2 0x20AB JUMP JUMPDEST PUSH0 PUSH32 0x0 PUSH1 0x1 PUSH1 0x1 PUSH1 0xA0 SHL SUB AND PUSH4 0x91DDADF4 PUSH1 0x40 MLOAD DUP2 PUSH4 0xFFFFFFFF AND PUSH1 0xE0 SHL DUP2 MSTORE PUSH1 0x4 ADD PUSH1 0x20 PUSH1 0x40 MLOAD DUP1 DUP4 SUB DUP2 DUP7 GAS STATICCALL SWAP3 POP POP POP DUP1 ISZERO PUSH2 0x18AE JUMPI POP PUSH1 0x40 DUP1 MLOAD PUSH1 0x1F RETURNDATASIZE SWAP1 DUP2 ADD PUSH1 0x1F NOT AND DUP3 ADD SWAP1 SWAP3 MSTORE PUSH2 0x18AB SWAP2 DUP2 ADD SWAP1 PUSH2 0x41CA JUMP JUMPDEST PUSH1 0x1 JUMPDEST PUSH2 0x13AA JUMPI PUSH2 0xB31 PUSH2 0x24CA JUMP JUMPDEST PUSH0 PUSH2 0x13CE DUP5 DUP5 DUP5 PUSH2 0x24D4 JUMP JUMPDEST PUSH0 PUSH2 0x18D1 PUSH1 0xC PUSH2 0x2567 JUMP JUMPDEST PUSH1 0x1 PUSH1 0x1 PUSH1 0xD0 SHL SUB AND SWAP1 POP SWAP1 JUMP JUMPDEST PUSH0 PUSH2 0xB31 PUSH1 0x7 SLOAD SWAP1 JUMP JUMPDEST PUSH0 DUP2 DUP2 MSTORE PUSH1 0x4 PUSH1 0x20 MSTORE PUSH1 0x40 DUP2 KECCAK256 SLOAD PUSH2 0x191D SWAP1 PUSH1 0x1 PUSH1 0xD0 SHL DUP2 DIV PUSH4 0xFFFFFFFF AND SWAP1 PUSH1 0x1 PUSH1 0xA0 SHL SWAP1 DIV PUSH6 0xFFFFFFFFFFFF AND PUSH2 0x41E5 JUMP JUMPDEST PUSH6 0xFFFFFFFFFFFF AND SWAP3 SWAP2 POP POP JUMP JUMPDEST PUSH2 0x1933 PUSH2 0x1D56 JUMP JUMPDEST PUSH0 DUP1 DUP6 PUSH1 0x1 PUSH1 0x1 PUSH1 0xA0 SHL SUB AND DUP6 DUP6 DUP6 PUSH1 0x40 MLOAD PUSH2 0x1950 SWAP3 SWAP2 SWAP1 PUSH2 0x416E JUMP JUMPDEST PUSH0 PUSH1 0x40 MLOAD DUP1 DUP4 SUB DUP2 DUP6 DUP8 GAS CALL SWAP3 POP POP POP RETURNDATASIZE DUP1 PUSH0 DUP2 EQ PUSH2 0x198A JUMPI PUSH1 0x40 MLOAD SWAP2 POP PUSH1 0x1F NOT PUSH1 0x3F RETURNDATASIZE ADD AND DUP3 ADD PUSH1 0x40 MSTORE RETURNDATASIZE DUP3 MSTORE RETURNDATASIZE PUSH0 PUSH1 0x20 DUP5 ADD RETURNDATACOPY PUSH2 0x198F JUMP JUMPDEST PUSH1 0x60 SWAP2 POP JUMPDEST POP SWAP2 POP SWAP2 POP PUSH2 0x199E DUP3 DUP3 PUSH2 0x259E JUMP JUMPDEST POP POP POP POP POP POP POP JUMP JUMPDEST PUSH0 DUP5 DUP5 DUP5 DUP5 PUSH1 0x40 MLOAD PUSH1 0x20 ADD PUSH2 0x19BF SWAP5 SWAP4 SWAP3 SWAP2 SWAP1 PUSH2 0x3A4E JUMP JUMPDEST PUSH1 0x40 DUP1 MLOAD PUSH1 0x1F NOT DUP2 DUP5 SUB ADD DUP2 MSTORE SWAP2 SWAP1 MSTORE DUP1 MLOAD PUSH1 0x20 SWAP1 SWAP2 ADD KECCAK256 SWAP6 SWAP5 POP POP POP POP POP JUMP JUMPDEST PUSH0 DUP2 DUP2 MSTORE PUSH1 0xB PUSH1 0x20 SWAP1 DUP2 MSTORE PUSH1 0x40 SWAP2 DUP3 SWAP1 KECCAK256 DUP1 SLOAD DUP4 MLOAD DUP2 DUP5 MUL DUP2 ADD DUP5 ADD SWAP1 SWAP5 MSTORE DUP1 DUP5 MSTORE SWAP1 SWAP3 PUSH2 0x127E SWAP3 SWAP1 SWAP2 DUP5 SWAP2 DUP4 ADD DUP3 DUP3 DUP1 ISZERO PUSH2 0x1A43 JUMPI PUSH1 0x20 MUL DUP3 ADD SWAP2 SWAP1 PUSH0 MSTORE PUSH1 0x20 PUSH0 KECCAK256 SWAP1 JUMPDEST DUP2 SLOAD PUSH1 0x1 PUSH1 0x1 PUSH1 0xA0 SHL SUB AND DUP2 MSTORE PUSH1 0x1 SWAP1 SWAP2 ADD SWAP1 PUSH1 0x20 ADD DUP1 DUP4 GT PUSH2 0x1A25 JUMPI JUMPDEST POP POP POP POP POP DUP3 PUSH1 0x1 ADD DUP1 SLOAD DUP1 PUSH1 0x20 MUL PUSH1 0x20 ADD PUSH1 0x40 MLOAD SWAP1 DUP2 ADD PUSH1 0x40 MSTORE DUP1 SWAP3 SWAP2 SWAP1 DUP2 DUP2 MSTORE PUSH1 0x20 ADD DUP3 DUP1 SLOAD DUP1 ISZERO PUSH2 0x1A94 JUMPI PUSH1 0x20 MUL DUP3 ADD SWAP2 SWAP1 PUSH0 MSTORE PUSH1 0x20 PUSH0 KECCAK256 SWAP1 JUMPDEST DUP2 SLOAD DUP2 MSTORE PUSH1 0x20 ADD SWAP1 PUSH1 0x1 ADD SWAP1 DUP1 DUP4 GT PUSH2 0x1A80 JUMPI JUMPDEST POP POP POP POP POP DUP4 PUSH1 0x2 ADD DUP1 SLOAD DUP1 PUSH1 0x20 MUL PUSH1 0x20 ADD PUSH1 0x40 MLOAD SWAP1 DUP2 ADD PUSH1 0x40 MSTORE DUP1 SWAP3 SWAP2 SWAP1 DUP2 DUP2 MSTORE PUSH1 0x20 ADD PUSH0 SWAP1 JUMPDEST DUP3 DUP3 LT ISZERO PUSH2 0x1B64 JUMPI DUP4 DUP3 SWAP1 PUSH0 MSTORE PUSH1 0x20 PUSH0 KECCAK256 ADD DUP1 SLOAD PUSH2 0x1AD9 SWAP1 PUSH2 0x40BA JUMP JUMPDEST DUP1 PUSH1 0x1F ADD PUSH1 0x20 DUP1 SWAP2 DIV MUL PUSH1 0x20 ADD PUSH1 0x40 MLOAD SWAP1 DUP2 ADD PUSH1 0x40 MSTORE DUP1 SWAP3 SWAP2 SWAP1 DUP2 DUP2 MSTORE PUSH1 0x20 ADD DUP3 DUP1 SLOAD PUSH2 0x1B05 SWAP1 PUSH2 0x40BA JUMP JUMPDEST DUP1 ISZERO PUSH2 0x1B50 JUMPI DUP1 PUSH1 0x1F LT PUSH2 0x1B27 JUMPI PUSH2 0x100 DUP1 DUP4 SLOAD DIV MUL DUP4 MSTORE SWAP2 PUSH1 0x20 ADD SWAP2 PUSH2 0x1B50 JUMP JUMPDEST DUP3 ADD SWAP2 SWAP1 PUSH0 MSTORE PUSH1 0x20 PUSH0 KECCAK256 SWAP1 JUMPDEST DUP2 SLOAD DUP2 MSTORE SWAP1 PUSH1 0x1 ADD SWAP1 PUSH1 0x20 ADD DUP1 DUP4 GT PUSH2 0x1B33 JUMPI DUP3 SWAP1 SUB PUSH1 0x1F AND DUP3 ADD SWAP2 JUMPDEST POP POP POP POP POP DUP2 MSTORE PUSH1 0x20 ADD SWAP1 PUSH1 0x1 ADD SWAP1 PUSH2 0x1ABC JUMP JUMPDEST POP POP POP POP DUP5 PUSH1 0x3 ADD SLOAD PUSH2 0xBDA JUMP JUMPDEST PUSH2 0x1B7A PUSH2 0x1D56 JUMP JUMPDEST PUSH2 0xB47 DUP2 PUSH2 0x25BA JUMP JUMPDEST PUSH0 PUSH2 0x1BA2 DUP4 DUP4 PUSH2 0x1B9D PUSH1 0x40 DUP1 MLOAD PUSH1 0x20 DUP2 ADD SWAP1 SWAP2 MSTORE PUSH0 DUP2 MSTORE SWAP1 JUMP JUMPDEST PUSH2 0x24D4 JUMP JUMPDEST SWAP4 SWAP3 POP POP POP JUMP JUMPDEST PUSH2 0x1BB1 PUSH2 0x1D56 JUMP JUMPDEST PUSH2 0xB47 DUP2 PUSH2 0x2656 JUMP JUMPDEST PUSH0 PUSH2 0xB2B DUP3 PUSH2 0x2697 JUMP JUMPDEST PUSH0 DUP2 DUP2 MSTORE PUSH1 0xB PUSH1 0x20 SWAP1 DUP2 MSTORE PUSH1 0x40 SWAP2 DUP3 SWAP1 KECCAK256 DUP1 SLOAD DUP4 MLOAD DUP2 DUP5 MUL DUP2 ADD DUP5 ADD SWAP1 SWAP5 MSTORE DUP1 DUP5 MSTORE SWAP1 SWAP3 PUSH2 0x127E SWAP3 SWAP1 SWAP2 DUP5 SWAP2 DUP4 ADD DUP3 DUP3 DUP1 ISZERO PUSH2 0x1C27 JUMPI PUSH1 0x20 MUL DUP3 ADD SWAP2 SWAP1 PUSH0 MSTORE PUSH1 0x20 PUSH0 KECCAK256 SWAP1 JUMPDEST DUP2 SLOAD PUSH1 0x1 PUSH1 0x1 PUSH1 0xA0 SHL SUB AND DUP2 MSTORE PUSH1 0x1 SWAP1 SWAP2 ADD SWAP1 PUSH1 0x20 ADD DUP1 DUP4 GT PUSH2 0x1C09 JUMPI JUMPDEST POP POP POP POP POP DUP3 PUSH1 0x1 ADD DUP1 SLOAD DUP1 PUSH1 0x20 MUL PUSH1 0x20 ADD PUSH1 0x40 MLOAD SWAP1 DUP2 ADD PUSH1 0x40 MSTORE DUP1 SWAP3 SWAP2 SWAP1 DUP2 DUP2 MSTORE PUSH1 0x20 ADD DUP3 DUP1 SLOAD DUP1 ISZERO PUSH2 0x1C78 JUMPI PUSH1 0x20 MUL DUP3 ADD SWAP2 SWAP1 PUSH0 MSTORE PUSH1 0x20 PUSH0 KECCAK256 SWAP1 JUMPDEST DUP2 SLOAD DUP2 MSTORE PUSH1 0x20 ADD SWAP1 PUSH1 0x1 ADD SWAP1 DUP1 DUP4 GT PUSH2 0x1C64 JUMPI JUMPDEST POP POP POP POP POP DUP4 PUSH1 0x2 ADD DUP1 SLOAD DUP1 PUSH1 0x20 MUL PUSH1 0x20 ADD PUSH1 0x40 MLOAD SWAP1 DUP2 ADD PUSH1 0x40 MSTORE DUP1 SWAP3 SWAP2 SWAP1 DUP2 DUP2 MSTORE PUSH1 0x20 ADD PUSH0 SWAP1 JUMPDEST DUP3 DUP3 LT ISZERO PUSH2 0x1D48 JUMPI DUP4 DUP3 SWAP1 PUSH0 MSTORE PUSH1 0x20 PUSH0 KECCAK256 ADD DUP1 SLOAD PUSH2 0x1CBD SWAP1 PUSH2 0x40BA JUMP JUMPDEST DUP1 PUSH1 0x1F ADD PUSH1 0x20 DUP1 SWAP2 DIV MUL PUSH1 0x20 ADD PUSH1 0x40 MLOAD SWAP1 DUP2 ADD PUSH1 0x40 MSTORE DUP1 SWAP3 SWAP2 SWAP1 DUP2 DUP2 MSTORE PUSH1 0x20 ADD DUP3 DUP1 SLOAD PUSH2 0x1CE9 SWAP1 PUSH2 0x40BA JUMP JUMPDEST DUP1 ISZERO PUSH2 0x1D34 JUMPI DUP1 PUSH1 0x1F LT PUSH2 0x1D0B JUMPI PUSH2 0x100 DUP1 DUP4 SLOAD DIV MUL DUP4 MSTORE SWAP2 PUSH1 0x20 ADD SWAP2 PUSH2 0x1D34 JUMP JUMPDEST DUP3 ADD SWAP2 SWAP1 PUSH0 MSTORE PUSH1 0x20 PUSH0 KECCAK256 SWAP1 JUMPDEST DUP2 SLOAD DUP2 MSTORE SWAP1 PUSH1 0x1 ADD SWAP1 PUSH1 0x20 ADD DUP1 DUP4 GT PUSH2 0x1D17 JUMPI DUP3 SWAP1 SUB PUSH1 0x1F AND DUP3 ADD SWAP2 JUMPDEST POP POP POP POP POP DUP2 MSTORE PUSH1 0x20 ADD SWAP1 PUSH1 0x1 ADD SWAP1 PUSH2 0x1CA0 JUMP JUMPDEST POP POP POP POP DUP5 PUSH1 0x3 ADD SLOAD PUSH2 0xE17 JUMP JUMPDEST ADDRESS CALLER EQ PUSH2 0x1D78 JUMPI PUSH1 0x40 MLOAD PUSH4 0x47096E47 PUSH1 0xE0 SHL DUP2 MSTORE CALLER PUSH1 0x4 DUP3 ADD MSTORE PUSH1 0x24 ADD PUSH2 0xDED JUMP JUMPDEST JUMP JUMPDEST DUP1 PUSH2 0x1D85 PUSH1 0x5 PUSH2 0x273E JUMP JUMPDEST SUB PUSH2 0x1D7A JUMPI POP JUMP JUMPDEST PUSH1 0x64 DUP1 DUP3 GT ISZERO PUSH2 0x1DBA JUMPI PUSH1 0x40 MLOAD PUSH4 0x243E5445 PUSH1 0xE0 SHL DUP2 MSTORE PUSH1 0x4 DUP2 ADD DUP4 SWAP1 MSTORE PUSH1 0x24 DUP2 ADD DUP3 SWAP1 MSTORE PUSH1 0x44 ADD PUSH2 0xDED JUMP JUMPDEST PUSH0 PUSH2 0x1DC3 PUSH2 0x18C6 JUMP JUMPDEST SWAP1 POP PUSH2 0x1DE2 PUSH2 0x1DD0 PUSH2 0x1833 JUMP JUMPDEST PUSH2 0x1DD9 DUP6 PUSH2 0x27BA JUMP JUMPDEST PUSH1 0xC SWAP2 SWAP1 PUSH2 0x27ED JUMP JUMPDEST POP POP PUSH1 0x40 DUP1 MLOAD DUP3 DUP2 MSTORE PUSH1 0x20 DUP2 ADD DUP6 SWAP1 MSTORE PUSH32 0x553476BF02EF2726E8CE5CED78D63E26E602E4A2257B1F559418E24B4633997 SWAP2 ADD PUSH1 0x40 MLOAD DUP1 SWAP2 SUB SWAP1 LOG1 POP POP POP JUMP JUMPDEST PUSH0 DUP2 PUSH1 0x7 DUP2 GT ISZERO PUSH2 0x1E35 JUMPI PUSH2 0x1E35 PUSH2 0x3AE9 JUMP JUMPDEST PUSH1 0x1 PUSH1 0xFF SWAP2 SWAP1 SWAP2 AND SHL SWAP3 SWAP2 POP POP JUMP JUMPDEST PUSH0 DUP1 PUSH2 0x1E4F DUP5 PUSH2 0xFBB JUMP JUMPDEST SWAP1 POP PUSH0 DUP4 PUSH2 0x1E5C DUP4 PUSH2 0x1E22 JUMP JUMPDEST AND SUB PUSH2 0x1BA2 JUMPI DUP4 DUP2 DUP5 PUSH1 0x40 MLOAD PUSH4 0x31B75E4D PUSH1 0xE0 SHL DUP2 MSTORE PUSH1 0x4 ADD PUSH2 0xDED SWAP4 SWAP3 SWAP2 SWAP1 PUSH2 0x4204 JUMP JUMPDEST DUP2 SLOAD PUSH1 0x1 PUSH1 0x1 PUSH1 0x80 SHL SUB PUSH1 0x1 PUSH1 0x80 SHL DUP3 DIV DUP2 AND SWAP2 DUP2 AND PUSH1 0x1 DUP4 ADD SWAP1 SWAP2 AND SUB PUSH2 0x1EBC JUMPI PUSH1 0x40 MLOAD PUSH4 0x8ACB5F27 PUSH1 0xE0 SHL DUP2 MSTORE PUSH1 0x4 ADD PUSH1 0x40 MLOAD DUP1 SWAP2 SUB SWAP1 REVERT JUMPDEST PUSH1 0x1 PUSH1 0x1 PUSH1 0x80 SHL SUB DUP1 DUP3 AND PUSH0 SWAP1 DUP2 MSTORE PUSH1 0x1 DUP1 DUP7 ADD PUSH1 0x20 MSTORE PUSH1 0x40 SWAP1 SWAP2 KECCAK256 SWAP4 SWAP1 SWAP4 SSTORE DUP4 SLOAD SWAP2 SWAP1 SWAP3 ADD DUP3 AND PUSH1 0x1 PUSH1 0x80 SHL MUL SWAP2 AND OR SWAP1 SSTORE JUMP JUMPDEST PUSH0 JUMPDEST DUP5 MLOAD DUP2 LT ISZERO PUSH2 0x1FBE JUMPI PUSH0 DUP1 DUP7 DUP4 DUP2 MLOAD DUP2 LT PUSH2 0x1F10 JUMPI PUSH2 0x1F10 PUSH2 0x40F2 JUMP JUMPDEST PUSH1 0x20 MUL PUSH1 0x20 ADD ADD MLOAD PUSH1 0x1 PUSH1 0x1 PUSH1 0xA0 SHL SUB AND DUP7 DUP5 DUP2 MLOAD DUP2 LT PUSH2 0x1F33 JUMPI PUSH2 0x1F33 PUSH2 0x40F2 JUMP JUMPDEST PUSH1 0x20 MUL PUSH1 0x20 ADD ADD MLOAD DUP7 DUP6 DUP2 MLOAD DUP2 LT PUSH2 0x1F4D JUMPI PUSH2 0x1F4D PUSH2 0x40F2 JUMP JUMPDEST PUSH1 0x20 MUL PUSH1 0x20 ADD ADD MLOAD PUSH1 0x40 MLOAD PUSH2 0x1F62 SWAP2 SWAP1 PUSH2 0x4226 JUMP JUMPDEST PUSH0 PUSH1 0x40 MLOAD DUP1 DUP4 SUB DUP2 DUP6 DUP8 GAS CALL SWAP3 POP POP POP RETURNDATASIZE DUP1 PUSH0 DUP2 EQ PUSH2 0x1F9C JUMPI PUSH1 0x40 MLOAD SWAP2 POP PUSH1 0x1F NOT PUSH1 0x3F RETURNDATASIZE ADD AND DUP3 ADD PUSH1 0x40 MSTORE RETURNDATASIZE DUP3 MSTORE RETURNDATASIZE PUSH0 PUSH1 0x20 DUP5 ADD RETURNDATACOPY PUSH2 0x1FA1 JUMP JUMPDEST PUSH1 0x60 SWAP2 POP JUMPDEST POP SWAP2 POP SWAP2 POP PUSH2 0x1FB0 DUP3 DUP3 PUSH2 0x259E JUMP JUMPDEST POP POP POP DUP1 PUSH1 0x1 ADD SWAP1 POP PUSH2 0x1EF3 JUMP JUMPDEST POP POP POP POP POP POP JUMP JUMPDEST PUSH0 DUP2 DUP2 MSTORE PUSH1 0x9 PUSH1 0x20 MSTORE PUSH1 0x40 DUP2 KECCAK256 PUSH1 0x2 DUP2 ADD SLOAD PUSH1 0x1 DUP3 ADD SLOAD PUSH2 0x1FE7 SWAP2 SWAP1 PUSH2 0x4241 JUMP JUMPDEST PUSH2 0x1FF3 PUSH2 0xA96 DUP6 PUSH2 0xF3F JUMP JUMPDEST GT ISZERO SWAP4 SWAP3 POP POP POP JUMP JUMPDEST PUSH0 DUP1 PUSH2 0x200A DUP7 DUP7 DUP7 DUP7 PUSH2 0x19A7 JUMP JUMPDEST SWAP1 POP PUSH2 0x2058 DUP2 PUSH2 0x201A PUSH1 0x7 PUSH2 0x1E22 JUMP JUMPDEST PUSH2 0x2024 PUSH1 0x6 PUSH2 0x1E22 JUMP JUMPDEST PUSH2 0x202E PUSH1 0x2 PUSH2 0x1E22 JUMP JUMPDEST PUSH1 0x1 PUSH2 0x203B PUSH1 0x7 DUP3 PUSH2 0x4254 JUMP JUMPDEST PUSH2 0x2046 SWAP1 PUSH1 0x2 PUSH2 0x434D JUMP JUMPDEST PUSH2 0x2050 SWAP2 SWAP1 PUSH2 0x4191 JUMP JUMPDEST XOR XOR XOR PUSH2 0x1E44 JUMP JUMPDEST POP PUSH0 DUP2 DUP2 MSTORE PUSH1 0x4 PUSH1 0x20 MSTORE PUSH1 0x40 SWAP1 DUP2 SWAP1 KECCAK256 DUP1 SLOAD PUSH1 0x1 PUSH1 0x1 PUSH1 0xF8 SHL SUB AND PUSH1 0x1 PUSH1 0xF8 SHL OR SWAP1 SSTORE MLOAD PUSH32 0x789CF55BE980739DAD1D0699B93B58E806B51C9D96619BFA8FE0A28ABAA7B30C SWAP1 PUSH2 0xF2E SWAP1 DUP4 DUP2 MSTORE PUSH1 0x20 ADD SWAP1 JUMP JUMPDEST PUSH0 PUSH2 0x20CC DUP6 DUP6 DUP6 DUP6 PUSH2 0x20C7 PUSH1 0x40 DUP1 MLOAD PUSH1 0x20 DUP2 ADD SWAP1 SWAP2 MSTORE PUSH0 DUP2 MSTORE SWAP1 JUMP JUMPDEST PUSH2 0x2156 JUMP JUMPDEST SWAP6 SWAP5 POP POP POP POP POP JUMP JUMPDEST PUSH0 PUSH2 0xB2B PUSH2 0x20E1 PUSH2 0x2807 JUMP JUMPDEST DUP4 PUSH1 0x40 MLOAD PUSH2 0x1901 PUSH1 0xF0 SHL DUP2 MSTORE PUSH1 0x2 DUP2 ADD SWAP3 SWAP1 SWAP3 MSTORE PUSH1 0x22 DUP3 ADD MSTORE PUSH1 0x42 SWAP1 KECCAK256 SWAP1 JUMP JUMPDEST PUSH0 DUP1 PUSH0 PUSH2 0x210E DUP6 DUP6 PUSH2 0x2930 JUMP JUMPDEST POP SWAP1 SWAP3 POP SWAP1 POP PUSH0 DUP2 PUSH1 0x3 DUP2 GT ISZERO PUSH2 0x2127 JUMPI PUSH2 0x2127 PUSH2 0x3AE9 JUMP JUMPDEST EQ DUP1 ISZERO PUSH2 0x2145 JUMPI POP DUP6 PUSH1 0x1 PUSH1 0x1 PUSH1 0xA0 SHL SUB AND DUP3 PUSH1 0x1 PUSH1 0x1 PUSH1 0xA0 SHL SUB AND EQ JUMPDEST DUP1 PUSH2 0x12E5 JUMPI POP PUSH2 0x12E5 DUP7 DUP7 DUP7 PUSH2 0x2979 JUMP JUMPDEST PUSH0 PUSH2 0x2165 DUP7 PUSH2 0xBF8 PUSH1 0x1 PUSH2 0x1E22 JUMP JUMPDEST POP PUSH0 PUSH2 0x217A DUP7 PUSH2 0x2174 DUP10 PUSH2 0xF3F JUMP JUMPDEST DUP6 PUSH2 0x24D4 JUMP JUMPDEST SWAP1 POP PUSH2 0x2189 DUP8 DUP8 DUP8 DUP5 DUP8 PUSH2 0x2A4F JUMP JUMPDEST DUP3 MLOAD PUSH0 SUB PUSH2 0x21DD JUMPI DUP6 PUSH1 0x1 PUSH1 0x1 PUSH1 0xA0 SHL SUB AND PUSH32 0xB8E138887D0AA13BAB447E82DE9D5C1777041ECD21CA36BA824FF1E6C07DDDA4 DUP9 DUP8 DUP5 DUP9 PUSH1 0x40 MLOAD PUSH2 0x21D0 SWAP5 SWAP4 SWAP3 SWAP2 SWAP1 PUSH2 0x435B JUMP JUMPDEST PUSH1 0x40 MLOAD DUP1 SWAP2 SUB SWAP1 LOG2 PUSH2 0x12E5 JUMP JUMPDEST DUP6 PUSH1 0x1 PUSH1 0x1 PUSH1 0xA0 SHL SUB AND PUSH32 0xE2BABFBAC5889A709B63BB7F598B324E08BC5A4FB9EC647FB3CBC9EC07EB8712 DUP9 DUP8 DUP5 DUP9 DUP9 PUSH1 0x40 MLOAD PUSH2 0x221E SWAP6 SWAP5 SWAP4 SWAP3 SWAP2 SWAP1 PUSH2 0x4382 JUMP JUMPDEST PUSH1 0x40 MLOAD DUP1 SWAP2 SUB SWAP1 LOG2 SWAP7 SWAP6 POP POP POP POP POP POP JUMP JUMPDEST PUSH0 PUSH6 0xFFFFFFFFFFFF DUP3 GT ISZERO PUSH2 0x2262 JUMPI PUSH1 0x40 MLOAD PUSH4 0x6DFCC65 PUSH1 0xE4 SHL DUP2 MSTORE PUSH1 0x30 PUSH1 0x4 DUP3 ADD MSTORE PUSH1 0x24 DUP2 ADD DUP4 SWAP1 MSTORE PUSH1 0x44 ADD PUSH2 0xDED JUMP JUMPDEST POP SWAP1 JUMP JUMPDEST DUP2 SLOAD PUSH0 SWAP1 DUP2 DUP2 PUSH1 0x5 DUP2 GT ISZERO PUSH2 0x22C2 JUMPI PUSH0 PUSH2 0x227F DUP5 PUSH2 0x2B41 JUMP JUMPDEST PUSH2 0x2289 SWAP1 DUP6 PUSH2 0x4191 JUMP JUMPDEST PUSH0 DUP9 DUP2 MSTORE PUSH1 0x20 SWAP1 KECCAK256 SWAP1 SWAP2 POP DUP2 ADD SLOAD PUSH6 0xFFFFFFFFFFFF SWAP1 DUP2 AND SWAP1 DUP8 AND LT ISZERO PUSH2 0x22B2 JUMPI DUP1 SWAP2 POP PUSH2 0x22C0 JUMP JUMPDEST PUSH2 0x22BD DUP2 PUSH1 0x1 PUSH2 0x4241 JUMP JUMPDEST SWAP3 POP JUMPDEST POP JUMPDEST PUSH0 PUSH2 0x22CF DUP8 DUP8 DUP6 DUP6 PUSH2 0x2C25 JUMP JUMPDEST SWAP1 POP DUP1 ISZERO PUSH2 0x2309 JUMPI PUSH2 0x22F3 DUP8 PUSH2 0x22E6 PUSH1 0x1 DUP5 PUSH2 0x4191 JUMP JUMPDEST PUSH0 SWAP2 DUP3 MSTORE PUSH1 0x20 SWAP1 SWAP2 KECCAK256 ADD SWAP1 JUMP JUMPDEST SLOAD PUSH1 0x1 PUSH1 0x30 SHL SWAP1 DIV PUSH1 0x1 PUSH1 0x1 PUSH1 0xD0 SHL SUB AND PUSH2 0x157A JUMP JUMPDEST PUSH0 SWAP8 SWAP7 POP POP POP POP POP POP POP JUMP JUMPDEST PUSH1 0x8 SLOAD PUSH1 0x40 DUP1 MLOAD PUSH6 0xFFFFFFFFFFFF SWAP3 DUP4 AND DUP2 MSTORE SWAP2 DUP4 AND PUSH1 0x20 DUP4 ADD MSTORE PUSH32 0xC565B045403DC03C2EEA82B81A0465EDAD9E2E7FC4D97E11421C209DA93D7A93 SWAP2 ADD PUSH1 0x40 MLOAD DUP1 SWAP2 SUB SWAP1 LOG1 PUSH1 0x8 DUP1 SLOAD PUSH6 0xFFFFFFFFFFFF NOT AND PUSH6 0xFFFFFFFFFFFF SWAP3 SWAP1 SWAP3 AND SWAP2 SWAP1 SWAP2 OR SWAP1 SSTORE JUMP JUMPDEST DUP1 MLOAD PUSH0 SWAP1 PUSH1 0x34 DUP2 LT ISZERO PUSH2 0x2392 JUMPI PUSH1 0x1 SWAP2 POP POP PUSH2 0xB2B JUMP JUMPDEST DUP3 DUP2 ADD PUSH1 0x13 NOT ADD MLOAD PUSH1 0x1 PUSH1 0x1 PUSH1 0xA0 SHL SUB NOT DUP2 AND PUSH12 0x46E0E4DEE0DEE6CAE47A60F PUSH1 0xA3 SHL EQ PUSH2 0x23C5 JUMPI PUSH1 0x1 SWAP3 POP POP POP PUSH2 0xB2B JUMP JUMPDEST PUSH0 DUP1 PUSH2 0x23D2 PUSH1 0x28 DUP6 PUSH2 0x4191 JUMP JUMPDEST SWAP1 POP JUMPDEST DUP4 DUP2 LT ISZERO PUSH2 0x2442 JUMPI PUSH0 DUP1 PUSH2 0x2408 DUP9 DUP5 DUP2 MLOAD DUP2 LT PUSH2 0x23F4 JUMPI PUSH2 0x23F4 PUSH2 0x40F2 JUMP JUMPDEST ADD PUSH1 0x20 ADD MLOAD PUSH1 0x1 PUSH1 0x1 PUSH1 0xF8 SHL SUB NOT AND PUSH2 0x2C84 JUMP JUMPDEST SWAP2 POP SWAP2 POP DUP2 PUSH2 0x2420 JUMPI PUSH1 0x1 SWAP7 POP POP POP POP POP POP POP PUSH2 0xB2B JUMP JUMPDEST DUP1 PUSH1 0xFF AND PUSH1 0x4 DUP6 PUSH1 0x1 PUSH1 0x1 PUSH1 0xA0 SHL SUB AND SWAP1 SHL OR SWAP4 POP POP POP DUP1 PUSH1 0x1 ADD SWAP1 POP PUSH2 0x23D5 JUMP JUMPDEST POP DUP6 PUSH1 0x1 PUSH1 0x1 PUSH1 0xA0 SHL SUB AND DUP2 PUSH1 0x1 PUSH1 0x1 PUSH1 0xA0 SHL SUB AND EQ SWAP4 POP POP POP POP SWAP3 SWAP2 POP POP JUMP JUMPDEST PUSH0 PUSH2 0x12E5 DUP7 DUP7 DUP7 DUP7 DUP7 PUSH2 0x2D14 JUMP JUMPDEST PUSH1 0x60 PUSH2 0xB31 PUSH32 0x0 PUSH0 PUSH2 0x2DED JUMP JUMPDEST PUSH1 0x60 PUSH2 0xB31 PUSH32 0x0 PUSH1 0x1 PUSH2 0x2DED JUMP JUMPDEST PUSH0 PUSH2 0xB31 NUMBER PUSH2 0x2230 JUMP JUMPDEST PUSH0 PUSH32 0x0 PUSH1 0x40 MLOAD PUSH4 0x748D635 PUSH1 0xE3 SHL DUP2 MSTORE PUSH1 0x1 PUSH1 0x1 PUSH1 0xA0 SHL SUB DUP7 DUP2 AND PUSH1 0x4 DUP4 ADD MSTORE PUSH1 0x24 DUP3 ADD DUP7 SWAP1 MSTORE SWAP2 SWAP1 SWAP2 AND SWAP1 PUSH4 0x3A46B1A8 SWAP1 PUSH1 0x44 ADD PUSH1 0x20 PUSH1 0x40 MLOAD DUP1 DUP4 SUB DUP2 DUP7 GAS STATICCALL ISZERO DUP1 ISZERO PUSH2 0x2543 JUMPI RETURNDATASIZE PUSH0 DUP1 RETURNDATACOPY RETURNDATASIZE PUSH0 REVERT JUMPDEST POP POP POP POP PUSH1 0x40 MLOAD RETURNDATASIZE PUSH1 0x1F NOT PUSH1 0x1F DUP3 ADD AND DUP3 ADD DUP1 PUSH1 0x40 MSTORE POP DUP2 ADD SWAP1 PUSH2 0x13CE SWAP2 SWAP1 PUSH2 0x43BB JUMP JUMPDEST DUP1 SLOAD PUSH0 SWAP1 DUP1 ISZERO PUSH2 0x2596 JUMPI PUSH2 0x2580 DUP4 PUSH2 0x22E6 PUSH1 0x1 DUP5 PUSH2 0x4191 JUMP JUMPDEST SLOAD PUSH1 0x1 PUSH1 0x30 SHL SWAP1 DIV PUSH1 0x1 PUSH1 0x1 PUSH1 0xD0 SHL SUB AND PUSH2 0x1BA2 JUMP JUMPDEST PUSH0 SWAP4 SWAP3 POP POP POP JUMP JUMPDEST PUSH1 0x60 DUP3 PUSH2 0x25B3 JUMPI PUSH2 0x25AE DUP3 PUSH2 0x2E96 JUMP JUMPDEST PUSH2 0xB2B JUMP JUMPDEST POP DUP1 PUSH2 0xB2B JUMP JUMPDEST DUP1 PUSH4 0xFFFFFFFF AND PUSH0 SUB PUSH2 0x25E2 JUMPI PUSH1 0x40 MLOAD PUSH4 0xF1CFBF05 PUSH1 0xE0 SHL DUP2 MSTORE PUSH0 PUSH1 0x4 DUP3 ADD MSTORE PUSH1 0x24 ADD PUSH2 0xDED JUMP JUMPDEST PUSH1 0x8 SLOAD PUSH1 0x40 DUP1 MLOAD PUSH4 0xFFFFFFFF PUSH1 0x1 PUSH1 0x30 SHL SWAP1 SWAP4 DIV DUP4 AND DUP2 MSTORE SWAP2 DUP4 AND PUSH1 0x20 DUP4 ADD MSTORE PUSH32 0x7E3F7F0708A84DE9203036ABAA450DCCC85AD5FF52F78C170F3EDB55CF5E8828 SWAP2 ADD PUSH1 0x40 MLOAD DUP1 SWAP2 SUB SWAP1 LOG1 PUSH1 0x8 DUP1 SLOAD PUSH4 0xFFFFFFFF SWAP1 SWAP3 AND PUSH1 0x1 PUSH1 0x30 SHL MUL PUSH10 0xFFFFFFFF000000000000 NOT SWAP1 SWAP3 AND SWAP2 SWAP1 SWAP2 OR SWAP1 SSTORE JUMP JUMPDEST PUSH1 0x7 SLOAD PUSH1 0x40 DUP1 MLOAD SWAP2 DUP3 MSTORE PUSH1 0x20 DUP3 ADD DUP4 SWAP1 MSTORE PUSH32 0xCCB45DA8D5717E6C4544694297C4BA5CF151D455C9BB0ED4FC7A38411BC05461 SWAP2 ADD PUSH1 0x40 MLOAD DUP1 SWAP2 SUB SWAP1 LOG1 PUSH1 0x7 SSTORE JUMP JUMPDEST PUSH0 PUSH1 0x64 PUSH2 0x26A3 DUP4 PUSH2 0x1585 JUMP JUMPDEST PUSH1 0x40 MLOAD PUSH4 0x2394E7A3 PUSH1 0xE2 SHL DUP2 MSTORE PUSH1 0x4 DUP2 ADD DUP6 SWAP1 MSTORE PUSH1 0x1 PUSH1 0x1 PUSH1 0xA0 SHL SUB PUSH32 0x0 AND SWAP1 PUSH4 0x8E539E8C SWAP1 PUSH1 0x24 ADD PUSH1 0x20 PUSH1 0x40 MLOAD DUP1 DUP4 SUB DUP2 DUP7 GAS STATICCALL ISZERO DUP1 ISZERO PUSH2 0x2706 JUMPI RETURNDATASIZE PUSH0 DUP1 RETURNDATACOPY RETURNDATASIZE PUSH0 REVERT JUMPDEST POP POP POP POP PUSH1 0x40 MLOAD RETURNDATASIZE PUSH1 0x1F NOT PUSH1 0x1F DUP3 ADD AND DUP3 ADD DUP1 PUSH1 0x40 MSTORE POP DUP2 ADD SWAP1 PUSH2 0x272A SWAP2 SWAP1 PUSH2 0x43BB JUMP JUMPDEST PUSH2 0x2734 SWAP2 SWAP1 PUSH2 0x43D2 JUMP JUMPDEST PUSH2 0xB2B SWAP2 SWAP1 PUSH2 0x43FD JUMP JUMPDEST DUP1 SLOAD PUSH0 SWAP1 PUSH1 0x1 PUSH1 0x1 PUSH1 0x80 SHL SUB DUP1 DUP3 AND SWAP2 PUSH1 0x1 PUSH1 0x80 SHL SWAP1 DIV AND DUP2 SUB PUSH2 0x2775 JUMPI PUSH1 0x40 MLOAD PUSH4 0x75E52F4F PUSH1 0xE0 SHL DUP2 MSTORE PUSH1 0x4 ADD PUSH1 0x40 MLOAD DUP1 SWAP2 SUB SWAP1 REVERT JUMPDEST PUSH1 0x1 PUSH1 0x1 PUSH1 0x80 SHL SUB DUP2 DUP2 AND PUSH0 SWAP1 DUP2 MSTORE PUSH1 0x1 DUP6 DUP2 ADD PUSH1 0x20 MSTORE PUSH1 0x40 DUP3 KECCAK256 DUP1 SLOAD SWAP3 SWAP1 SSTORE DUP6 SLOAD PUSH16 0xFFFFFFFFFFFFFFFFFFFFFFFFFFFFFFFF NOT AND SWAP4 ADD SWAP1 SWAP2 AND SWAP2 SWAP1 SWAP2 OR SWAP1 SWAP3 SSTORE POP SWAP1 JUMP JUMPDEST PUSH0 PUSH1 0x1 PUSH1 0x1 PUSH1 0xD0 SHL SUB DUP3 GT ISZERO PUSH2 0x2262 JUMPI PUSH1 0x40 MLOAD PUSH4 0x6DFCC65 PUSH1 0xE4 SHL DUP2 MSTORE PUSH1 0xD0 PUSH1 0x4 DUP3 ADD MSTORE PUSH1 0x24 DUP2 ADD DUP4 SWAP1 MSTORE PUSH1 0x44 ADD PUSH2 0xDED JUMP JUMPDEST PUSH0 DUP1 PUSH2 0x27FA DUP6 DUP6 DUP6 PUSH2 0x2EBF JUMP JUMPDEST SWAP2 POP SWAP2 POP JUMPDEST SWAP4 POP SWAP4 SWAP2 POP POP JUMP JUMPDEST PUSH0 ADDRESS PUSH1 0x1 PUSH1 0x1 PUSH1 0xA0 SHL SUB PUSH32 0x0 AND EQ DUP1 ISZERO PUSH2 0x285F JUMPI POP PUSH32 0x0 CHAINID EQ JUMPDEST ISZERO PUSH2 0x2889 JUMPI POP PUSH32 0x0 SWAP1 JUMP JUMPDEST PUSH2 0xB31 PUSH1 0x40 DUP1 MLOAD PUSH32 0x8B73C3C69BB8FE3D512ECC4CF759CC79239F7B179B0FFACAA9A75D522B39400F PUSH1 0x20 DUP3 ADD MSTORE PUSH32 0x0 SWAP2 DUP2 ADD SWAP2 SWAP1 SWAP2 MSTORE PUSH32 0x0 PUSH1 0x60 DUP3 ADD MSTORE CHAINID PUSH1 0x80 DUP3 ADD MSTORE ADDRESS PUSH1 0xA0 DUP3 ADD MSTORE PUSH0 SWAP1 PUSH1 0xC0 ADD PUSH1 0x40 MLOAD PUSH1 0x20 DUP2 DUP4 SUB SUB DUP2 MSTORE SWAP1 PUSH1 0x40 MSTORE DUP1 MLOAD SWAP1 PUSH1 0x20 ADD KECCAK256 SWAP1 POP SWAP1 JUMP JUMPDEST PUSH0 DUP1 PUSH0 DUP4 MLOAD PUSH1 0x41 SUB PUSH2 0x2967 JUMPI PUSH1 0x20 DUP5 ADD MLOAD PUSH1 0x40 DUP6 ADD MLOAD PUSH1 0x60 DUP7 ADD MLOAD PUSH0 BYTE PUSH2 0x2959 DUP9 DUP3 DUP6 DUP6 PUSH2 0x3035 JUMP JUMPDEST SWAP6 POP SWAP6 POP SWAP6 POP POP POP POP PUSH2 0x2972 JUMP JUMPDEST POP POP DUP2 MLOAD PUSH0 SWAP2 POP PUSH1 0x2 SWAP1 JUMPDEST SWAP3 POP SWAP3 POP SWAP3 JUMP JUMPDEST PUSH0 DUP1 PUSH0 DUP6 PUSH1 0x1 PUSH1 0x1 PUSH1 0xA0 SHL SUB AND DUP6 DUP6 PUSH1 0x40 MLOAD PUSH1 0x24 ADD PUSH2 0x2999 SWAP3 SWAP2 SWAP1 PUSH2 0x441C JUMP JUMPDEST PUSH1 0x40 DUP1 MLOAD PUSH1 0x1F NOT DUP2 DUP5 SUB ADD DUP2 MSTORE SWAP2 DUP2 MSTORE PUSH1 0x20 DUP3 ADD DUP1 MLOAD PUSH1 0x1 PUSH1 0x1 PUSH1 0xE0 SHL SUB AND PUSH4 0xB135D3F PUSH1 0xE1 SHL OR SWAP1 MSTORE MLOAD PUSH2 0x29CE SWAP2 SWAP1 PUSH2 0x4226 JUMP JUMPDEST PUSH0 PUSH1 0x40 MLOAD DUP1 DUP4 SUB DUP2 DUP6 GAS STATICCALL SWAP2 POP POP RETURNDATASIZE DUP1 PUSH0 DUP2 EQ PUSH2 0x2A06 JUMPI PUSH1 0x40 MLOAD SWAP2 POP PUSH1 0x1F NOT PUSH1 0x3F RETURNDATASIZE ADD AND DUP3 ADD PUSH1 0x40 MSTORE RETURNDATASIZE DUP3 MSTORE RETURNDATASIZE PUSH0 PUSH1 0x20 DUP5 ADD RETURNDATACOPY PUSH2 0x2A0B JUMP JUMPDEST PUSH1 0x60 SWAP2 POP JUMPDEST POP SWAP2 POP SWAP2 POP DUP2 DUP1 ISZERO PUSH2 0x2A1F JUMPI POP PUSH1 0x20 DUP2 MLOAD LT ISZERO JUMPDEST DUP1 ISZERO PUSH2 0x12E5 JUMPI POP DUP1 MLOAD PUSH4 0xB135D3F PUSH1 0xE1 SHL SWAP1 PUSH2 0x2A44 SWAP1 DUP4 ADD PUSH1 0x20 SWAP1 DUP2 ADD SWAP1 DUP5 ADD PUSH2 0x43BB JUMP JUMPDEST EQ SWAP7 SWAP6 POP POP POP POP POP POP JUMP JUMPDEST PUSH0 DUP6 DUP2 MSTORE PUSH1 0x9 PUSH1 0x20 SWAP1 DUP2 MSTORE PUSH1 0x40 DUP1 DUP4 KECCAK256 PUSH1 0x1 PUSH1 0x1 PUSH1 0xA0 SHL SUB DUP9 AND DUP5 MSTORE PUSH1 0x3 DUP2 ADD SWAP1 SWAP3 MSTORE SWAP1 SWAP2 KECCAK256 SLOAD PUSH1 0xFF AND ISZERO PUSH2 0x2AA2 JUMPI PUSH1 0x40 MLOAD PUSH4 0x71C6AF49 PUSH1 0xE0 SHL DUP2 MSTORE PUSH1 0x1 PUSH1 0x1 PUSH1 0xA0 SHL SUB DUP7 AND PUSH1 0x4 DUP3 ADD MSTORE PUSH1 0x24 ADD PUSH2 0xDED JUMP JUMPDEST PUSH1 0x1 PUSH1 0x1 PUSH1 0xA0 SHL SUB DUP6 AND PUSH0 SWAP1 DUP2 MSTORE PUSH1 0x3 DUP3 ADD PUSH1 0x20 MSTORE PUSH1 0x40 SWAP1 KECCAK256 DUP1 SLOAD PUSH1 0xFF NOT AND PUSH1 0x1 OR SWAP1 SSTORE PUSH1 0xFF DUP5 AND PUSH2 0x2AEB JUMPI DUP3 DUP2 PUSH0 ADD PUSH0 DUP3 DUP3 SLOAD PUSH2 0x2AE0 SWAP2 SWAP1 PUSH2 0x4241 JUMP JUMPDEST SWAP1 SWAP2 SSTORE POP PUSH2 0x1FBE SWAP1 POP JUMP JUMPDEST PUSH0 NOT PUSH1 0xFF DUP6 AND ADD PUSH2 0x2B09 JUMPI DUP3 DUP2 PUSH1 0x1 ADD PUSH0 DUP3 DUP3 SLOAD PUSH2 0x2AE0 SWAP2 SWAP1 PUSH2 0x4241 JUMP JUMPDEST PUSH1 0x1 NOT PUSH1 0xFF DUP6 AND ADD PUSH2 0x2B28 JUMPI DUP3 DUP2 PUSH1 0x2 ADD PUSH0 DUP3 DUP3 SLOAD PUSH2 0x2AE0 SWAP2 SWAP1 PUSH2 0x4241 JUMP JUMPDEST PUSH1 0x40 MLOAD PUSH4 0x3599BE1 PUSH1 0xE1 SHL DUP2 MSTORE PUSH1 0x4 ADD PUSH1 0x40 MLOAD DUP1 SWAP2 SUB SWAP1 REVERT JUMPDEST PUSH0 DUP2 PUSH0 SUB PUSH2 0x2B50 JUMPI POP PUSH0 SWAP2 SWAP1 POP JUMP JUMPDEST PUSH0 PUSH1 0x1 PUSH2 0x2B5C DUP5 PUSH2 0x30FD JUMP JUMPDEST SWAP1 SHR PUSH1 0x1 SWAP1 SHL SWAP1 POP PUSH1 0x1 DUP2 DUP5 DUP2 PUSH2 0x2B75 JUMPI PUSH2 0x2B75 PUSH2 0x43E9 JUMP JUMPDEST DIV DUP3 ADD SWAP1 SHR SWAP1 POP PUSH1 0x1 DUP2 DUP5 DUP2 PUSH2 0x2B8D JUMPI PUSH2 0x2B8D PUSH2 0x43E9 JUMP JUMPDEST DIV DUP3 ADD SWAP1 SHR SWAP1 POP PUSH1 0x1 DUP2 DUP5 DUP2 PUSH2 0x2BA5 JUMPI PUSH2 0x2BA5 PUSH2 0x43E9 JUMP JUMPDEST DIV DUP3 ADD SWAP1 SHR SWAP1 POP PUSH1 0x1 DUP2 DUP5 DUP2 PUSH2 0x2BBD JUMPI PUSH2 0x2BBD PUSH2 0x43E9 JUMP JUMPDEST DIV DUP3 ADD SWAP1 SHR SWAP1 POP PUSH1 0x1 DUP2 DUP5 DUP2 PUSH2 0x2BD5 JUMPI PUSH2 0x2BD5 PUSH2 0x43E9 JUMP JUMPDEST DIV DUP3 ADD SWAP1 SHR SWAP1 POP PUSH1 0x1 DUP2 DUP5 DUP2 PUSH2 0x2BED JUMPI PUSH2 0x2BED PUSH2 0x43E9 JUMP JUMPDEST DIV DUP3 ADD SWAP1 SHR SWAP1 POP PUSH1 0x1 DUP2 DUP5 DUP2 PUSH2 0x2C05 JUMPI PUSH2 0x2C05 PUSH2 0x43E9 JUMP JUMPDEST DIV DUP3 ADD SWAP1 SHR SWAP1 POP PUSH2 0x1BA2 DUP2 DUP3 DUP6 DUP2 PUSH2 0x2C1F JUMPI PUSH2 0x2C1F PUSH2 0x43E9 JUMP JUMPDEST DIV PUSH2 0x3190 JUMP JUMPDEST PUSH0 JUMPDEST DUP2 DUP4 LT ISZERO PUSH2 0x2C7C JUMPI PUSH0 PUSH2 0x2C3A DUP5 DUP5 PUSH2 0x31A5 JUMP JUMPDEST PUSH0 DUP8 DUP2 MSTORE PUSH1 0x20 SWAP1 KECCAK256 SWAP1 SWAP2 POP PUSH6 0xFFFFFFFFFFFF DUP7 AND SWAP1 DUP3 ADD SLOAD PUSH6 0xFFFFFFFFFFFF AND GT ISZERO PUSH2 0x2C68 JUMPI DUP1 SWAP3 POP PUSH2 0x2C76 JUMP JUMPDEST PUSH2 0x2C73 DUP2 PUSH1 0x1 PUSH2 0x4241 JUMP JUMPDEST SWAP4 POP JUMPDEST POP PUSH2 0x2C27 JUMP JUMPDEST POP SWAP4 SWAP3 POP POP POP JUMP JUMPDEST PUSH0 DUP1 PUSH1 0xF8 DUP4 SWAP1 SHR PUSH1 0x2F DUP2 GT DUP1 ISZERO PUSH2 0x2C9E JUMPI POP PUSH1 0x3A DUP2 PUSH1 0xFF AND LT JUMPDEST ISZERO PUSH2 0x2CB3 JUMPI PUSH1 0x1 SWAP5 PUSH1 0x2F NOT SWAP1 SWAP2 ADD SWAP4 POP SWAP2 POP POP JUMP JUMPDEST DUP1 PUSH1 0xFF AND PUSH1 0x40 LT DUP1 ISZERO PUSH2 0x2CC9 JUMPI POP PUSH1 0x47 DUP2 PUSH1 0xFF AND LT JUMPDEST ISZERO PUSH2 0x2CDE JUMPI PUSH1 0x1 SWAP5 PUSH1 0x36 NOT SWAP1 SWAP2 ADD SWAP4 POP SWAP2 POP POP JUMP JUMPDEST DUP1 PUSH1 0xFF AND PUSH1 0x60 LT DUP1 ISZERO PUSH2 0x2CF4 JUMPI POP PUSH1 0x67 DUP2 PUSH1 0xFF AND LT JUMPDEST ISZERO PUSH2 0x2D09 JUMPI PUSH1 0x1 SWAP5 PUSH1 0x56 NOT SWAP1 SWAP2 ADD SWAP4 POP SWAP2 POP POP JUMP JUMPDEST POP PUSH0 SWAP4 DUP5 SWAP4 POP SWAP2 POP POP JUMP JUMPDEST PUSH0 DUP1 PUSH2 0x2D23 DUP8 DUP8 DUP8 DUP8 DUP8 PUSH2 0x31BF JUMP JUMPDEST PUSH1 0xA DUP1 SLOAD PUSH1 0x1 DUP2 ADD DUP3 SSTORE PUSH0 SWAP2 DUP3 MSTORE PUSH32 0xC65A7BB8D6351C1CF70C95A316CC6A92839C986682D98BC35F958F4883F9D2A8 ADD DUP3 SWAP1 SSTORE PUSH1 0x40 DUP1 MLOAD PUSH1 0x80 DUP2 ADD DUP3 MSTORE DUP11 DUP2 MSTORE PUSH1 0x20 DUP2 DUP2 ADD DUP12 SWAP1 MSTORE DUP2 DUP4 ADD DUP11 SWAP1 MSTORE DUP9 MLOAD DUP10 DUP3 ADD KECCAK256 PUSH1 0x60 DUP4 ADD MSTORE DUP5 DUP5 MSTORE PUSH1 0xB DUP2 MSTORE SWAP2 SWAP1 SWAP3 KECCAK256 DUP3 MLOAD DUP1 MLOAD SWAP5 SWAP6 POP SWAP3 SWAP4 SWAP1 SWAP3 PUSH2 0x2DA0 SWAP3 DUP5 SWAP3 SWAP2 ADD SWAP1 PUSH2 0x346D JUMP JUMPDEST POP PUSH1 0x20 DUP3 DUP2 ADD MLOAD DUP1 MLOAD PUSH2 0x2DB9 SWAP3 PUSH1 0x1 DUP6 ADD SWAP3 ADD SWAP1 PUSH2 0x34CC JUMP JUMPDEST POP PUSH1 0x40 DUP3 ADD MLOAD DUP1 MLOAD PUSH2 0x2DD5 SWAP2 PUSH1 0x2 DUP5 ADD SWAP2 PUSH1 0x20 SWAP1 SWAP2 ADD SWAP1 PUSH2 0x3505 JUMP JUMPDEST POP PUSH1 0x60 SWAP2 SWAP1 SWAP2 ADD MLOAD PUSH1 0x3 SWAP1 SWAP2 ADD SSTORE SWAP7 SWAP6 POP POP POP POP POP POP JUMP JUMPDEST PUSH1 0x60 PUSH1 0xFF DUP4 EQ PUSH2 0x2E07 JUMPI PUSH2 0x2E00 DUP4 PUSH2 0x33D9 JUMP JUMPDEST SWAP1 POP PUSH2 0xB2B JUMP JUMPDEST DUP2 DUP1 SLOAD PUSH2 0x2E13 SWAP1 PUSH2 0x40BA JUMP JUMPDEST DUP1 PUSH1 0x1F ADD PUSH1 0x20 DUP1 SWAP2 DIV MUL PUSH1 0x20 ADD PUSH1 0x40 MLOAD SWAP1 DUP2 ADD PUSH1 0x40 MSTORE DUP1 SWAP3 SWAP2 SWAP1 DUP2 DUP2 MSTORE PUSH1 0x20 ADD DUP3 DUP1 SLOAD PUSH2 0x2E3F SWAP1 PUSH2 0x40BA JUMP JUMPDEST DUP1 ISZERO PUSH2 0x2E8A JUMPI DUP1 PUSH1 0x1F LT PUSH2 0x2E61 JUMPI PUSH2 0x100 DUP1 DUP4 SLOAD DIV MUL DUP4 MSTORE SWAP2 PUSH1 0x20 ADD SWAP2 PUSH2 0x2E8A JUMP JUMPDEST DUP3 ADD SWAP2 SWAP1 PUSH0 MSTORE PUSH1 0x20 PUSH0 KECCAK256 SWAP1 JUMPDEST DUP2 SLOAD DUP2 MSTORE SWAP1 PUSH1 0x1 ADD SWAP1 PUSH1 0x20 ADD DUP1 DUP4 GT PUSH2 0x2E6D JUMPI DUP3 SWAP1 SUB PUSH1 0x1F AND DUP3 ADD SWAP2 JUMPDEST POP POP POP POP POP SWAP1 POP PUSH2 0xB2B JUMP JUMPDEST DUP1 MLOAD ISZERO PUSH2 0x2EA6 JUMPI DUP1 MLOAD DUP1 DUP3 PUSH1 0x20 ADD REVERT JUMPDEST PUSH1 0x40 MLOAD PUSH4 0xA12F521 PUSH1 0xE1 SHL DUP2 MSTORE PUSH1 0x4 ADD PUSH1 0x40 MLOAD DUP1 SWAP2 SUB SWAP1 REVERT JUMPDEST DUP3 SLOAD PUSH0 SWAP1 DUP2 SWAP1 DUP1 ISZERO PUSH2 0x2FDB JUMPI PUSH0 PUSH2 0x2EDB DUP8 PUSH2 0x22E6 PUSH1 0x1 DUP6 PUSH2 0x4191 JUMP JUMPDEST PUSH1 0x40 DUP1 MLOAD DUP1 DUP3 ADD SWAP1 SWAP2 MSTORE SWAP1 SLOAD PUSH6 0xFFFFFFFFFFFF DUP1 DUP3 AND DUP1 DUP5 MSTORE PUSH1 0x1 PUSH1 0x30 SHL SWAP1 SWAP3 DIV PUSH1 0x1 PUSH1 0x1 PUSH1 0xD0 SHL SUB AND PUSH1 0x20 DUP5 ADD MSTORE SWAP2 SWAP3 POP SWAP1 DUP8 AND LT ISZERO PUSH2 0x2F2F JUMPI PUSH1 0x40 MLOAD PUSH4 0x2520601D PUSH1 0xE0 SHL DUP2 MSTORE PUSH1 0x4 ADD PUSH1 0x40 MLOAD DUP1 SWAP2 SUB SWAP1 REVERT JUMPDEST DUP1 MLOAD PUSH6 0xFFFFFFFFFFFF DUP1 DUP9 AND SWAP2 AND SUB PUSH2 0x2F7B JUMPI DUP5 PUSH2 0x2F52 DUP9 PUSH2 0x22E6 PUSH1 0x1 DUP7 PUSH2 0x4191 JUMP JUMPDEST DUP1 SLOAD PUSH1 0x1 PUSH1 0x1 PUSH1 0xD0 SHL SUB SWAP3 SWAP1 SWAP3 AND PUSH1 0x1 PUSH1 0x30 SHL MUL PUSH6 0xFFFFFFFFFFFF SWAP1 SWAP3 AND SWAP2 SWAP1 SWAP2 OR SWAP1 SSTORE PUSH2 0x2FCB JUMP JUMPDEST PUSH1 0x40 DUP1 MLOAD DUP1 DUP3 ADD SWAP1 SWAP2 MSTORE PUSH6 0xFFFFFFFFFFFF DUP1 DUP9 AND DUP3 MSTORE PUSH1 0x1 PUSH1 0x1 PUSH1 0xD0 SHL SUB DUP1 DUP9 AND PUSH1 0x20 DUP1 DUP6 ADD SWAP2 DUP3 MSTORE DUP12 SLOAD PUSH1 0x1 DUP2 ADD DUP14 SSTORE PUSH0 DUP14 DUP2 MSTORE SWAP2 SWAP1 SWAP2 KECCAK256 SWAP5 MLOAD SWAP2 MLOAD SWAP1 SWAP3 AND PUSH1 0x1 PUSH1 0x30 SHL MUL SWAP3 AND SWAP2 SWAP1 SWAP2 OR SWAP2 ADD SSTORE JUMPDEST PUSH1 0x20 ADD MLOAD SWAP3 POP DUP4 SWAP2 POP PUSH2 0x27FF SWAP1 POP JUMP JUMPDEST POP POP PUSH1 0x40 DUP1 MLOAD DUP1 DUP3 ADD SWAP1 SWAP2 MSTORE PUSH6 0xFFFFFFFFFFFF DUP1 DUP6 AND DUP3 MSTORE PUSH1 0x1 PUSH1 0x1 PUSH1 0xD0 SHL SUB DUP1 DUP6 AND PUSH1 0x20 DUP1 DUP6 ADD SWAP2 DUP3 MSTORE DUP9 SLOAD PUSH1 0x1 DUP2 ADD DUP11 SSTORE PUSH0 DUP11 DUP2 MSTORE SWAP2 DUP3 KECCAK256 SWAP6 MLOAD SWAP3 MLOAD SWAP1 SWAP4 AND PUSH1 0x1 PUSH1 0x30 SHL MUL SWAP2 SWAP1 SWAP4 AND OR SWAP3 ADD SWAP2 SWAP1 SWAP2 SSTORE SWAP1 POP DUP2 PUSH2 0x27FF JUMP JUMPDEST PUSH0 DUP1 DUP1 PUSH32 0x7FFFFFFFFFFFFFFFFFFFFFFFFFFFFFFF5D576E7357A4501DDFE92F46681B20A0 DUP5 GT ISZERO PUSH2 0x306E JUMPI POP PUSH0 SWAP2 POP PUSH1 0x3 SWAP1 POP DUP3 PUSH2 0x30F3 JUMP JUMPDEST PUSH1 0x40 DUP1 MLOAD PUSH0 DUP1 DUP3 MSTORE PUSH1 0x20 DUP3 ADD DUP1 DUP5 MSTORE DUP11 SWAP1 MSTORE PUSH1 0xFF DUP10 AND SWAP3 DUP3 ADD SWAP3 SWAP1 SWAP3 MSTORE PUSH1 0x60 DUP2 ADD DUP8 SWAP1 MSTORE PUSH1 0x80 DUP2 ADD DUP7 SWAP1 MSTORE PUSH1 0x1 SWAP1 PUSH1 0xA0 ADD PUSH1 0x20 PUSH1 0x40 MLOAD PUSH1 0x20 DUP2 SUB SWAP1 DUP1 DUP5 SUB SWAP1 DUP6 GAS STATICCALL ISZERO DUP1 ISZERO PUSH2 0x30BF JUMPI RETURNDATASIZE PUSH0 DUP1 RETURNDATACOPY RETURNDATASIZE PUSH0 REVERT JUMPDEST POP POP PUSH1 0x40 MLOAD PUSH1 0x1F NOT ADD MLOAD SWAP2 POP POP PUSH1 0x1 PUSH1 0x1 PUSH1 0xA0 SHL SUB DUP2 AND PUSH2 0x30EA JUMPI POP PUSH0 SWAP3 POP PUSH1 0x1 SWAP2 POP DUP3 SWAP1 POP PUSH2 0x30F3 JUMP JUMPDEST SWAP3 POP PUSH0 SWAP2 POP DUP2 SWAP1 POP JUMPDEST SWAP5 POP SWAP5 POP SWAP5 SWAP2 POP POP JUMP JUMPDEST PUSH0 DUP1 PUSH1 0x80 DUP4 SWAP1 SHR ISZERO PUSH2 0x3111 JUMPI PUSH1 0x80 SWAP3 DUP4 SHR SWAP3 ADD JUMPDEST PUSH1 0x40 DUP4 SWAP1 SHR ISZERO PUSH2 0x3123 JUMPI PUSH1 0x40 SWAP3 DUP4 SHR SWAP3 ADD JUMPDEST PUSH1 0x20 DUP4 SWAP1 SHR ISZERO PUSH2 0x3135 JUMPI PUSH1 0x20 SWAP3 DUP4 SHR SWAP3 ADD JUMPDEST PUSH1 0x10 DUP4 SWAP1 SHR ISZERO PUSH2 0x3147 JUMPI PUSH1 0x10 SWAP3 DUP4 SHR SWAP3 ADD JUMPDEST PUSH1 0x8 DUP4 SWAP1 SHR ISZERO PUSH2 0x3159 JUMPI PUSH1 0x8 SWAP3 DUP4 SHR SWAP3 ADD JUMPDEST PUSH1 0x4 DUP4 SWAP1 SHR ISZERO PUSH2 0x316B JUMPI PUSH1 0x4 SWAP3 DUP4 SHR SWAP3 ADD JUMPDEST PUSH1 0x2 DUP4 SWAP1 SHR ISZERO PUSH2 0x317D JUMPI PUSH1 0x2 SWAP3 DUP4 SHR SWAP3 ADD JUMPDEST PUSH1 0x1 DUP4 SWAP1 SHR ISZERO PUSH2 0xB2B JUMPI PUSH1 0x1 ADD SWAP3 SWAP2 POP POP JUMP JUMPDEST PUSH0 DUP2 DUP4 LT PUSH2 0x319E JUMPI DUP2 PUSH2 0x1BA2 JUMP JUMPDEST POP SWAP1 SWAP2 SWAP1 POP JUMP JUMPDEST PUSH0 PUSH2 0x31B3 PUSH1 0x2 DUP5 DUP5 XOR PUSH2 0x43FD JUMP JUMPDEST PUSH2 0x1BA2 SWAP1 DUP5 DUP5 AND PUSH2 0x4241 JUMP JUMPDEST PUSH0 PUSH2 0x31D3 DUP7 DUP7 DUP7 DUP7 DUP1 MLOAD SWAP1 PUSH1 0x20 ADD KECCAK256 PUSH2 0x19A7 JUMP JUMPDEST SWAP1 POP DUP5 MLOAD DUP7 MLOAD EQ ISZERO DUP1 PUSH2 0x31E8 JUMPI POP DUP4 MLOAD DUP7 MLOAD EQ ISZERO JUMPDEST DUP1 PUSH2 0x31F2 JUMPI POP DUP6 MLOAD ISZERO JUMPDEST ISZERO PUSH2 0x3227 JUMPI DUP6 MLOAD DUP5 MLOAD DUP7 MLOAD PUSH1 0x40 MLOAD PUSH4 0x447B05D PUSH1 0xE4 SHL DUP2 MSTORE PUSH1 0x4 DUP2 ADD SWAP4 SWAP1 SWAP4 MSTORE PUSH1 0x24 DUP4 ADD SWAP2 SWAP1 SWAP2 MSTORE PUSH1 0x44 DUP3 ADD MSTORE PUSH1 0x64 ADD PUSH2 0xDED JUMP JUMPDEST PUSH0 DUP2 DUP2 MSTORE PUSH1 0x4 PUSH1 0x20 MSTORE PUSH1 0x40 SWAP1 KECCAK256 SLOAD PUSH1 0x1 PUSH1 0xA0 SHL SWAP1 DIV PUSH6 0xFFFFFFFFFFFF AND ISZERO PUSH2 0x3270 JUMPI DUP1 PUSH2 0x3253 DUP3 PUSH2 0xFBB JUMP JUMPDEST PUSH1 0x40 MLOAD PUSH4 0x31B75E4D PUSH1 0xE0 SHL DUP2 MSTORE PUSH2 0xDED SWAP3 SWAP2 SWAP1 PUSH0 SWAP1 PUSH1 0x4 ADD PUSH2 0x4204 JUMP JUMPDEST PUSH0 PUSH2 0x3279 PUSH2 0xFA9 JUMP JUMPDEST PUSH2 0x3281 PUSH2 0x1833 JUMP JUMPDEST PUSH6 0xFFFFFFFFFFFF AND PUSH2 0x3293 SWAP2 SWAP1 PUSH2 0x4241 JUMP JUMPDEST SWAP1 POP PUSH0 PUSH2 0x32AD PUSH1 0x8 SLOAD PUSH4 0xFFFFFFFF PUSH1 0x1 PUSH1 0x30 SHL SWAP1 SWAP2 DIV AND SWAP1 JUMP JUMPDEST PUSH0 DUP5 DUP2 MSTORE PUSH1 0x4 PUSH1 0x20 MSTORE PUSH1 0x40 SWAP1 KECCAK256 DUP1 SLOAD PUSH1 0x1 PUSH1 0x1 PUSH1 0xA0 SHL SUB NOT AND PUSH1 0x1 PUSH1 0x1 PUSH1 0xA0 SHL SUB DUP8 AND OR DUP2 SSTORE SWAP1 SWAP2 POP PUSH2 0x32DF DUP4 PUSH2 0x2230 JUMP JUMPDEST DUP2 SLOAD PUSH6 0xFFFFFFFFFFFF SWAP2 SWAP1 SWAP2 AND PUSH1 0x1 PUSH1 0xA0 SHL MUL PUSH6 0xFFFFFFFFFFFF PUSH1 0xA0 SHL NOT SWAP1 SWAP2 AND OR DUP2 SSTORE PUSH2 0x330C DUP3 PUSH2 0x3416 JUMP JUMPDEST DUP2 SLOAD PUSH4 0xFFFFFFFF SWAP2 SWAP1 SWAP2 AND PUSH1 0x1 PUSH1 0xD0 SHL MUL PUSH4 0xFFFFFFFF PUSH1 0xD0 SHL NOT SWAP1 SWAP2 AND OR DUP2 SSTORE DUP9 MLOAD PUSH32 0x7D84A6263AE0D98D3329BD7B46BB4E8D6F98CD35A7ADB45C274C8B7FD5EBD5E0 SWAP1 DUP6 SWAP1 DUP8 SWAP1 DUP13 SWAP1 DUP13 SWAP1 PUSH1 0x1 PUSH1 0x1 PUSH1 0x40 SHL SUB DUP2 GT ISZERO PUSH2 0x336F JUMPI PUSH2 0x336F PUSH2 0x366F JUMP JUMPDEST PUSH1 0x40 MLOAD SWAP1 DUP1 DUP3 MSTORE DUP1 PUSH1 0x20 MUL PUSH1 0x20 ADD DUP3 ADD PUSH1 0x40 MSTORE DUP1 ISZERO PUSH2 0x33A2 JUMPI DUP2 PUSH1 0x20 ADD JUMPDEST PUSH1 0x60 DUP2 MSTORE PUSH1 0x20 ADD SWAP1 PUSH1 0x1 SWAP1 SUB SWAP1 DUP2 PUSH2 0x338D JUMPI SWAP1 POP JUMPDEST POP DUP13 DUP10 PUSH2 0x33AF DUP11 DUP3 PUSH2 0x4241 JUMP JUMPDEST DUP15 PUSH1 0x40 MLOAD PUSH2 0x33C5 SWAP10 SWAP9 SWAP8 SWAP7 SWAP6 SWAP5 SWAP4 SWAP3 SWAP2 SWAP1 PUSH2 0x4434 JUMP JUMPDEST PUSH1 0x40 MLOAD DUP1 SWAP2 SUB SWAP1 LOG1 POP POP POP SWAP6 SWAP5 POP POP POP POP POP JUMP JUMPDEST PUSH1 0x60 PUSH0 PUSH2 0x33E5 DUP4 PUSH2 0x3446 JUMP JUMPDEST PUSH1 0x40 DUP1 MLOAD PUSH1 0x20 DUP1 DUP3 MSTORE DUP2 DUP4 ADD SWAP1 SWAP3 MSTORE SWAP2 SWAP3 POP PUSH0 SWAP2 SWAP1 PUSH1 0x20 DUP3 ADD DUP2 DUP1 CALLDATASIZE DUP4 CALLDATACOPY POP POP POP SWAP2 DUP3 MSTORE POP PUSH1 0x20 DUP2 ADD SWAP3 SWAP1 SWAP3 MSTORE POP SWAP1 JUMP JUMPDEST PUSH0 PUSH4 0xFFFFFFFF DUP3 GT ISZERO PUSH2 0x2262 JUMPI PUSH1 0x40 MLOAD PUSH4 0x6DFCC65 PUSH1 0xE4 SHL DUP2 MSTORE PUSH1 0x20 PUSH1 0x4 DUP3 ADD MSTORE PUSH1 0x24 DUP2 ADD DUP4 SWAP1 MSTORE PUSH1 0x44 ADD PUSH2 0xDED JUMP JUMPDEST PUSH0 PUSH1 0xFF DUP3 AND PUSH1 0x1F DUP2 GT ISZERO PUSH2 0xB2B JUMPI PUSH1 0x40 MLOAD PUSH4 0x2CD44AC3 PUSH1 0xE2 SHL DUP2 MSTORE PUSH1 0x4 ADD PUSH1 0x40 MLOAD DUP1 SWAP2 SUB SWAP1 REVERT JUMPDEST DUP3 DUP1 SLOAD DUP3 DUP3 SSTORE SWAP1 PUSH0 MSTORE PUSH1 0x20 PUSH0 KECCAK256 SWAP1 DUP2 ADD SWAP3 DUP3 ISZERO PUSH2 0x34C0 JUMPI SWAP2 PUSH1 0x20 MUL DUP3 ADD JUMPDEST DUP3 DUP2 GT ISZERO PUSH2 0x34C0 JUMPI DUP3 MLOAD DUP3 SLOAD PUSH1 0x1 PUSH1 0x1 PUSH1 0xA0 SHL SUB NOT AND PUSH1 0x1 PUSH1 0x1 PUSH1 0xA0 SHL SUB SWAP1 SWAP2 AND OR DUP3 SSTORE PUSH1 0x20 SWAP1 SWAP3 ADD SWAP2 PUSH1 0x1 SWAP1 SWAP2 ADD SWAP1 PUSH2 0x348B JUMP JUMPDEST POP PUSH2 0x2262 SWAP3 SWAP2 POP PUSH2 0x3555 JUMP JUMPDEST DUP3 DUP1 SLOAD DUP3 DUP3 SSTORE SWAP1 PUSH0 MSTORE PUSH1 0x20 PUSH0 KECCAK256 SWAP1 DUP2 ADD SWAP3 DUP3 ISZERO PUSH2 0x34C0 JUMPI SWAP2 PUSH1 0x20 MUL DUP3 ADD JUMPDEST DUP3 DUP2 GT ISZERO PUSH2 0x34C0 JUMPI DUP3 MLOAD DUP3 SSTORE SWAP2 PUSH1 0x20 ADD SWAP2 SWAP1 PUSH1 0x1 ADD SWAP1 PUSH2 0x34EA JUMP JUMPDEST DUP3 DUP1 SLOAD DUP3 DUP3 SSTORE SWAP1 PUSH0 MSTORE PUSH1 0x20 PUSH0 KECCAK256 SWAP1 DUP2 ADD SWAP3 DUP3 ISZERO PUSH2 0x3549 JUMPI SWAP2 PUSH1 0x20 MUL DUP3 ADD JUMPDEST DUP3 DUP2 GT ISZERO PUSH2 0x3549 JUMPI DUP3 MLOAD DUP3 SWAP1 PUSH2 0x3539 SWAP1 DUP3 PUSH2 0x4554 JUMP JUMPDEST POP SWAP2 PUSH1 0x20 ADD SWAP2 SWAP1 PUSH1 0x1 ADD SWAP1 PUSH2 0x3523 JUMP JUMPDEST POP PUSH2 0x2262 SWAP3 SWAP2 POP PUSH2 0x3569 JUMP JUMPDEST JUMPDEST DUP1 DUP3 GT ISZERO PUSH2 0x2262 JUMPI PUSH0 DUP2 SSTORE PUSH1 0x1 ADD PUSH2 0x3556 JUMP JUMPDEST DUP1 DUP3 GT ISZERO PUSH2 0x2262 JUMPI PUSH0 PUSH2 0x357C DUP3 DUP3 PUSH2 0x3585 JUMP JUMPDEST POP PUSH1 0x1 ADD PUSH2 0x3569 JUMP JUMPDEST POP DUP1 SLOAD PUSH2 0x3591 SWAP1 PUSH2 0x40BA JUMP JUMPDEST PUSH0 DUP3 SSTORE DUP1 PUSH1 0x1F LT PUSH2 0x35A0 JUMPI POP POP JUMP JUMPDEST PUSH1 0x1F ADD PUSH1 0x20 SWAP1 DIV SWAP1 PUSH0 MSTORE PUSH1 0x20 PUSH0 KECCAK256 SWAP1 DUP2 ADD SWAP1 PUSH2 0xB47 SWAP2 SWAP1 PUSH2 0x3555 JUMP JUMPDEST PUSH0 PUSH1 0x20 DUP3 DUP5 SUB SLT ISZERO PUSH2 0x35CC JUMPI PUSH0 DUP1 REVERT JUMPDEST DUP2 CALLDATALOAD PUSH1 0x1 PUSH1 0x1 PUSH1 0xE0 SHL SUB NOT DUP2 AND DUP2 EQ PUSH2 0x1BA2 JUMPI PUSH0 DUP1 REVERT JUMPDEST PUSH0 PUSH1 0x20 DUP3 DUP5 SUB SLT ISZERO PUSH2 0x35F3 JUMPI PUSH0 DUP1 REVERT JUMPDEST POP CALLDATALOAD SWAP2 SWAP1 POP JUMP JUMPDEST PUSH0 JUMPDEST DUP4 DUP2 LT ISZERO PUSH2 0x3614 JUMPI DUP2 DUP2 ADD MLOAD DUP4 DUP3 ADD MSTORE PUSH1 0x20 ADD PUSH2 0x35FC JUMP JUMPDEST POP POP PUSH0 SWAP2 ADD MSTORE JUMP JUMPDEST PUSH0 DUP2 MLOAD DUP1 DUP5 MSTORE PUSH2 0x3633 DUP2 PUSH1 0x20 DUP7 ADD PUSH1 0x20 DUP7 ADD PUSH2 0x35FA JUMP JUMPDEST PUSH1 0x1F ADD PUSH1 0x1F NOT AND SWAP3 SWAP1 SWAP3 ADD PUSH1 0x20 ADD SWAP3 SWAP2 POP POP JUMP JUMPDEST PUSH1 0x20 DUP2 MSTORE PUSH0 PUSH2 0x1BA2 PUSH1 0x20 DUP4 ADD DUP5 PUSH2 0x361C JUMP JUMPDEST DUP1 CALLDATALOAD PUSH1 0x1 PUSH1 0x1 PUSH1 0xA0 SHL SUB DUP2 AND DUP2 EQ PUSH2 0x13AA JUMPI PUSH0 DUP1 REVERT JUMPDEST PUSH4 0x4E487B71 PUSH1 0xE0 SHL PUSH0 MSTORE PUSH1 0x41 PUSH1 0x4 MSTORE PUSH1 0x24 PUSH0 REVERT JUMPDEST PUSH1 0x40 MLOAD PUSH1 0x1F DUP3 ADD PUSH1 0x1F NOT AND DUP2 ADD PUSH1 0x1 PUSH1 0x1 PUSH1 0x40 SHL SUB DUP2 GT DUP3 DUP3 LT OR ISZERO PUSH2 0x36AB JUMPI PUSH2 0x36AB PUSH2 0x366F JUMP JUMPDEST PUSH1 0x40 MSTORE SWAP2 SWAP1 POP JUMP JUMPDEST PUSH0 PUSH1 0x1 PUSH1 0x1 PUSH1 0x40 SHL SUB DUP3 GT ISZERO PUSH2 0x36CB JUMPI PUSH2 0x36CB PUSH2 0x366F JUMP JUMPDEST POP PUSH1 0x1F ADD PUSH1 0x1F NOT AND PUSH1 0x20 ADD SWAP1 JUMP JUMPDEST PUSH0 PUSH2 0x36EB PUSH2 0x36E6 DUP5 PUSH2 0x36B3 JUMP JUMPDEST PUSH2 0x3683 JUMP JUMPDEST SWAP1 POP DUP3 DUP2 MSTORE DUP4 DUP4 DUP4 ADD GT ISZERO PUSH2 0x36FE JUMPI PUSH0 DUP1 REVERT JUMPDEST DUP3 DUP3 PUSH1 0x20 DUP4 ADD CALLDATACOPY PUSH0 PUSH1 0x20 DUP5 DUP4 ADD ADD MSTORE SWAP4 SWAP3 POP POP POP JUMP JUMPDEST PUSH0 DUP3 PUSH1 0x1F DUP4 ADD SLT PUSH2 0x3723 JUMPI PUSH0 DUP1 REVERT JUMPDEST PUSH2 0x1BA2 DUP4 DUP4 CALLDATALOAD PUSH1 0x20 DUP6 ADD PUSH2 0x36D9 JUMP JUMPDEST PUSH0 DUP1 PUSH0 DUP1 PUSH1 0x80 DUP6 DUP8 SUB SLT ISZERO PUSH2 0x3745 JUMPI PUSH0 DUP1 REVERT JUMPDEST PUSH2 0x374E DUP6 PUSH2 0x3659 JUMP JUMPDEST SWAP4 POP PUSH2 0x375C PUSH1 0x20 DUP7 ADD PUSH2 0x3659 JUMP JUMPDEST SWAP3 POP PUSH1 0x40 DUP6 ADD CALLDATALOAD SWAP2 POP PUSH1 0x60 DUP6 ADD CALLDATALOAD PUSH1 0x1 PUSH1 0x1 PUSH1 0x40 SHL SUB DUP2 GT ISZERO PUSH2 0x377D JUMPI PUSH0 DUP1 REVERT JUMPDEST PUSH2 0x3789 DUP8 DUP3 DUP9 ADD PUSH2 0x3714 JUMP JUMPDEST SWAP2 POP POP SWAP3 SWAP6 SWAP2 SWAP5 POP SWAP3 POP JUMP JUMPDEST PUSH0 PUSH1 0x1 PUSH1 0x1 PUSH1 0x40 SHL SUB DUP3 GT ISZERO PUSH2 0x37AD JUMPI PUSH2 0x37AD PUSH2 0x366F JUMP JUMPDEST POP PUSH1 0x5 SHL PUSH1 0x20 ADD SWAP1 JUMP JUMPDEST PUSH0 DUP3 PUSH1 0x1F DUP4 ADD SLT PUSH2 0x37C6 JUMPI PUSH0 DUP1 REVERT JUMPDEST DUP2 CALLDATALOAD PUSH1 0x20 PUSH2 0x37D6 PUSH2 0x36E6 DUP4 PUSH2 0x3795 JUMP JUMPDEST DUP1 DUP4 DUP3 MSTORE PUSH1 0x20 DUP3 ADD SWAP2 POP PUSH1 0x20 DUP5 PUSH1 0x5 SHL DUP8 ADD ADD SWAP4 POP DUP7 DUP5 GT ISZERO PUSH2 0x37F7 JUMPI PUSH0 DUP1 REVERT JUMPDEST PUSH1 0x20 DUP7 ADD JUMPDEST DUP5 DUP2 LT ISZERO PUSH2 0x381A JUMPI PUSH2 0x380D DUP2 PUSH2 0x3659 JUMP JUMPDEST DUP4 MSTORE SWAP2 DUP4 ADD SWAP2 DUP4 ADD PUSH2 0x37FC JUMP JUMPDEST POP SWAP7 SWAP6 POP POP POP POP POP POP JUMP JUMPDEST PUSH0 DUP3 PUSH1 0x1F DUP4 ADD SLT PUSH2 0x3834 JUMPI PUSH0 DUP1 REVERT JUMPDEST DUP2 CALLDATALOAD PUSH1 0x20 PUSH2 0x3844 PUSH2 0x36E6 DUP4 PUSH2 0x3795 JUMP JUMPDEST DUP1 DUP4 DUP3 MSTORE PUSH1 0x20 DUP3 ADD SWAP2 POP PUSH1 0x20 DUP5 PUSH1 0x5 SHL DUP8 ADD ADD SWAP4 POP DUP7 DUP5 GT ISZERO PUSH2 0x3865 JUMPI PUSH0 DUP1 REVERT JUMPDEST PUSH1 0x20 DUP7 ADD JUMPDEST DUP5 DUP2 LT ISZERO PUSH2 0x381A JUMPI DUP1 CALLDATALOAD DUP4 MSTORE SWAP2 DUP4 ADD SWAP2 DUP4 ADD PUSH2 0x386A JUMP JUMPDEST PUSH0 DUP3 PUSH1 0x1F DUP4 ADD SLT PUSH2 0x3890 JUMPI PUSH0 DUP1 REVERT JUMPDEST DUP2 CALLDATALOAD PUSH1 0x20 PUSH2 0x38A0 PUSH2 0x36E6 DUP4 PUSH2 0x3795 JUMP JUMPDEST DUP3 DUP2 MSTORE PUSH1 0x5 SWAP3 SWAP1 SWAP3 SHL DUP5 ADD DUP2 ADD SWAP2 DUP2 DUP2 ADD SWAP1 DUP7 DUP5 GT ISZERO PUSH2 0x38BE JUMPI PUSH0 DUP1 REVERT JUMPDEST DUP3 DUP7 ADD JUMPDEST DUP5 DUP2 LT ISZERO PUSH2 0x381A JUMPI DUP1 CALLDATALOAD PUSH1 0x1 PUSH1 0x1 PUSH1 0x40 SHL SUB DUP2 GT ISZERO PUSH2 0x38DF JUMPI PUSH0 DUP1 REVERT JUMPDEST PUSH2 0x38ED DUP10 DUP7 DUP4 DUP12 ADD ADD PUSH2 0x3714 JUMP JUMPDEST DUP5 MSTORE POP SWAP2 DUP4 ADD SWAP2 DUP4 ADD PUSH2 0x38C2 JUMP JUMPDEST PUSH0 DUP1 PUSH0 DUP1 PUSH1 0x80 DUP6 DUP8 SUB SLT ISZERO PUSH2 0x390E JUMPI PUSH0 DUP1 REVERT JUMPDEST DUP5 CALLDATALOAD PUSH1 0x1 PUSH1 0x1 PUSH1 0x40 SHL SUB DUP1 DUP3 GT ISZERO PUSH2 0x3924 JUMPI PUSH0 DUP1 REVERT JUMPDEST PUSH2 0x3930 DUP9 DUP4 DUP10 ADD PUSH2 0x37B7 JUMP JUMPDEST SWAP6 POP PUSH1 0x20 DUP8 ADD CALLDATALOAD SWAP2 POP DUP1 DUP3 GT ISZERO PUSH2 0x3945 JUMPI PUSH0 DUP1 REVERT JUMPDEST PUSH2 0x3951 DUP9 DUP4 DUP10 ADD PUSH2 0x3825 JUMP JUMPDEST SWAP5 POP PUSH1 0x40 DUP8 ADD CALLDATALOAD SWAP2 POP DUP1 DUP3 GT ISZERO PUSH2 0x3966 JUMPI PUSH0 DUP1 REVERT JUMPDEST POP PUSH2 0x3973 DUP8 DUP3 DUP9 ADD PUSH2 0x3881 JUMP JUMPDEST SWAP5 SWAP8 SWAP4 SWAP7 POP SWAP4 SWAP5 PUSH1 0x60 ADD CALLDATALOAD SWAP4 POP POP POP JUMP JUMPDEST PUSH0 DUP2 MLOAD DUP1 DUP5 MSTORE PUSH1 0x20 DUP1 DUP6 ADD SWAP5 POP PUSH1 0x20 DUP5 ADD PUSH0 JUMPDEST DUP4 DUP2 LT ISZERO PUSH2 0x39BC JUMPI DUP2 MLOAD PUSH1 0x1 PUSH1 0x1 PUSH1 0xA0 SHL SUB AND DUP8 MSTORE SWAP6 DUP3 ADD SWAP6 SWAP1 DUP3 ADD SWAP1 PUSH1 0x1 ADD PUSH2 0x3997 JUMP JUMPDEST POP SWAP5 SWAP6 SWAP5 POP POP POP POP POP JUMP JUMPDEST PUSH0 DUP2 MLOAD DUP1 DUP5 MSTORE PUSH1 0x20 DUP1 DUP6 ADD SWAP5 POP PUSH1 0x20 DUP5 ADD PUSH0 JUMPDEST DUP4 DUP2 LT ISZERO PUSH2 0x39BC JUMPI DUP2 MLOAD DUP8 MSTORE SWAP6 DUP3 ADD SWAP6 SWAP1 DUP3 ADD SWAP1 PUSH1 0x1 ADD PUSH2 0x39DA JUMP JUMPDEST PUSH0 DUP3 DUP3 MLOAD DUP1 DUP6 MSTORE PUSH1 0x20 DUP1 DUP7 ADD SWAP6 POP PUSH1 0x20 DUP3 PUSH1 0x5 SHL DUP5 ADD ADD PUSH1 0x20 DUP7 ADD PUSH0 JUMPDEST DUP5 DUP2 LT ISZERO PUSH2 0x3A41 JUMPI PUSH1 0x1F NOT DUP7 DUP5 SUB ADD DUP10 MSTORE PUSH2 0x3A2F DUP4 DUP4 MLOAD PUSH2 0x361C JUMP JUMPDEST SWAP9 DUP5 ADD SWAP9 SWAP3 POP SWAP1 DUP4 ADD SWAP1 PUSH1 0x1 ADD PUSH2 0x3A13 JUMP JUMPDEST POP SWAP1 SWAP8 SWAP7 POP POP POP POP POP POP POP JUMP JUMPDEST PUSH1 0x80 DUP2 MSTORE PUSH0 PUSH2 0x3A60 PUSH1 0x80 DUP4 ADD DUP8 PUSH2 0x3984 JUMP JUMPDEST DUP3 DUP2 SUB PUSH1 0x20 DUP5 ADD MSTORE PUSH2 0x3A72 DUP2 DUP8 PUSH2 0x39C7 JUMP JUMPDEST SWAP1 POP DUP3 DUP2 SUB PUSH1 0x40 DUP5 ADD MSTORE PUSH2 0x3A86 DUP2 DUP7 PUSH2 0x39F6 JUMP JUMPDEST SWAP2 POP POP DUP3 PUSH1 0x60 DUP4 ADD MSTORE SWAP6 SWAP5 POP POP POP POP POP JUMP JUMPDEST DUP6 DUP2 MSTORE PUSH1 0xA0 PUSH1 0x20 DUP3 ADD MSTORE PUSH0 PUSH2 0x3AB0 PUSH1 0xA0 DUP4 ADD DUP8 PUSH2 0x3984 JUMP JUMPDEST DUP3 DUP2 SUB PUSH1 0x40 DUP5 ADD MSTORE PUSH2 0x3AC2 DUP2 DUP8 PUSH2 0x39C7 JUMP JUMPDEST SWAP1 POP DUP3 DUP2 SUB PUSH1 0x60 DUP5 ADD MSTORE PUSH2 0x3AD6 DUP2 DUP7 PUSH2 0x39F6 JUMP JUMPDEST SWAP2 POP POP DUP3 PUSH1 0x80 DUP4 ADD MSTORE SWAP7 SWAP6 POP POP POP POP POP POP JUMP JUMPDEST PUSH4 0x4E487B71 PUSH1 0xE0 SHL PUSH0 MSTORE PUSH1 0x21 PUSH1 0x4 MSTORE PUSH1 0x24 PUSH0 REVERT JUMPDEST PUSH1 0x8 DUP2 LT PUSH2 0x3B19 JUMPI PUSH4 0x4E487B71 PUSH1 0xE0 SHL PUSH0 MSTORE PUSH1 0x21 PUSH1 0x4 MSTORE PUSH1 0x24 PUSH0 REVERT JUMPDEST SWAP1 MSTORE JUMP JUMPDEST PUSH1 0x20 DUP2 ADD PUSH2 0xB2B DUP3 DUP5 PUSH2 0x3AFD JUMP JUMPDEST PUSH0 DUP1 PUSH1 0x40 DUP4 DUP6 SUB SLT ISZERO PUSH2 0x3B3C JUMPI PUSH0 DUP1 REVERT JUMPDEST DUP3 CALLDATALOAD SWAP2 POP PUSH2 0x3B4C PUSH1 0x20 DUP5 ADD PUSH2 0x3659 JUMP JUMPDEST SWAP1 POP SWAP3 POP SWAP3 SWAP1 POP JUMP JUMPDEST DUP1 CALLDATALOAD PUSH1 0xFF DUP2 AND DUP2 EQ PUSH2 0x13AA JUMPI PUSH0 DUP1 REVERT JUMPDEST PUSH0 DUP1 PUSH1 0x40 DUP4 DUP6 SUB SLT ISZERO PUSH2 0x3B76 JUMPI PUSH0 DUP1 REVERT JUMPDEST DUP3 CALLDATALOAD SWAP2 POP PUSH2 0x3B4C PUSH1 0x20 DUP5 ADD PUSH2 0x3B55 JUMP JUMPDEST PUSH0 DUP1 DUP4 PUSH1 0x1F DUP5 ADD SLT PUSH2 0x3B96 JUMPI PUSH0 DUP1 REVERT JUMPDEST POP DUP2 CALLDATALOAD PUSH1 0x1 PUSH1 0x1 PUSH1 0x40 SHL SUB DUP2 GT ISZERO PUSH2 0x3BAC JUMPI PUSH0 DUP1 REVERT JUMPDEST PUSH1 0x20 DUP4 ADD SWAP2 POP DUP4 PUSH1 0x20 DUP3 DUP6 ADD ADD GT ISZERO PUSH2 0x3BC3 JUMPI PUSH0 DUP1 REVERT JUMPDEST SWAP3 POP SWAP3 SWAP1 POP JUMP JUMPDEST PUSH0 DUP1 PUSH0 DUP1 PUSH0 DUP1 PUSH0 PUSH1 0xC0 DUP9 DUP11 SUB SLT ISZERO PUSH2 0x3BE0 JUMPI PUSH0 DUP1 REVERT JUMPDEST DUP8 CALLDATALOAD SWAP7 POP PUSH2 0x3BF0 PUSH1 0x20 DUP10 ADD PUSH2 0x3B55 JUMP JUMPDEST SWAP6 POP PUSH2 0x3BFE PUSH1 0x40 DUP10 ADD PUSH2 0x3659 JUMP JUMPDEST SWAP5 POP PUSH1 0x60 DUP9 ADD CALLDATALOAD PUSH1 0x1 PUSH1 0x1 PUSH1 0x40 SHL SUB DUP1 DUP3 GT ISZERO PUSH2 0x3C19 JUMPI PUSH0 DUP1 REVERT JUMPDEST PUSH2 0x3C25 DUP12 DUP4 DUP13 ADD PUSH2 0x3B86 JUMP JUMPDEST SWAP1 SWAP7 POP SWAP5 POP PUSH1 0x80 DUP11 ADD CALLDATALOAD SWAP2 POP DUP1 DUP3 GT ISZERO PUSH2 0x3C3D JUMPI PUSH0 DUP1 REVERT JUMPDEST PUSH2 0x3C49 DUP12 DUP4 DUP13 ADD PUSH2 0x3714 JUMP JUMPDEST SWAP4 POP PUSH1 0xA0 DUP11 ADD CALLDATALOAD SWAP2 POP DUP1 DUP3 GT ISZERO PUSH2 0x3C5E JUMPI PUSH0 DUP1 REVERT JUMPDEST POP PUSH2 0x3C6B DUP11 DUP3 DUP12 ADD PUSH2 0x3714 JUMP JUMPDEST SWAP2 POP POP SWAP3 SWAP6 SWAP9 SWAP2 SWAP5 SWAP8 POP SWAP3 SWAP6 POP JUMP JUMPDEST PUSH0 DUP1 PUSH0 DUP1 PUSH0 PUSH1 0x80 DUP7 DUP9 SUB SLT ISZERO PUSH2 0x3C8E JUMPI PUSH0 DUP1 REVERT JUMPDEST DUP6 CALLDATALOAD SWAP5 POP PUSH2 0x3C9E PUSH1 0x20 DUP8 ADD PUSH2 0x3B55 JUMP JUMPDEST SWAP4 POP PUSH1 0x40 DUP7 ADD CALLDATALOAD PUSH1 0x1 PUSH1 0x1 PUSH1 0x40 SHL SUB DUP1 DUP3 GT ISZERO PUSH2 0x3CB9 JUMPI PUSH0 DUP1 REVERT JUMPDEST PUSH2 0x3CC5 DUP10 DUP4 DUP11 ADD PUSH2 0x3B86 JUMP JUMPDEST SWAP1 SWAP6 POP SWAP4 POP PUSH1 0x60 DUP9 ADD CALLDATALOAD SWAP2 POP DUP1 DUP3 GT ISZERO PUSH2 0x3CDD JUMPI PUSH0 DUP1 REVERT JUMPDEST POP PUSH2 0x3CEA DUP9 DUP3 DUP10 ADD PUSH2 0x3714 JUMP JUMPDEST SWAP2 POP POP SWAP3 SWAP6 POP SWAP3 SWAP6 SWAP1 SWAP4 POP JUMP JUMPDEST PUSH6 0xFFFFFFFFFFFF DUP2 AND DUP2 EQ PUSH2 0xB47 JUMPI PUSH0 DUP1 REVERT JUMPDEST PUSH0 PUSH1 0x20 DUP3 DUP5 SUB SLT ISZERO PUSH2 0x3D1A JUMPI PUSH0 DUP1 REVERT JUMPDEST DUP2 CALLDATALOAD PUSH2 0x1BA2 DUP2 PUSH2 0x3CF7 JUMP JUMPDEST PUSH0 DUP1 PUSH0 DUP1 PUSH1 0x60 DUP6 DUP8 SUB SLT ISZERO PUSH2 0x3D38 JUMPI PUSH0 DUP1 REVERT JUMPDEST DUP5 CALLDATALOAD SWAP4 POP PUSH2 0x3D48 PUSH1 0x20 DUP7 ADD PUSH2 0x3B55 JUMP JUMPDEST SWAP3 POP PUSH1 0x40 DUP6 ADD CALLDATALOAD PUSH1 0x1 PUSH1 0x1 PUSH1 0x40 SHL SUB DUP2 GT ISZERO PUSH2 0x3D62 JUMPI PUSH0 DUP1 REVERT JUMPDEST PUSH2 0x3D6E DUP8 DUP3 DUP9 ADD PUSH2 0x3B86 JUMP JUMPDEST SWAP6 SWAP9 SWAP5 SWAP8 POP SWAP6 POP POP POP POP JUMP JUMPDEST PUSH0 DUP1 PUSH0 DUP1 PUSH1 0x80 DUP6 DUP8 SUB SLT ISZERO PUSH2 0x3D8D JUMPI PUSH0 DUP1 REVERT JUMPDEST DUP5 CALLDATALOAD PUSH1 0x1 PUSH1 0x1 PUSH1 0x40 SHL SUB DUP1 DUP3 GT ISZERO PUSH2 0x3DA3 JUMPI PUSH0 DUP1 REVERT JUMPDEST PUSH2 0x3DAF DUP9 DUP4 DUP10 ADD PUSH2 0x37B7 JUMP JUMPDEST SWAP6 POP PUSH1 0x20 DUP8 ADD CALLDATALOAD SWAP2 POP DUP1 DUP3 GT ISZERO PUSH2 0x3DC4 JUMPI PUSH0 DUP1 REVERT JUMPDEST PUSH2 0x3DD0 DUP9 DUP4 DUP10 ADD PUSH2 0x3825 JUMP JUMPDEST SWAP5 POP PUSH1 0x40 DUP8 ADD CALLDATALOAD SWAP2 POP DUP1 DUP3 GT ISZERO PUSH2 0x3DE5 JUMPI PUSH0 DUP1 REVERT JUMPDEST PUSH2 0x3DF1 DUP9 DUP4 DUP10 ADD PUSH2 0x3881 JUMP JUMPDEST SWAP4 POP PUSH1 0x60 DUP8 ADD CALLDATALOAD SWAP2 POP DUP1 DUP3 GT ISZERO PUSH2 0x3E06 JUMPI PUSH0 DUP1 REVERT JUMPDEST POP DUP6 ADD PUSH1 0x1F DUP2 ADD DUP8 SGT PUSH2 0x3E17 JUMPI PUSH0 DUP1 REVERT JUMPDEST PUSH2 0x3789 DUP8 DUP3 CALLDATALOAD PUSH1 0x20 DUP5 ADD PUSH2 0x36D9 JUMP JUMPDEST PUSH0 PUSH1 0x20 DUP3 DUP5 SUB SLT ISZERO PUSH2 0x3E36 JUMPI PUSH0 DUP1 REVERT JUMPDEST PUSH2 0x1BA2 DUP3 PUSH2 0x3659 JUMP JUMPDEST PUSH1 0xFF PUSH1 0xF8 SHL DUP9 AND DUP2 MSTORE PUSH1 0xE0 PUSH1 0x20 DUP3 ADD MSTORE PUSH0 PUSH2 0x3E5D PUSH1 0xE0 DUP4 ADD DUP10 PUSH2 0x361C JUMP JUMPDEST DUP3 DUP2 SUB PUSH1 0x40 DUP5 ADD MSTORE PUSH2 0x3E6F DUP2 DUP10 PUSH2 0x361C JUMP JUMPDEST PUSH1 0x60 DUP5 ADD DUP9 SWAP1 MSTORE PUSH1 0x1 PUSH1 0x1 PUSH1 0xA0 SHL SUB DUP8 AND PUSH1 0x80 DUP6 ADD MSTORE PUSH1 0xA0 DUP5 ADD DUP7 SWAP1 MSTORE DUP4 DUP2 SUB PUSH1 0xC0 DUP6 ADD MSTORE SWAP1 POP PUSH2 0x3EA0 DUP2 DUP6 PUSH2 0x39C7 JUMP JUMPDEST SWAP11 SWAP10 POP POP POP POP POP POP POP POP POP POP JUMP JUMPDEST PUSH0 DUP1 PUSH0 DUP1 PUSH1 0x80 DUP6 DUP8 SUB SLT ISZERO PUSH2 0x3EC1 JUMPI PUSH0 DUP1 REVERT JUMPDEST DUP5 CALLDATALOAD SWAP4 POP PUSH2 0x3ED1 PUSH1 0x20 DUP7 ADD PUSH2 0x3B55 JUMP JUMPDEST SWAP3 POP PUSH2 0x3EDF PUSH1 0x40 DUP7 ADD PUSH2 0x3659 JUMP JUMPDEST SWAP2 POP PUSH1 0x60 DUP6 ADD CALLDATALOAD PUSH1 0x1 PUSH1 0x1 PUSH1 0x40 SHL SUB DUP2 GT ISZERO PUSH2 0x377D JUMPI PUSH0 DUP1 REVERT JUMPDEST PUSH0 DUP1 PUSH0 PUSH1 0x60 DUP5 DUP7 SUB SLT ISZERO PUSH2 0x3F0B JUMPI PUSH0 DUP1 REVERT JUMPDEST PUSH2 0x3F14 DUP5 PUSH2 0x3659 JUMP JUMPDEST SWAP3 POP PUSH1 0x20 DUP5 ADD CALLDATALOAD SWAP2 POP PUSH1 0x40 DUP5 ADD CALLDATALOAD PUSH1 0x1 PUSH1 0x1 PUSH1 0x40 SHL SUB DUP2 GT ISZERO PUSH2 0x3F35 JUMPI PUSH0 DUP1 REVERT JUMPDEST PUSH2 0x3F41 DUP7 DUP3 DUP8 ADD PUSH2 0x3714 JUMP JUMPDEST SWAP2 POP POP SWAP3 POP SWAP3 POP SWAP3 JUMP JUMPDEST PUSH0 DUP1 PUSH0 DUP1 PUSH0 PUSH1 0xA0 DUP7 DUP9 SUB SLT ISZERO PUSH2 0x3F5F JUMPI PUSH0 DUP1 REVERT JUMPDEST PUSH2 0x3F68 DUP7 PUSH2 0x3659 JUMP JUMPDEST SWAP5 POP PUSH2 0x3F76 PUSH1 0x20 DUP8 ADD PUSH2 0x3659 JUMP JUMPDEST SWAP4 POP PUSH1 0x40 DUP7 ADD CALLDATALOAD PUSH1 0x1 PUSH1 0x1 PUSH1 0x40 SHL SUB DUP1 DUP3 GT ISZERO PUSH2 0x3F91 JUMPI PUSH0 DUP1 REVERT JUMPDEST PUSH2 0x3F9D DUP10 DUP4 DUP11 ADD PUSH2 0x3825 JUMP JUMPDEST SWAP5 POP PUSH1 0x60 DUP9 ADD CALLDATALOAD SWAP2 POP DUP1 DUP3 GT ISZERO PUSH2 0x3FB2 JUMPI PUSH0 DUP1 REVERT JUMPDEST PUSH2 0x3FBE DUP10 DUP4 DUP11 ADD PUSH2 0x3825 JUMP JUMPDEST SWAP4 POP PUSH1 0x80 DUP9 ADD CALLDATALOAD SWAP2 POP DUP1 DUP3 GT ISZERO PUSH2 0x3CDD JUMPI PUSH0 DUP1 REVERT JUMPDEST PUSH0 DUP1 PUSH0 DUP1 PUSH1 0x60 DUP6 DUP8 SUB SLT ISZERO PUSH2 0x3FE6 JUMPI PUSH0 DUP1 REVERT JUMPDEST PUSH2 0x3FEF DUP6 PUSH2 0x3659 JUMP JUMPDEST SWAP4 POP PUSH1 0x20 DUP6 ADD CALLDATALOAD SWAP3 POP PUSH1 0x40 DUP6 ADD CALLDATALOAD PUSH1 0x1 PUSH1 0x1 PUSH1 0x40 SHL SUB DUP2 GT ISZERO PUSH2 0x3D62 JUMPI PUSH0 DUP1 REVERT JUMPDEST PUSH0 PUSH1 0x20 DUP3 DUP5 SUB SLT ISZERO PUSH2 0x4020 JUMPI PUSH0 DUP1 REVERT JUMPDEST DUP2 CALLDATALOAD PUSH4 0xFFFFFFFF DUP2 AND DUP2 EQ PUSH2 0x1BA2 JUMPI PUSH0 DUP1 REVERT JUMPDEST PUSH0 DUP1 PUSH1 0x40 DUP4 DUP6 SUB SLT ISZERO PUSH2 0x4044 JUMPI PUSH0 DUP1 REVERT JUMPDEST PUSH2 0x404D DUP4 PUSH2 0x3659 JUMP JUMPDEST SWAP5 PUSH1 0x20 SWAP4 SWAP1 SWAP4 ADD CALLDATALOAD SWAP4 POP POP POP JUMP JUMPDEST PUSH0 DUP1 PUSH0 DUP1 PUSH0 PUSH1 0xA0 DUP7 DUP9 SUB SLT ISZERO PUSH2 0x406F JUMPI PUSH0 DUP1 REVERT JUMPDEST PUSH2 0x4078 DUP7 PUSH2 0x3659 JUMP JUMPDEST SWAP5 POP PUSH2 0x4086 PUSH1 0x20 DUP8 ADD PUSH2 0x3659 JUMP JUMPDEST SWAP4 POP PUSH1 0x40 DUP7 ADD CALLDATALOAD SWAP3 POP PUSH1 0x60 DUP7 ADD CALLDATALOAD SWAP2 POP PUSH1 0x80 DUP7 ADD CALLDATALOAD PUSH1 0x1 PUSH1 0x1 PUSH1 0x40 SHL SUB DUP2 GT ISZERO PUSH2 0x40AE JUMPI PUSH0 DUP1 REVERT JUMPDEST PUSH2 0x3CEA DUP9 DUP3 DUP10 ADD PUSH2 0x3714 JUMP JUMPDEST PUSH1 0x1 DUP2 DUP2 SHR SWAP1 DUP3 AND DUP1 PUSH2 0x40CE JUMPI PUSH1 0x7F DUP3 AND SWAP2 POP JUMPDEST PUSH1 0x20 DUP3 LT DUP2 SUB PUSH2 0x40EC JUMPI PUSH4 0x4E487B71 PUSH1 0xE0 SHL PUSH0 MSTORE PUSH1 0x22 PUSH1 0x4 MSTORE PUSH1 0x24 PUSH0 REVERT JUMPDEST POP SWAP2 SWAP1 POP JUMP JUMPDEST PUSH4 0x4E487B71 PUSH1 0xE0 SHL PUSH0 MSTORE PUSH1 0x32 PUSH1 0x4 MSTORE PUSH1 0x24 PUSH0 REVERT JUMPDEST PUSH0 PUSH1 0x20 DUP3 DUP5 SUB SLT ISZERO PUSH2 0x4116 JUMPI PUSH0 DUP1 REVERT JUMPDEST DUP2 MLOAD PUSH1 0x1 PUSH1 0x1 PUSH1 0x40 SHL SUB DUP2 GT ISZERO PUSH2 0x412B JUMPI PUSH0 DUP1 REVERT JUMPDEST DUP3 ADD PUSH1 0x1F DUP2 ADD DUP5 SGT PUSH2 0x413B JUMPI PUSH0 DUP1 REVERT JUMPDEST DUP1 MLOAD PUSH2 0x4149 PUSH2 0x36E6 DUP3 PUSH2 0x36B3 JUMP JUMPDEST DUP2 DUP2 MSTORE DUP6 PUSH1 0x20 DUP4 DUP6 ADD ADD GT ISZERO PUSH2 0x415D JUMPI PUSH0 DUP1 REVERT JUMPDEST PUSH2 0x20CC DUP3 PUSH1 0x20 DUP4 ADD PUSH1 0x20 DUP7 ADD PUSH2 0x35FA JUMP JUMPDEST DUP2 DUP4 DUP3 CALLDATACOPY PUSH0 SWAP2 ADD SWAP1 DUP2 MSTORE SWAP2 SWAP1 POP JUMP JUMPDEST PUSH4 0x4E487B71 PUSH1 0xE0 SHL PUSH0 MSTORE PUSH1 0x11 PUSH1 0x4 MSTORE PUSH1 0x24 PUSH0 REVERT JUMPDEST DUP2 DUP2 SUB DUP2 DUP2 GT ISZERO PUSH2 0xB2B JUMPI PUSH2 0xB2B PUSH2 0x417D JUMP JUMPDEST PUSH6 0xFFFFFFFFFFFF DUP3 DUP2 AND DUP3 DUP3 AND SUB SWAP1 DUP1 DUP3 GT ISZERO PUSH2 0x41C3 JUMPI PUSH2 0x41C3 PUSH2 0x417D JUMP JUMPDEST POP SWAP3 SWAP2 POP POP JUMP JUMPDEST PUSH0 PUSH1 0x20 DUP3 DUP5 SUB SLT ISZERO PUSH2 0x41DA JUMPI PUSH0 DUP1 REVERT JUMPDEST DUP2 MLOAD PUSH2 0x1BA2 DUP2 PUSH2 0x3CF7 JUMP JUMPDEST PUSH6 0xFFFFFFFFFFFF DUP2 DUP2 AND DUP4 DUP3 AND ADD SWAP1 DUP1 DUP3 GT ISZERO PUSH2 0x41C3 JUMPI PUSH2 0x41C3 PUSH2 0x417D JUMP JUMPDEST DUP4 DUP2 MSTORE PUSH1 0x60 DUP2 ADD PUSH2 0x4218 PUSH1 0x20 DUP4 ADD DUP6 PUSH2 0x3AFD JUMP JUMPDEST DUP3 PUSH1 0x40 DUP4 ADD MSTORE SWAP5 SWAP4 POP POP POP POP JUMP JUMPDEST PUSH0 DUP3 MLOAD PUSH2 0x4237 DUP2 DUP5 PUSH1 0x20 DUP8 ADD PUSH2 0x35FA JUMP JUMPDEST SWAP2 SWAP1 SWAP2 ADD SWAP3 SWAP2 POP POP JUMP JUMPDEST DUP1 DUP3 ADD DUP1 DUP3 GT ISZERO PUSH2 0xB2B JUMPI PUSH2 0xB2B PUSH2 0x417D JUMP JUMPDEST PUSH1 0xFF DUP2 DUP2 AND DUP4 DUP3 AND ADD SWAP1 DUP2 GT ISZERO PUSH2 0xB2B JUMPI PUSH2 0xB2B PUSH2 0x417D JUMP JUMPDEST PUSH1 0x1 DUP2 DUP2 JUMPDEST DUP1 DUP6 GT ISZERO PUSH2 0x42A7 JUMPI DUP2 PUSH0 NOT DIV DUP3 GT ISZERO PUSH2 0x428D JUMPI PUSH2 0x428D PUSH2 0x417D JUMP JUMPDEST DUP1 DUP6 AND ISZERO PUSH2 0x429A JUMPI SWAP2 DUP2 MUL SWAP2 JUMPDEST SWAP4 DUP5 SHR SWAP4 SWAP1 DUP1 MUL SWAP1 PUSH2 0x4272 JUMP JUMPDEST POP SWAP3 POP SWAP3 SWAP1 POP JUMP JUMPDEST PUSH0 DUP3 PUSH2 0x42BD JUMPI POP PUSH1 0x1 PUSH2 0xB2B JUMP JUMPDEST DUP2 PUSH2 0x42C9 JUMPI POP PUSH0 PUSH2 0xB2B JUMP JUMPDEST DUP2 PUSH1 0x1 DUP2 EQ PUSH2 0x42DF JUMPI PUSH1 0x2 DUP2 EQ PUSH2 0x42E9 JUMPI PUSH2 0x4305 JUMP JUMPDEST PUSH1 0x1 SWAP2 POP POP PUSH2 0xB2B JUMP JUMPDEST PUSH1 0xFF DUP5 GT ISZERO PUSH2 0x42FA JUMPI PUSH2 0x42FA PUSH2 0x417D JUMP JUMPDEST POP POP PUSH1 0x1 DUP3 SHL PUSH2 0xB2B JUMP JUMPDEST POP PUSH1 0x20 DUP4 LT PUSH2 0x133 DUP4 LT AND PUSH1 0x4E DUP5 LT PUSH1 0xB DUP5 LT AND OR ISZERO PUSH2 0x4328 JUMPI POP DUP2 DUP2 EXP PUSH2 0xB2B JUMP JUMPDEST PUSH2 0x4332 DUP4 DUP4 PUSH2 0x426D JUMP JUMPDEST DUP1 PUSH0 NOT DIV DUP3 GT ISZERO PUSH2 0x4345 JUMPI PUSH2 0x4345 PUSH2 0x417D JUMP JUMPDEST MUL SWAP4 SWAP3 POP POP POP JUMP JUMPDEST PUSH0 PUSH2 0x1BA2 PUSH1 0xFF DUP5 AND DUP4 PUSH2 0x42AF JUMP JUMPDEST DUP5 DUP2 MSTORE PUSH1 0xFF DUP5 AND PUSH1 0x20 DUP3 ADD MSTORE DUP3 PUSH1 0x40 DUP3 ADD MSTORE PUSH1 0x80 PUSH1 0x60 DUP3 ADD MSTORE PUSH0 PUSH2 0x12E5 PUSH1 0x80 DUP4 ADD DUP5 PUSH2 0x361C JUMP JUMPDEST DUP6 DUP2 MSTORE PUSH1 0xFF DUP6 AND PUSH1 0x20 DUP3 ADD MSTORE DUP4 PUSH1 0x40 DUP3 ADD MSTORE PUSH1 0xA0 PUSH1 0x60 DUP3 ADD MSTORE PUSH0 PUSH2 0x43A9 PUSH1 0xA0 DUP4 ADD DUP6 PUSH2 0x361C JUMP JUMPDEST DUP3 DUP2 SUB PUSH1 0x80 DUP5 ADD MSTORE PUSH2 0x1716 DUP2 DUP6 PUSH2 0x361C JUMP JUMPDEST PUSH0 PUSH1 0x20 DUP3 DUP5 SUB SLT ISZERO PUSH2 0x43CB JUMPI PUSH0 DUP1 REVERT JUMPDEST POP MLOAD SWAP2 SWAP1 POP JUMP JUMPDEST DUP1 DUP3 MUL DUP2 ISZERO DUP3 DUP3 DIV DUP5 EQ OR PUSH2 0xB2B JUMPI PUSH2 0xB2B PUSH2 0x417D JUMP JUMPDEST PUSH4 0x4E487B71 PUSH1 0xE0 SHL PUSH0 MSTORE PUSH1 0x12 PUSH1 0x4 MSTORE PUSH1 0x24 PUSH0 REVERT JUMPDEST PUSH0 DUP3 PUSH2 0x4417 JUMPI PUSH4 0x4E487B71 PUSH1 0xE0 SHL PUSH0 MSTORE PUSH1 0x12 PUSH1 0x4 MSTORE PUSH1 0x24 PUSH0 REVERT JUMPDEST POP DIV SWAP1 JUMP JUMPDEST DUP3 DUP2 MSTORE PUSH1 0x40 PUSH1 0x20 DUP3 ADD MSTORE PUSH0 PUSH2 0x13CE PUSH1 0x40 DUP4 ADD DUP5 PUSH2 0x361C JUMP JUMPDEST PUSH0 PUSH2 0x120 DUP12 DUP4 MSTORE PUSH1 0x20 PUSH1 0x1 DUP1 PUSH1 0xA0 SHL SUB DUP13 AND DUP2 DUP6 ADD MSTORE DUP2 PUSH1 0x40 DUP6 ADD MSTORE PUSH2 0x445C DUP3 DUP6 ADD DUP13 PUSH2 0x3984 JUMP JUMPDEST SWAP2 POP DUP4 DUP3 SUB PUSH1 0x60 DUP6 ADD MSTORE PUSH2 0x4470 DUP3 DUP12 PUSH2 0x39C7 JUMP JUMPDEST SWAP2 POP DUP4 DUP3 SUB PUSH1 0x80 DUP6 ADD MSTORE DUP2 DUP10 MLOAD DUP1 DUP5 MSTORE DUP3 DUP5 ADD SWAP2 POP DUP3 DUP2 PUSH1 0x5 SHL DUP6 ADD ADD DUP4 DUP13 ADD PUSH0 JUMPDEST DUP4 DUP2 LT ISZERO PUSH2 0x44C0 JUMPI PUSH1 0x1F NOT DUP8 DUP5 SUB ADD DUP6 MSTORE PUSH2 0x44AE DUP4 DUP4 MLOAD PUSH2 0x361C JUMP JUMPDEST SWAP5 DUP7 ADD SWAP5 SWAP3 POP SWAP1 DUP6 ADD SWAP1 PUSH1 0x1 ADD PUSH2 0x4492 JUMP JUMPDEST POP POP DUP7 DUP2 SUB PUSH1 0xA0 DUP9 ADD MSTORE PUSH2 0x44D4 DUP2 DUP13 PUSH2 0x39F6 JUMP JUMPDEST SWAP5 POP POP POP POP POP DUP6 PUSH1 0xC0 DUP5 ADD MSTORE DUP5 PUSH1 0xE0 DUP5 ADD MSTORE DUP3 DUP2 SUB PUSH2 0x100 DUP5 ADD MSTORE PUSH2 0x44F9 DUP2 DUP6 PUSH2 0x361C JUMP JUMPDEST SWAP13 SWAP12 POP POP POP POP POP POP POP POP POP POP POP POP JUMP JUMPDEST PUSH1 0x1F DUP3 GT ISZERO PUSH2 0x127E JUMPI DUP1 PUSH0 MSTORE PUSH1 0x20 PUSH0 KECCAK256 PUSH1 0x1F DUP5 ADD PUSH1 0x5 SHR DUP2 ADD PUSH1 0x20 DUP6 LT ISZERO PUSH2 0x452E JUMPI POP DUP1 JUMPDEST PUSH1 0x1F DUP5 ADD PUSH1 0x5 SHR DUP3 ADD SWAP2 POP JUMPDEST DUP2 DUP2 LT ISZERO PUSH2 0x454D JUMPI PUSH0 DUP2 SSTORE PUSH1 0x1 ADD PUSH2 0x453A JUMP JUMPDEST POP POP POP POP POP JUMP JUMPDEST DUP2 MLOAD PUSH1 0x1 PUSH1 0x1 PUSH1 0x40 SHL SUB DUP2 GT ISZERO PUSH2 0x456D JUMPI PUSH2 0x456D PUSH2 0x366F JUMP JUMPDEST PUSH2 0x4581 DUP2 PUSH2 0x457B DUP5 SLOAD PUSH2 0x40BA JUMP JUMPDEST DUP5 PUSH2 0x4509 JUMP JUMPDEST PUSH1 0x20 DUP1 PUSH1 0x1F DUP4 GT PUSH1 0x1 DUP2 EQ PUSH2 0x45B4 JUMPI PUSH0 DUP5 ISZERO PUSH2 0x459D JUMPI POP DUP6 DUP4 ADD MLOAD JUMPDEST PUSH0 NOT PUSH1 0x3 DUP7 SWAP1 SHL SHR NOT AND PUSH1 0x1 DUP6 SWAP1 SHL OR DUP6 SSTORE PUSH2 0x1FBE JUMP JUMPDEST PUSH0 DUP6 DUP2 MSTORE PUSH1 0x20 DUP2 KECCAK256 PUSH1 0x1F NOT DUP7 AND SWAP2 JUMPDEST DUP3 DUP2 LT ISZERO PUSH2 0x45E2 JUMPI DUP9 DUP7 ADD MLOAD DUP3 SSTORE SWAP5 DUP5 ADD SWAP5 PUSH1 0x1 SWAP1 SWAP2 ADD SWAP1 DUP5 ADD PUSH2 0x45C3 JUMP JUMPDEST POP DUP6 DUP3 LT ISZERO PUSH2 0x45FF JUMPI DUP8 DUP6 ADD MLOAD PUSH0 NOT PUSH1 0x3 DUP9 SWAP1 SHL PUSH1 0xF8 AND SHR NOT AND DUP2 SSTORE JUMPDEST POP POP POP POP POP PUSH1 0x1 SWAP1 DUP2 SHL ADD SWAP1 SSTORE POP JUMP INVALID LOG2 PUSH5 0x6970667358 0x22 SLT KECCAK256 CREATE2 PUSH12 0xCF52776A23CBE9828471EABD PUSH5 0xD3161721C2 GT 0x4D PUSH19 0x591AC201637F3E0E0B64736F6C634300081700 CALLER "
		},
		"gasEstimates": {
			"creation": {
				"codeDepositCost": "3597800",
				"executionCost": "infinite",
				"totalCost": "infinite"
			},
			"external": {
				"BALLOT_TYPEHASH()": "327",
				"CLOCK_MODE()": "infinite",
				"COUNTING_MODE()": "infinite",
				"EXTENDED_BALLOT_TYPEHASH()": "328",
				"cancel(address[],uint256[],bytes[],bytes32)": "infinite",
				"cancel(uint256)": "infinite",
				"castVote(uint256,uint8)": "infinite",
				"castVoteBySig(uint256,uint8,address,bytes)": "infinite",
				"castVoteWithReason(uint256,uint8,string)": "infinite",
				"castVoteWithReasonAndParams(uint256,uint8,string,bytes)": "infinite",
				"castVoteWithReasonAndParamsBySig(uint256,uint8,address,string,bytes,bytes)": "infinite",
				"clock()": "infinite",
				"eip712Domain()": "infinite",
				"execute(address[],uint256[],bytes[],bytes32)": "infinite",
				"execute(uint256)": "infinite",
				"getVotes(address,uint256)": "infinite",
				"getVotesWithParams(address,uint256,bytes)": "infinite",
				"hasVoted(uint256,address)": "2758",
				"hashProposal(address[],uint256[],bytes[],bytes32)": "infinite",
				"name()": "infinite",
				"nonces(address)": "2624",
				"onERC1155BatchReceived(address,address,uint256[],uint256[],bytes)": "infinite",
				"onERC1155Received(address,address,uint256,uint256,bytes)": "infinite",
				"onERC721Received(address,address,uint256,bytes)": "infinite",
				"proposalCount()": "2358",
				"proposalDeadline(uint256)": "2669",
				"proposalDetails(uint256)": "infinite",
				"proposalDetailsAt(uint256)": "infinite",
				"proposalEta(uint256)": "2536",
				"proposalNeedsQueuing(uint256)": "333",
				"proposalProposer(uint256)": "2609",
				"proposalSnapshot(uint256)": "2560",
				"proposalThreshold()": "2439",
				"proposalVotes(uint256)": "6772",
				"propose(address[],uint256[],bytes[],string)": "infinite",
				"queue(address[],uint256[],bytes[],bytes32)": "infinite",
				"queue(uint256)": "infinite",
				"quorum(uint256)": "infinite",
				"quorumDenominator()": "259",
				"quorumNumerator()": "4805",
				"quorumNumerator(uint256)": "infinite",
				"quorumVotes()": "304",
				"relay(address,uint256,bytes)": "infinite",
				"setProposalThreshold(uint256)": "25944",
				"setVotingDelay(uint48)": "infinite",
				"setVotingPeriod(uint32)": "28150",
				"state(uint256)": "infinite",
				"supportsInterface(bytes4)": "525",
				"token()": "infinite",
				"updateQuorumNumerator(uint256)": "infinite",
				"version()": "infinite",
				"votingDelay()": "2380",
				"votingPeriod()": "2372"
			},
			"internal": {
				"_propose(address[] memory,uint256[] memory,bytes memory[] memory,string memory,address)": "infinite"
			}
		},
		"methodIdentifiers": {
			"BALLOT_TYPEHASH()": "deaaa7cc",
			"CLOCK_MODE()": "4bf5d7e9",
			"COUNTING_MODE()": "dd4e2ba5",
			"EXTENDED_BALLOT_TYPEHASH()": "2fe3e261",
			"cancel(address[],uint256[],bytes[],bytes32)": "452115d6",
			"cancel(uint256)": "40e58ee5",
			"castVote(uint256,uint8)": "56781388",
			"castVoteBySig(uint256,uint8,address,bytes)": "8ff262e3",
			"castVoteWithReason(uint256,uint8,string)": "7b3c71d3",
			"castVoteWithReasonAndParams(uint256,uint8,string,bytes)": "5f398a14",
			"castVoteWithReasonAndParamsBySig(uint256,uint8,address,string,bytes,bytes)": "5b8d0e0d",
			"clock()": "91ddadf4",
			"eip712Domain()": "84b0196e",
			"execute(address[],uint256[],bytes[],bytes32)": "2656227d",
			"execute(uint256)": "fe0d94c1",
			"getVotes(address,uint256)": "eb9019d4",
			"getVotesWithParams(address,uint256,bytes)": "9a802a6d",
			"hasVoted(uint256,address)": "43859632",
			"hashProposal(address[],uint256[],bytes[],bytes32)": "c59057e4",
			"name()": "06fdde03",
			"nonces(address)": "7ecebe00",
			"onERC1155BatchReceived(address,address,uint256[],uint256[],bytes)": "bc197c81",
			"onERC1155Received(address,address,uint256,uint256,bytes)": "f23a6e61",
			"onERC721Received(address,address,uint256,bytes)": "150b7a02",
			"proposalCount()": "da35c664",
			"proposalDeadline(uint256)": "c01f9e37",
			"proposalDetails(uint256)": "16e9eaec",
			"proposalDetailsAt(uint256)": "2e82db94",
			"proposalEta(uint256)": "ab58fb8e",
			"proposalNeedsQueuing(uint256)": "a9a95294",
			"proposalProposer(uint256)": "143489d0",
			"proposalSnapshot(uint256)": "2d63f693",
			"proposalThreshold()": "b58131b0",
			"proposalVotes(uint256)": "544ffc9c",
			"propose(address[],uint256[],bytes[],string)": "7d5e81e2",
			"queue(address[],uint256[],bytes[],bytes32)": "160cbed7",
			"queue(uint256)": "ddf0b009",
			"quorum(uint256)": "f8ce560a",
			"quorumDenominator()": "97c3d334",
			"quorumNumerator()": "a7713a70",
			"quorumNumerator(uint256)": "60c4247f",
			"quorumVotes()": "24bc1a64",
			"relay(address,uint256,bytes)": "c28bc2fa",
			"setProposalThreshold(uint256)": "ece40cc1",
			"setVotingDelay(uint48)": "79051887",
			"setVotingPeriod(uint32)": "e540d01d",
			"state(uint256)": "3e4f49e6",
			"supportsInterface(bytes4)": "01ffc9a7",
			"token()": "fc0c546a",
			"updateQuorumNumerator(uint256)": "06f3f9e6",
			"version()": "54fd4d50",
			"votingDelay()": "3932abb1",
			"votingPeriod()": "02a251a3"
		}
	},
	"abi": [
		{
			"inputs": [
				{
					"internalType": "contract IVotes",
					"name": "_token",
					"type": "address"
				}
			],
			"stateMutability": "nonpayable",
			"type": "constructor"
		},
		{
			"inputs": [],
			"name": "CheckpointUnorderedInsertion",
			"type": "error"
		},
		{
			"inputs": [],
			"name": "FailedInnerCall",
			"type": "error"
		},
		{
			"inputs": [
				{
					"internalType": "address",
					"name": "voter",
					"type": "address"
				}
			],
			"name": "GovernorAlreadyCastVote",
			"type": "error"
		},
		{
			"inputs": [
				{
					"internalType": "uint256",
					"name": "proposalId",
					"type": "uint256"
				}
			],
			"name": "GovernorAlreadyQueuedProposal",
			"type": "error"
		},
		{
			"inputs": [],
			"name": "GovernorDisabledDeposit",
			"type": "error"
		},
		{
			"inputs": [
				{
					"internalType": "address",
					"name": "proposer",
					"type": "address"
				},
				{
					"internalType": "uint256",
					"name": "votes",
					"type": "uint256"
				},
				{
					"internalType": "uint256",
					"name": "threshold",
					"type": "uint256"
				}
			],
			"name": "GovernorInsufficientProposerVotes",
			"type": "error"
		},
		{
			"inputs": [
				{
					"internalType": "uint256",
					"name": "targets",
					"type": "uint256"
				},
				{
					"internalType": "uint256",
					"name": "calldatas",
					"type": "uint256"
				},
				{
					"internalType": "uint256",
					"name": "values",
					"type": "uint256"
				}
			],
			"name": "GovernorInvalidProposalLength",
			"type": "error"
		},
		{
			"inputs": [
				{
					"internalType": "uint256",
					"name": "quorumNumerator",
					"type": "uint256"
				},
				{
					"internalType": "uint256",
					"name": "quorumDenominator",
					"type": "uint256"
				}
			],
			"name": "GovernorInvalidQuorumFraction",
			"type": "error"
		},
		{
			"inputs": [
				{
					"internalType": "address",
					"name": "voter",
					"type": "address"
				}
			],
			"name": "GovernorInvalidSignature",
			"type": "error"
		},
		{
			"inputs": [],
			"name": "GovernorInvalidVoteType",
			"type": "error"
		},
		{
			"inputs": [
				{
					"internalType": "uint256",
					"name": "votingPeriod",
					"type": "uint256"
				}
			],
			"name": "GovernorInvalidVotingPeriod",
			"type": "error"
		},
		{
			"inputs": [
				{
					"internalType": "uint256",
					"name": "proposalId",
					"type": "uint256"
				}
			],
			"name": "GovernorNonexistentProposal",
			"type": "error"
		},
		{
			"inputs": [
				{
					"internalType": "uint256",
					"name": "proposalId",
					"type": "uint256"
				}
			],
			"name": "GovernorNotQueuedProposal",
			"type": "error"
		},
		{
			"inputs": [
				{
					"internalType": "address",
					"name": "account",
					"type": "address"
				}
			],
			"name": "GovernorOnlyExecutor",
			"type": "error"
		},
		{
			"inputs": [
				{
					"internalType": "address",
					"name": "account",
					"type": "address"
				}
			],
			"name": "GovernorOnlyProposer",
			"type": "error"
		},
		{
			"inputs": [],
			"name": "GovernorQueueNotImplemented",
			"type": "error"
		},
		{
			"inputs": [
				{
					"internalType": "address",
					"name": "proposer",
					"type": "address"
				}
			],
			"name": "GovernorRestrictedProposer",
			"type": "error"
		},
		{
			"inputs": [
				{
					"internalType": "uint256",
					"name": "proposalId",
					"type": "uint256"
				},
				{
					"internalType": "enum IGovernor.ProposalState",
					"name": "current",
					"type": "uint8"
				},
				{
					"internalType": "bytes32",
					"name": "expectedStates",
					"type": "bytes32"
				}
			],
			"name": "GovernorUnexpectedProposalState",
			"type": "error"
		},
		{
			"inputs": [
				{
					"internalType": "address",
					"name": "account",
					"type": "address"
				},
				{
					"internalType": "uint256",
					"name": "currentNonce",
					"type": "uint256"
				}
			],
			"name": "InvalidAccountNonce",
			"type": "error"
		},
		{
			"inputs": [],
			"name": "InvalidShortString",
			"type": "error"
		},
		{
			"inputs": [],
			"name": "QueueEmpty",
			"type": "error"
		},
		{
			"inputs": [],
			"name": "QueueFull",
			"type": "error"
		},
		{
			"inputs": [
				{
					"internalType": "uint8",
					"name": "bits",
					"type": "uint8"
				},
				{
					"internalType": "uint256",
					"name": "value",
					"type": "uint256"
				}
			],
			"name": "SafeCastOverflowedUintDowncast",
			"type": "error"
		},
		{
			"inputs": [
				{
					"internalType": "string",
					"name": "str",
					"type": "string"
				}
			],
			"name": "StringTooLong",
			"type": "error"
		},
		{
			"anonymous": false,
			"inputs": [],
			"name": "EIP712DomainChanged",
			"type": "event"
		},
		{
			"anonymous": false,
			"inputs": [
				{
					"indexed": false,
					"internalType": "uint256",
					"name": "proposalId",
					"type": "uint256"
				}
			],
			"name": "ProposalCanceled",
			"type": "event"
		},
		{
			"anonymous": false,
			"inputs": [
				{
					"indexed": false,
					"internalType": "uint256",
					"name": "proposalId",
					"type": "uint256"
				},
				{
					"indexed": false,
					"internalType": "address",
					"name": "proposer",
					"type": "address"
				},
				{
					"indexed": false,
					"internalType": "address[]",
					"name": "targets",
					"type": "address[]"
				},
				{
					"indexed": false,
					"internalType": "uint256[]",
					"name": "values",
					"type": "uint256[]"
				},
				{
					"indexed": false,
					"internalType": "string[]",
					"name": "signatures",
					"type": "string[]"
				},
				{
					"indexed": false,
					"internalType": "bytes[]",
					"name": "calldatas",
					"type": "bytes[]"
				},
				{
					"indexed": false,
					"internalType": "uint256",
					"name": "voteStart",
					"type": "uint256"
				},
				{
					"indexed": false,
					"internalType": "uint256",
					"name": "voteEnd",
					"type": "uint256"
				},
				{
					"indexed": false,
					"internalType": "string",
					"name": "description",
					"type": "string"
				}
			],
			"name": "ProposalCreated",
			"type": "event"
		},
		{
			"anonymous": false,
			"inputs": [
				{
					"indexed": false,
					"internalType": "uint256",
					"name": "proposalId",
					"type": "uint256"
				}
			],
			"name": "ProposalExecuted",
			"type": "event"
		},
		{
			"anonymous": false,
			"inputs": [
				{
					"indexed": false,
					"internalType": "uint256",
					"name": "proposalId",
					"type": "uint256"
				},
				{
					"indexed": false,
					"internalType": "uint256",
					"name": "etaSeconds",
					"type": "uint256"
				}
			],
			"name": "ProposalQueued",
			"type": "event"
		},
		{
			"anonymous": false,
			"inputs": [
				{
					"indexed": false,
					"internalType": "uint256",
					"name": "oldProposalThreshold",
					"type": "uint256"
				},
				{
					"indexed": false,
					"internalType": "uint256",
					"name": "newProposalThreshold",
					"type": "uint256"
				}
			],
			"name": "ProposalThresholdSet",
			"type": "event"
		},
		{
			"anonymous": false,
			"inputs": [
				{
					"indexed": false,
					"internalType": "uint256",
					"name": "oldQuorumNumerator",
					"type": "uint256"
				},
				{
					"indexed": false,
					"internalType": "uint256",
					"name": "newQuorumNumerator",
					"type": "uint256"
				}
			],
			"name": "QuorumNumeratorUpdated",
			"type": "event"
		},
		{
			"anonymous": false,
			"inputs": [
				{
					"indexed": true,
					"internalType": "address",
					"name": "voter",
					"type": "address"
				},
				{
					"indexed": false,
					"internalType": "uint256",
					"name": "proposalId",
					"type": "uint256"
				},
				{
					"indexed": false,
					"internalType": "uint8",
					"name": "support",
					"type": "uint8"
				},
				{
					"indexed": false,
					"internalType": "uint256",
					"name": "weight",
					"type": "uint256"
				},
				{
					"indexed": false,
					"internalType": "string",
					"name": "reason",
					"type": "string"
				}
			],
			"name": "VoteCast",
			"type": "event"
		},
		{
			"anonymous": false,
			"inputs": [
				{
					"indexed": true,
					"internalType": "address",
					"name": "voter",
					"type": "address"
				},
				{
					"indexed": false,
					"internalType": "uint256",
					"name": "proposalId",
					"type": "uint256"
				},
				{
					"indexed": false,
					"internalType": "uint8",
					"name": "support",
					"type": "uint8"
				},
				{
					"indexed": false,
					"internalType": "uint256",
					"name": "weight",
					"type": "uint256"
				},
				{
					"indexed": false,
					"internalType": "string",
					"name": "reason",
					"type": "string"
				},
				{
					"indexed": false,
					"internalType": "bytes",
					"name": "params",
					"type": "bytes"
				}
			],
			"name": "VoteCastWithParams",
			"type": "event"
		},
		{
			"anonymous": false,
			"inputs": [
				{
					"indexed": false,
					"internalType": "uint256",
					"name": "oldVotingDelay",
					"type": "uint256"
				},
				{
					"indexed": false,
					"internalType": "uint256",
					"name": "newVotingDelay",
					"type": "uint256"
				}
			],
			"name": "VotingDelaySet",
			"type": "event"
		},
		{
			"anonymous": false,
			"inputs": [
				{
					"indexed": false,
					"internalType": "uint256",
					"name": "oldVotingPeriod",
					"type": "uint256"
				},
				{
					"indexed": false,
					"internalType": "uint256",
					"name": "newVotingPeriod",
					"type": "uint256"
				}
			],
			"name": "VotingPeriodSet",
			"type": "event"
		},
		{
			"inputs": [],
			"name": "BALLOT_TYPEHASH",
			"outputs": [
				{
					"internalType": "bytes32",
					"name": "",
					"type": "bytes32"
				}
			],
			"stateMutability": "view",
			"type": "function"
		},
		{
			"inputs": [],
			"name": "CLOCK_MODE",
			"outputs": [
				{
					"internalType": "string",
					"name": "",
					"type": "string"
				}
			],
			"stateMutability": "view",
			"type": "function"
		},
		{
			"inputs": [],
			"name": "COUNTING_MODE",
			"outputs": [
				{
					"internalType": "string",
					"name": "",
					"type": "string"
				}
			],
			"stateMutability": "pure",
			"type": "function"
		},
		{
			"inputs": [],
			"name": "EXTENDED_BALLOT_TYPEHASH",
			"outputs": [
				{
					"internalType": "bytes32",
					"name": "",
					"type": "bytes32"
				}
			],
			"stateMutability": "view",
			"type": "function"
		},
		{
			"inputs": [
				{
					"internalType": "uint256",
					"name": "proposalId",
					"type": "uint256"
				}
			],
			"name": "cancel",
			"outputs": [],
			"stateMutability": "nonpayable",
			"type": "function"
		},
		{
			"inputs": [
				{
					"internalType": "address[]",
					"name": "targets",
					"type": "address[]"
				},
				{
					"internalType": "uint256[]",
					"name": "values",
					"type": "uint256[]"
				},
				{
					"internalType": "bytes[]",
					"name": "calldatas",
					"type": "bytes[]"
				},
				{
					"internalType": "bytes32",
					"name": "descriptionHash",
					"type": "bytes32"
				}
			],
			"name": "cancel",
			"outputs": [
				{
					"internalType": "uint256",
					"name": "",
					"type": "uint256"
				}
			],
			"stateMutability": "nonpayable",
			"type": "function"
		},
		{
			"inputs": [
				{
					"internalType": "uint256",
					"name": "proposalId",
					"type": "uint256"
				},
				{
					"internalType": "uint8",
					"name": "support",
					"type": "uint8"
				}
			],
			"name": "castVote",
			"outputs": [
				{
					"internalType": "uint256",
					"name": "",
					"type": "uint256"
				}
			],
			"stateMutability": "nonpayable",
			"type": "function"
		},
		{
			"inputs": [
				{
					"internalType": "uint256",
					"name": "proposalId",
					"type": "uint256"
				},
				{
					"internalType": "uint8",
					"name": "support",
					"type": "uint8"
				},
				{
					"internalType": "address",
					"name": "voter",
					"type": "address"
				},
				{
					"internalType": "bytes",
					"name": "signature",
					"type": "bytes"
				}
			],
			"name": "castVoteBySig",
			"outputs": [
				{
					"internalType": "uint256",
					"name": "",
					"type": "uint256"
				}
			],
			"stateMutability": "nonpayable",
			"type": "function"
		},
		{
			"inputs": [
				{
					"internalType": "uint256",
					"name": "proposalId",
					"type": "uint256"
				},
				{
					"internalType": "uint8",
					"name": "support",
					"type": "uint8"
				},
				{
					"internalType": "string",
					"name": "reason",
					"type": "string"
				}
			],
			"name": "castVoteWithReason",
			"outputs": [
				{
					"internalType": "uint256",
					"name": "",
					"type": "uint256"
				}
			],
			"stateMutability": "nonpayable",
			"type": "function"
		},
		{
			"inputs": [
				{
					"internalType": "uint256",
					"name": "proposalId",
					"type": "uint256"
				},
				{
					"internalType": "uint8",
					"name": "support",
					"type": "uint8"
				},
				{
					"internalType": "string",
					"name": "reason",
					"type": "string"
				},
				{
					"internalType": "bytes",
					"name": "params",
					"type": "bytes"
				}
			],
			"name": "castVoteWithReasonAndParams",
			"outputs": [
				{
					"internalType": "uint256",
					"name": "",
					"type": "uint256"
				}
			],
			"stateMutability": "nonpayable",
			"type": "function"
		},
		{
			"inputs": [
				{
					"internalType": "uint256",
					"name": "proposalId",
					"type": "uint256"
				},
				{
					"internalType": "uint8",
					"name": "support",
					"type": "uint8"
				},
				{
					"internalType": "address",
					"name": "voter",
					"type": "address"
				},
				{
					"internalType": "string",
					"name": "reason",
					"type": "string"
				},
				{
					"internalType": "bytes",
					"name": "params",
					"type": "bytes"
				},
				{
					"internalType": "bytes",
					"name": "signature",
					"type": "bytes"
				}
			],
			"name": "castVoteWithReasonAndParamsBySig",
			"outputs": [
				{
					"internalType": "uint256",
					"name": "",
					"type": "uint256"
				}
			],
			"stateMutability": "nonpayable",
			"type": "function"
		},
		{
			"inputs": [],
			"name": "clock",
			"outputs": [
				{
					"internalType": "uint48",
					"name": "",
					"type": "uint48"
				}
			],
			"stateMutability": "view",
			"type": "function"
		},
		{
			"inputs": [],
			"name": "eip712Domain",
			"outputs": [
				{
					"internalType": "bytes1",
					"name": "fields",
					"type": "bytes1"
				},
				{
					"internalType": "string",
					"name": "name",
					"type": "string"
				},
				{
					"internalType": "string",
					"name": "version",
					"type": "string"
				},
				{
					"internalType": "uint256",
					"name": "chainId",
					"type": "uint256"
				},
				{
					"internalType": "address",
					"name": "verifyingContract",
					"type": "address"
				},
				{
					"internalType": "bytes32",
					"name": "salt",
					"type": "bytes32"
				},
				{
					"internalType": "uint256[]",
					"name": "extensions",
					"type": "uint256[]"
				}
			],
			"stateMutability": "view",
			"type": "function"
		},
		{
			"inputs": [
				{
					"internalType": "address[]",
					"name": "targets",
					"type": "address[]"
				},
				{
					"internalType": "uint256[]",
					"name": "values",
					"type": "uint256[]"
				},
				{
					"internalType": "bytes[]",
					"name": "calldatas",
					"type": "bytes[]"
				},
				{
					"internalType": "bytes32",
					"name": "descriptionHash",
					"type": "bytes32"
				}
			],
			"name": "execute",
			"outputs": [
				{
					"internalType": "uint256",
					"name": "",
					"type": "uint256"
				}
			],
			"stateMutability": "payable",
			"type": "function"
		},
		{
			"inputs": [
				{
					"internalType": "uint256",
					"name": "proposalId",
					"type": "uint256"
				}
			],
			"name": "execute",
			"outputs": [],
			"stateMutability": "payable",
			"type": "function"
		},
		{
			"inputs": [
				{
					"internalType": "address",
					"name": "account",
					"type": "address"
				},
				{
					"internalType": "uint256",
					"name": "timepoint",
					"type": "uint256"
				}
			],
			"name": "getVotes",
			"outputs": [
				{
					"internalType": "uint256",
					"name": "",
					"type": "uint256"
				}
			],
			"stateMutability": "view",
			"type": "function"
		},
		{
			"inputs": [
				{
					"internalType": "address",
					"name": "account",
					"type": "address"
				},
				{
					"internalType": "uint256",
					"name": "timepoint",
					"type": "uint256"
				},
				{
					"internalType": "bytes",
					"name": "params",
					"type": "bytes"
				}
			],
			"name": "getVotesWithParams",
			"outputs": [
				{
					"internalType": "uint256",
					"name": "",
					"type": "uint256"
				}
			],
			"stateMutability": "view",
			"type": "function"
		},
		{
			"inputs": [
				{
					"internalType": "uint256",
					"name": "proposalId",
					"type": "uint256"
				},
				{
					"internalType": "address",
					"name": "account",
					"type": "address"
				}
			],
			"name": "hasVoted",
			"outputs": [
				{
					"internalType": "bool",
					"name": "",
					"type": "bool"
				}
			],
			"stateMutability": "view",
			"type": "function"
		},
		{
			"inputs": [
				{
					"internalType": "address[]",
					"name": "targets",
					"type": "address[]"
				},
				{
					"internalType": "uint256[]",
					"name": "values",
					"type": "uint256[]"
				},
				{
					"internalType": "bytes[]",
					"name": "calldatas",
					"type": "bytes[]"
				},
				{
					"internalType": "bytes32",
					"name": "descriptionHash",
					"type": "bytes32"
				}
			],
			"name": "hashProposal",
			"outputs": [
				{
					"internalType": "uint256",
					"name": "",
					"type": "uint256"
				}
			],
			"stateMutability": "pure",
			"type": "function"
		},
		{
			"inputs": [],
			"name": "name",
			"outputs": [
				{
					"internalType": "string",
					"name": "",
					"type": "string"
				}
			],
			"stateMutability": "view",
			"type": "function"
		},
		{
			"inputs": [
				{
					"internalType": "address",
					"name": "owner",
					"type": "address"
				}
			],
			"name": "nonces",
			"outputs": [
				{
					"internalType": "uint256",
					"name": "",
					"type": "uint256"
				}
			],
			"stateMutability": "view",
			"type": "function"
		},
		{
			"inputs": [
				{
					"internalType": "address",
					"name": "",
					"type": "address"
				},
				{
					"internalType": "address",
					"name": "",
					"type": "address"
				},
				{
					"internalType": "uint256[]",
					"name": "",
					"type": "uint256[]"
				},
				{
					"internalType": "uint256[]",
					"name": "",
					"type": "uint256[]"
				},
				{
					"internalType": "bytes",
					"name": "",
					"type": "bytes"
				}
			],
			"name": "onERC1155BatchReceived",
			"outputs": [
				{
					"internalType": "bytes4",
					"name": "",
					"type": "bytes4"
				}
			],
			"stateMutability": "nonpayable",
			"type": "function"
		},
		{
			"inputs": [
				{
					"internalType": "address",
					"name": "",
					"type": "address"
				},
				{
					"internalType": "address",
					"name": "",
					"type": "address"
				},
				{
					"internalType": "uint256",
					"name": "",
					"type": "uint256"
				},
				{
					"internalType": "uint256",
					"name": "",
					"type": "uint256"
				},
				{
					"internalType": "bytes",
					"name": "",
					"type": "bytes"
				}
			],
			"name": "onERC1155Received",
			"outputs": [
				{
					"internalType": "bytes4",
					"name": "",
					"type": "bytes4"
				}
			],
			"stateMutability": "nonpayable",
			"type": "function"
		},
		{
			"inputs": [
				{
					"internalType": "address",
					"name": "",
					"type": "address"
				},
				{
					"internalType": "address",
					"name": "",
					"type": "address"
				},
				{
					"internalType": "uint256",
					"name": "",
					"type": "uint256"
				},
				{
					"internalType": "bytes",
					"name": "",
					"type": "bytes"
				}
			],
			"name": "onERC721Received",
			"outputs": [
				{
					"internalType": "bytes4",
					"name": "",
					"type": "bytes4"
				}
			],
			"stateMutability": "nonpayable",
			"type": "function"
		},
		{
			"inputs": [],
			"name": "proposalCount",
			"outputs": [
				{
					"internalType": "uint256",
					"name": "",
					"type": "uint256"
				}
			],
			"stateMutability": "view",
			"type": "function"
		},
		{
			"inputs": [
				{
					"internalType": "uint256",
					"name": "proposalId",
					"type": "uint256"
				}
			],
			"name": "proposalDeadline",
			"outputs": [
				{
					"internalType": "uint256",
					"name": "",
					"type": "uint256"
				}
			],
			"stateMutability": "view",
			"type": "function"
		},
		{
			"inputs": [
				{
					"internalType": "uint256",
					"name": "proposalId",
					"type": "uint256"
				}
			],
			"name": "proposalDetails",
			"outputs": [
				{
					"internalType": "address[]",
					"name": "",
					"type": "address[]"
				},
				{
					"internalType": "uint256[]",
					"name": "",
					"type": "uint256[]"
				},
				{
					"internalType": "bytes[]",
					"name": "",
					"type": "bytes[]"
				},
				{
					"internalType": "bytes32",
					"name": "",
					"type": "bytes32"
				}
			],
			"stateMutability": "view",
			"type": "function"
		},
		{
			"inputs": [
				{
					"internalType": "uint256",
					"name": "index",
					"type": "uint256"
				}
			],
			"name": "proposalDetailsAt",
			"outputs": [
				{
					"internalType": "uint256",
					"name": "",
					"type": "uint256"
				},
				{
					"internalType": "address[]",
					"name": "",
					"type": "address[]"
				},
				{
					"internalType": "uint256[]",
					"name": "",
					"type": "uint256[]"
				},
				{
					"internalType": "bytes[]",
					"name": "",
					"type": "bytes[]"
				},
				{
					"internalType": "bytes32",
					"name": "",
					"type": "bytes32"
				}
			],
			"stateMutability": "view",
			"type": "function"
		},
		{
			"inputs": [
				{
					"internalType": "uint256",
					"name": "proposalId",
					"type": "uint256"
				}
			],
			"name": "proposalEta",
			"outputs": [
				{
					"internalType": "uint256",
					"name": "",
					"type": "uint256"
				}
			],
			"stateMutability": "view",
			"type": "function"
		},
		{
			"inputs": [
				{
					"internalType": "uint256",
					"name": "",
					"type": "uint256"
				}
			],
			"name": "proposalNeedsQueuing",
			"outputs": [
				{
					"internalType": "bool",
					"name": "",
					"type": "bool"
				}
			],
			"stateMutability": "view",
			"type": "function"
		},
		{
			"inputs": [
				{
					"internalType": "uint256",
					"name": "proposalId",
					"type": "uint256"
				}
			],
			"name": "proposalProposer",
			"outputs": [
				{
					"internalType": "address",
					"name": "",
					"type": "address"
				}
			],
			"stateMutability": "view",
			"type": "function"
		},
		{
			"inputs": [
				{
					"internalType": "uint256",
					"name": "proposalId",
					"type": "uint256"
				}
			],
			"name": "proposalSnapshot",
			"outputs": [
				{
					"internalType": "uint256",
					"name": "",
					"type": "uint256"
				}
			],
			"stateMutability": "view",
			"type": "function"
		},
		{
			"inputs": [],
			"name": "proposalThreshold",
			"outputs": [
				{
					"internalType": "uint256",
					"name": "",
					"type": "uint256"
				}
			],
			"stateMutability": "view",
			"type": "function"
		},
		{
			"inputs": [
				{
					"internalType": "uint256",
					"name": "proposalId",
					"type": "uint256"
				}
			],
			"name": "proposalVotes",
			"outputs": [
				{
					"internalType": "uint256",
					"name": "againstVotes",
					"type": "uint256"
				},
				{
					"internalType": "uint256",
					"name": "forVotes",
					"type": "uint256"
				},
				{
					"internalType": "uint256",
					"name": "abstainVotes",
					"type": "uint256"
				}
			],
			"stateMutability": "view",
			"type": "function"
		},
		{
			"inputs": [
				{
					"internalType": "address[]",
					"name": "targets",
					"type": "address[]"
				},
				{
					"internalType": "uint256[]",
					"name": "values",
					"type": "uint256[]"
				},
				{
					"internalType": "bytes[]",
					"name": "calldatas",
					"type": "bytes[]"
				},
				{
					"internalType": "string",
					"name": "description",
					"type": "string"
				}
			],
			"name": "propose",
			"outputs": [
				{
					"internalType": "uint256",
					"name": "",
					"type": "uint256"
				}
			],
			"stateMutability": "nonpayable",
			"type": "function"
		},
		{
			"inputs": [
				{
					"internalType": "address[]",
					"name": "targets",
					"type": "address[]"
				},
				{
					"internalType": "uint256[]",
					"name": "values",
					"type": "uint256[]"
				},
				{
					"internalType": "bytes[]",
					"name": "calldatas",
					"type": "bytes[]"
				},
				{
					"internalType": "bytes32",
					"name": "descriptionHash",
					"type": "bytes32"
				}
			],
			"name": "queue",
			"outputs": [
				{
					"internalType": "uint256",
					"name": "",
					"type": "uint256"
				}
			],
			"stateMutability": "nonpayable",
			"type": "function"
		},
		{
			"inputs": [
				{
					"internalType": "uint256",
					"name": "proposalId",
					"type": "uint256"
				}
			],
			"name": "queue",
			"outputs": [],
			"stateMutability": "nonpayable",
			"type": "function"
		},
		{
			"inputs": [
				{
					"internalType": "uint256",
					"name": "blockNumber",
					"type": "uint256"
				}
			],
			"name": "quorum",
			"outputs": [
				{
					"internalType": "uint256",
					"name": "",
					"type": "uint256"
				}
			],
			"stateMutability": "view",
			"type": "function"
		},
		{
			"inputs": [],
			"name": "quorumDenominator",
			"outputs": [
				{
					"internalType": "uint256",
					"name": "",
					"type": "uint256"
				}
			],
			"stateMutability": "view",
			"type": "function"
		},
		{
			"inputs": [
				{
					"internalType": "uint256",
					"name": "timepoint",
					"type": "uint256"
				}
			],
			"name": "quorumNumerator",
			"outputs": [
				{
					"internalType": "uint256",
					"name": "",
					"type": "uint256"
				}
			],
			"stateMutability": "view",
			"type": "function"
		},
		{
			"inputs": [],
			"name": "quorumNumerator",
			"outputs": [
				{
					"internalType": "uint256",
					"name": "",
					"type": "uint256"
				}
			],
			"stateMutability": "view",
			"type": "function"
		},
		{
			"inputs": [],
			"name": "quorumVotes",
			"outputs": [
				{
					"internalType": "uint256",
					"name": "",
					"type": "uint256"
				}
			],
			"stateMutability": "pure",
			"type": "function"
		},
		{
			"inputs": [
				{
					"internalType": "address",
					"name": "target",
					"type": "address"
				},
				{
					"internalType": "uint256",
					"name": "value",
					"type": "uint256"
				},
				{
					"internalType": "bytes",
					"name": "data",
					"type": "bytes"
				}
			],
			"name": "relay",
			"outputs": [],
			"stateMutability": "payable",
			"type": "function"
		},
		{
			"inputs": [
				{
					"internalType": "uint256",
					"name": "newProposalThreshold",
					"type": "uint256"
				}
			],
			"name": "setProposalThreshold",
			"outputs": [],
			"stateMutability": "nonpayable",
			"type": "function"
		},
		{
			"inputs": [
				{
					"internalType": "uint48",
					"name": "newVotingDelay",
					"type": "uint48"
				}
			],
			"name": "setVotingDelay",
			"outputs": [],
			"stateMutability": "nonpayable",
			"type": "function"
		},
		{
			"inputs": [
				{
					"internalType": "uint32",
					"name": "newVotingPeriod",
					"type": "uint32"
				}
			],
			"name": "setVotingPeriod",
			"outputs": [],
			"stateMutability": "nonpayable",
			"type": "function"
		},
		{
			"inputs": [
				{
					"internalType": "uint256",
					"name": "proposalId",
					"type": "uint256"
				}
			],
			"name": "state",
			"outputs": [
				{
					"internalType": "enum IGovernor.ProposalState",
					"name": "",
					"type": "uint8"
				}
			],
			"stateMutability": "view",
			"type": "function"
		},
		{
			"inputs": [
				{
					"internalType": "bytes4",
					"name": "interfaceId",
					"type": "bytes4"
				}
			],
			"name": "supportsInterface",
			"outputs": [
				{
					"internalType": "bool",
					"name": "",
					"type": "bool"
				}
			],
			"stateMutability": "view",
			"type": "function"
		},
		{
			"inputs": [],
			"name": "token",
			"outputs": [
				{
					"internalType": "contract IERC5805",
					"name": "",
					"type": "address"
				}
			],
			"stateMutability": "view",
			"type": "function"
		},
		{
			"inputs": [
				{
					"internalType": "uint256",
					"name": "newQuorumNumerator",
					"type": "uint256"
				}
			],
			"name": "updateQuorumNumerator",
			"outputs": [],
			"stateMutability": "nonpayable",
			"type": "function"
		},
		{
			"inputs": [],
			"name": "version",
			"outputs": [
				{
					"internalType": "string",
					"name": "",
					"type": "string"
				}
			],
			"stateMutability": "view",
			"type": "function"
		},
		{
			"inputs": [],
			"name": "votingDelay",
			"outputs": [
				{
					"internalType": "uint256",
					"name": "",
					"type": "uint256"
				}
			],
			"stateMutability": "view",
			"type": "function"
		},
		{
			"inputs": [],
			"name": "votingPeriod",
			"outputs": [
				{
					"internalType": "uint256",
					"name": "",
					"type": "uint256"
				}
			],
			"stateMutability": "view",
			"type": "function"
		},
		{
			"stateMutability": "payable",
			"type": "receive"
		}
	]
}